{
  "contractName": "AuthorizationMock",
  "abi": [
    {
      "inputs": [
        {
          "internalType": "bool",
          "name": "_authorized",
          "type": "bool"
        }
      ],
      "stateMutability": "nonpayable",
      "type": "constructor"
    },
    {
      "inputs": [],
      "name": "authorized",
      "outputs": [
        {
          "internalType": "bool",
          "name": "",
          "type": "bool"
        }
      ],
      "stateMutability": "view",
      "type": "function"
    },
    {
      "inputs": [
        {
          "internalType": "bool",
          "name": "_authorized",
          "type": "bool"
        }
      ],
      "name": "setAuthorized",
      "outputs": [],
      "stateMutability": "nonpayable",
      "type": "function"
    },
    {
      "inputs": [
        {
          "internalType": "address",
          "name": "",
          "type": "address"
        },
        {
          "internalType": "address",
          "name": "",
          "type": "address"
        },
        {
          "internalType": "bytes4",
          "name": "",
          "type": "bytes4"
        },
        {
          "internalType": "bytes",
          "name": "",
          "type": "bytes"
        }
      ],
      "name": "isAuthorized",
      "outputs": [
        {
          "internalType": "bool",
          "name": "",
          "type": "bool"
        }
      ],
      "stateMutability": "view",
      "type": "function"
    }
  ],
  "bytecode": "0x60806040526000805460ff1916600117905534801561001d57600080fd5b506040516101e23803806101e28339818101604052602081101561004057600080fd5b50516000805491151560ff1990921691909117905561017e806100646000396000f3fe608060405234801561001057600080fd5b50600436106100415760003560e01c80633b04e2a314610046578063456cb7c6146100675780635c50893a14610083575b600080fd5b6100656004803603602081101561005c57600080fd5b5035151561011d565b005b61006f610130565b604080519115158252519081900360200190f35b61006f6004803603608081101561009957600080fd5b6001600160a01b0382358116926020810135909116916001600160e01b031960408301351691908101906080810160608201356401000000008111156100de57600080fd5b8201836020820111156100f057600080fd5b8035906020019184600183028401116401000000008311171561011257600080fd5b509092509050610139565b6000805460ff1916911515919091179055565b60005460ff1681565b60005460ff169594505050505056fea2646970667358221220274e7d0e5ea99e5063bb1210dfe21f30d0676d00fb2fc4348f49fd1fda7fc03864736f6c63430007040033",
  "immutableReferences": {},
  "source": "//SPDX-License-Identifier: Unlicense\npragma solidity ^0.7.0;\n\ncontract AuthorizationMock  {\n    bool public authorized = true;\n\n    constructor(bool _authorized) public {\n        authorized = _authorized;\n    }\n\n    function setAuthorized(bool _authorized) public {\n        authorized = _authorized;\n    }\n\n    function isAuthorized(\n        address,\n        address,\n        bytes4,\n        bytes calldata\n    ) public view returns (bool) {\n        return authorized;\n    }\n}\n",
  "sourcePath": "/Users/lisandro/Protofire/Swarm/swarm-markets-balancer-core-7/contracts/test/mocks/AuthorizationMock.sol",
  "compiler": {
    "name": "solc",
    "version": "0.7.4+commit.3f05b770.Emscripten.clang"
  },
  "schemaVersion": "3.3.4",
  "updatedAt": "2021-03-16T11:34:21.678Z",
  "networkType": "ethereum",
  "devdoc": {
    "kind": "dev",
    "methods": {},
    "version": 1
  },
  "userdoc": {
    "kind": "user",
    "methods": {},
    "version": 1
  }
}