{
  "contractName": "BBronze",
  "abi": [
    {
      "inputs": [],
      "name": "getColor",
      "outputs": [
        {
          "internalType": "bytes32",
          "name": "",
          "type": "bytes32"
        }
      ],
      "stateMutability": "view",
      "type": "function"
    }
  ],
  "bytecode": "0x6080604052348015600f57600080fd5b5060888061001e6000396000f3fe6080604052348015600f57600080fd5b506004361060285760003560e01c80639a86139b14602d575b600080fd5b60336045565b60408051918252519081900360200190f35b6542524f4e5a4560d01b9056fea26469706673582212203aa8a199bd94f4016096847c536321ba76992a743198546cab1dba8dd871de0864736f6c63430007040033",
  "immutableReferences": {},
  "source": "// This program is free software: you can redistribute it and/or modify\n// it under the terms of the GNU General Public License as published by\n// the Free Software Foundation, either version 3 of the License, or\n// (at your option) any later version.\n\n// This program is distributed in the hope that it will be useful,\n// but WITHOUT ANY WARRANTY; without even the implied warranty of\n// MERCHANTABILITY or FITNESS FOR A PARTICULAR PURPOSE.  See the\n// GNU General Public License for more details.\n\n// You should have received a copy of the GNU General Public License\n// along with this program.  If not, see <http://www.gnu.org/licenses/>.\n\npragma solidity ^0.7.0;\n\nabstract contract BColor {\n    function getColor()\n        external virtual view\n        returns (bytes32);\n}\n\ncontract BBronze is BColor {\n    function getColor()\n        external override view\n        returns (bytes32) {\n            return bytes32(\"BRONZE\");\n        }\n}\n",
  "sourcePath": "/Users/lisandro/Protofire/Swarm/swarm-markets-balancer-core-7/contracts/BColor.sol",
  "compiler": {
    "name": "solc",
    "version": "0.7.4+commit.3f05b770.Emscripten.clang"
  },
  "schemaVersion": "3.3.4",
  "updatedAt": "2021-03-16T11:33:09.803Z",
  "devdoc": {
    "kind": "dev",
    "methods": {},
    "version": 1
  },
  "userdoc": {
    "kind": "user",
    "methods": {},
    "version": 1
  }
}