{
  "contractName": "BFactory",
  "abi": [
    {
      "inputs": [
        {
          "internalType": "address",
          "name": "poolImpl",
          "type": "address"
        }
      ],
      "stateMutability": "nonpayable",
      "type": "constructor"
    },
    {
      "anonymous": false,
      "inputs": [
        {
          "indexed": true,
          "internalType": "address",
          "name": "newAuthorization",
          "type": "address"
        }
      ],
      "name": "AuthorizationSet",
      "type": "event"
    },
    {
      "anonymous": false,
      "inputs": [
        {
          "indexed": true,
          "internalType": "address",
          "name": "caller",
          "type": "address"
        },
        {
          "indexed": true,
          "internalType": "address",
          "name": "blabs",
          "type": "address"
        }
      ],
      "name": "LOG_BLABS",
      "type": "event"
    },
    {
      "anonymous": false,
      "inputs": [
        {
          "indexed": true,
          "internalType": "address",
          "name": "caller",
          "type": "address"
        },
        {
          "indexed": true,
          "internalType": "address",
          "name": "exchProxy",
          "type": "address"
        }
      ],
      "name": "LOG_EXCHPROXY",
      "type": "event"
    },
    {
      "anonymous": false,
      "inputs": [
        {
          "indexed": true,
          "internalType": "address",
          "name": "caller",
          "type": "address"
        },
        {
          "indexed": true,
          "internalType": "address",
          "name": "pool",
          "type": "address"
        }
      ],
      "name": "LOG_NEW_POOL",
      "type": "event"
    },
    {
      "anonymous": false,
      "inputs": [
        {
          "indexed": true,
          "internalType": "address",
          "name": "caller",
          "type": "address"
        },
        {
          "indexed": true,
          "internalType": "address",
          "name": "operationsRegistry",
          "type": "address"
        }
      ],
      "name": "LOG_OPERATIONREGISTRY",
      "type": "event"
    },
    {
      "anonymous": false,
      "inputs": [
        {
          "indexed": true,
          "internalType": "address",
          "name": "caller",
          "type": "address"
        },
        {
          "indexed": true,
          "internalType": "address",
          "name": "permissionManager",
          "type": "address"
        }
      ],
      "name": "LOG_PERMISSIONMANAGER",
      "type": "event"
    },
    {
      "anonymous": false,
      "inputs": [
        {
          "indexed": true,
          "internalType": "address",
          "name": "caller",
          "type": "address"
        },
        {
          "indexed": true,
          "internalType": "address",
          "name": "poolImpl",
          "type": "address"
        }
      ],
      "name": "LOG_POOLIMPL",
      "type": "event"
    },
    {
      "inputs": [],
      "name": "_exchProxy",
      "outputs": [
        {
          "internalType": "address",
          "name": "",
          "type": "address"
        }
      ],
      "stateMutability": "view",
      "type": "function",
      "constant": true
    },
    {
      "inputs": [],
      "name": "_operationsRegistry",
      "outputs": [
        {
          "internalType": "address",
          "name": "",
          "type": "address"
        }
      ],
      "stateMutability": "view",
      "type": "function",
      "constant": true
    },
    {
      "inputs": [],
      "name": "_permissionManager",
      "outputs": [
        {
          "internalType": "address",
          "name": "",
          "type": "address"
        }
      ],
      "stateMutability": "view",
      "type": "function",
      "constant": true
    },
    {
      "inputs": [],
      "name": "_poolImpl",
      "outputs": [
        {
          "internalType": "address",
          "name": "",
          "type": "address"
        }
      ],
      "stateMutability": "view",
      "type": "function",
      "constant": true
    },
    {
      "inputs": [],
      "name": "authorization",
      "outputs": [
        {
          "internalType": "contract IAuthorization",
          "name": "",
          "type": "address"
        }
      ],
      "stateMutability": "view",
      "type": "function",
      "constant": true
    },
    {
      "inputs": [],
      "name": "getColor",
      "outputs": [
        {
          "internalType": "bytes32",
          "name": "",
          "type": "bytes32"
        }
      ],
      "stateMutability": "view",
      "type": "function",
      "constant": true
    },
    {
      "inputs": [
        {
          "internalType": "address",
          "name": "b",
          "type": "address"
        }
      ],
      "name": "isBPool",
      "outputs": [
        {
          "internalType": "bool",
          "name": "",
          "type": "bool"
        }
      ],
      "stateMutability": "view",
      "type": "function",
      "constant": true
    },
    {
      "inputs": [],
      "name": "newBPool",
      "outputs": [
        {
          "internalType": "contract BPoolExtend",
          "name": "",
          "type": "address"
        }
      ],
      "stateMutability": "nonpayable",
      "type": "function"
    },
    {
      "inputs": [],
      "name": "getBLabs",
      "outputs": [
        {
          "internalType": "address",
          "name": "",
          "type": "address"
        }
      ],
      "stateMutability": "view",
      "type": "function",
      "constant": true
    },
    {
      "inputs": [
        {
          "internalType": "address",
          "name": "b",
          "type": "address"
        }
      ],
      "name": "setBLabs",
      "outputs": [],
      "stateMutability": "nonpayable",
      "type": "function"
    },
    {
      "inputs": [
        {
          "internalType": "address",
          "name": "poolImpl",
          "type": "address"
        }
      ],
      "name": "setPoolImpl",
      "outputs": [],
      "stateMutability": "nonpayable",
      "type": "function"
    },
    {
      "inputs": [
        {
          "internalType": "address",
          "name": "exchProxy",
          "type": "address"
        }
      ],
      "name": "setExchProxy",
      "outputs": [],
      "stateMutability": "nonpayable",
      "type": "function"
    },
    {
      "inputs": [
        {
          "internalType": "address",
          "name": "operationsRegistry",
          "type": "address"
        }
      ],
      "name": "setOperationsRegistry",
      "outputs": [],
      "stateMutability": "nonpayable",
      "type": "function"
    },
    {
      "inputs": [
        {
          "internalType": "address",
          "name": "permissionManager",
          "type": "address"
        }
      ],
      "name": "setPermissionManager",
      "outputs": [],
      "stateMutability": "nonpayable",
      "type": "function"
    },
    {
      "inputs": [
        {
          "internalType": "address",
          "name": "_authorization",
          "type": "address"
        }
      ],
      "name": "setAuthorization",
      "outputs": [],
      "stateMutability": "nonpayable",
      "type": "function"
    },
    {
      "inputs": [
        {
          "internalType": "contract IERC20",
          "name": "pool",
          "type": "address"
        }
      ],
      "name": "collect",
      "outputs": [],
      "stateMutability": "nonpayable",
      "type": "function"
    }
  ],
  "bytecode": "0x608060405234801561001057600080fd5b50604051611e1d380380611e1d8339818101604052602081101561003357600080fd5b505160028054336001600160a01b031991821617909155600380549091166001600160a01b03909216919091179055611dac806100716000396000f3fe60806040523480156200001157600080fd5b5060043610620000f45760003560e01c80636128d9ab11620000935780636128d9ab14620001e3578063728daa5614620001ed5780639a86139b14620002165780639be05ec21462000232578063a1564406146200023c578063c2bb6dc21462000265578063c6ce34fb14620002a2578063d556c5dc14620002cb57620000f4565b8063025c126e14620000f957806306ec16f814620001245780630f9f5024146200014d57806336ffb16714620001735780633817c86c146200017d57806338683a4a146200018757806346fa2ea9146200019157806349e4b3e514620001ba575b600080fd5b62000122600480360360208110156200011157600080fd5b50356001600160a01b0316620002d5565b005b62000122600480360360208110156200013c57600080fd5b50356001600160a01b031662000333565b62000157620004d8565b604080516001600160a01b039092168252519081900360200190f35b62000157620004e7565b62000157620004f6565b6200015762000505565b6200012260048036036020811015620001a957600080fd5b50356001600160a01b031662000514565b6200012260048036036020811015620001d257600080fd5b50356001600160a01b0316620005bc565b6200015762000664565b62000122600480360360208110156200020557600080fd5b50356001600160a01b031662000673565b620002206200071b565b60408051918252519081900360200190f35b6200015762000728565b62000122600480360360208110156200025457600080fd5b50356001600160a01b031662000737565b6200028e600480360360208110156200027d57600080fd5b50356001600160a01b0316620007df565b604080519115158252519081900360200190f35b6200012260048036036020811015620002ba57600080fd5b50356001600160a01b0316620007fd565b62000157620008a5565b6002546001600160a01b0316331462000325576040805162461bcd60e51b815260206004820152600d60248201526c4552525f4e4f545f424c41425360981b604482015290519081900360640190fd5b620003308162000dfe565b50565b6002546001600160a01b0316331462000383576040805162461bcd60e51b815260206004820152600d60248201526c4552525f4e4f545f424c41425360981b604482015290519081900360640190fd5b6000816001600160a01b03166370a08231306040518263ffffffff1660e01b815260040180826001600160a01b0316815260200191505060206040518083038186803b158015620003d357600080fd5b505afa158015620003e8573d6000803e3d6000fd5b505050506040513d6020811015620003ff57600080fd5b50516002546040805163a9059cbb60e01b81526001600160a01b0392831660048201526024810184905290519293506000929185169163a9059cbb9160448082019260209290919082900301818787803b1580156200045d57600080fd5b505af115801562000472573d6000803e3d6000fd5b505050506040513d60208110156200048957600080fd5b5051905080620004d3576040805162461bcd60e51b815260206004820152601060248201526f11549497d15490cc8c17d1905253115160821b604482015290519081900360640190fd5b505050565b6004546001600160a01b031681565b6002546001600160a01b031690565b6000546001600160a01b031681565b6005546001600160a01b031681565b6002546001600160a01b0316331462000564576040805162461bcd60e51b815260206004820152600d60248201526c4552525f4e4f545f424c41425360981b604482015290519081900360640190fd5b6040516001600160a01b0382169033907fc62f68d4400e3b3c7565eef4479f34e47d945e3e6ce866f262bfcfda2de6ce1590600090a3600480546001600160a01b0319166001600160a01b0392909216919091179055565b6002546001600160a01b031633146200060c576040805162461bcd60e51b815260206004820152600d60248201526c4552525f4e4f545f424c41425360981b604482015290519081900360640190fd5b6040516001600160a01b0382169033907f12f8f0a4e51825e875848c20fcbe093558a1fa6903abd5927e4ec3607d1721b990600090a3600680546001600160a01b0319166001600160a01b0392909216919091179055565b6006546001600160a01b031681565b6002546001600160a01b03163314620006c3576040805162461bcd60e51b815260206004820152600d60248201526c4552525f4e4f545f424c41425360981b604482015290519081900360640190fd5b6040516001600160a01b0382169033907f061786a52dcbea7e93aafcc7d26057c82bf591ed656c4d09673a592dcc733b1c90600090a3600580546001600160a01b0319166001600160a01b0392909216919091179055565b6542524f4e5a4560d01b90565b6003546001600160a01b031681565b6002546001600160a01b0316331462000787576040805162461bcd60e51b815260206004820152600d60248201526c4552525f4e4f545f424c41425360981b604482015290519081900360640190fd5b6040516001600160a01b0382169033907fd0385cf99f492a359155b3571ca3f863bdc57aba44b0160a3b49ad9573776a5890600090a3600380546001600160a01b0319166001600160a01b0392909216919091179055565b6001600160a01b031660009081526001602052604090205460ff1690565b6002546001600160a01b031633146200084d576040805162461bcd60e51b815260206004820152600d60248201526c4552525f4e4f545f424c41425360981b604482015290519081900360640190fd5b6040516001600160a01b0382169033907ff586fa6ee1fc42f5b727f3b214ccbd0b6d7e698c45d49ba32f224fbb8670155d90600090a3600280546001600160a01b0319166001600160a01b0392909216919091179055565b600080546001600160a01b0316635c50893a620008c162000e8d565b306000356001600160e01b031916620008d962000e91565b6040518563ffffffff1660e01b815260040180856001600160a01b03168152602001846001600160a01b03168152602001836001600160e01b031916815260200180602001828103825283818151815260200191508051906020019080838360005b83811015620009555781810151838201526020016200093b565b50505050905090810190601f168015620009835780820380516001836020036101000a031916815260200191505b5095505050505050602060405180830381600087803b158015620009a657600080fd5b505af1158015620009bb573d6000803e3d6000fd5b505050506040513d6020811015620009d257600080fd5b505162000a26576040805162461bcd60e51b815260206004820152601c60248201527f417574686f72697a61626c653a206e6f7420617574686f72697a656400000000604482015290519081900360640190fd5b6005546001600160a01b031662000a84576040805162461bcd60e51b815260206004820152601a60248201527f4552525f4f505f5245475f4e4f545f494e495449414c495a4544000000000000604482015290519081900360640190fd5b6004546001600160a01b031662000ae2576040805162461bcd60e51b815260206004820152601e60248201527f4552525f455843485f50524f58595f4e4f545f494e495449414c495a45440000604482015290519081900360640190fd5b6006546001600160a01b031662000b40576040805162461bcd60e51b815260206004820152601c60248201527f4552525f5045524d5f4d414e5f4e4f545f494e495449414c495a454400000000604482015290519081900360640190fd5b60035460055460048054604080519283526024830181526020830180516001600160e01b031663204a7f0760e21b179052516000946001600160a01b03908116948116939216919062000b939062000ed0565b80856001600160a01b03168152602001846001600160a01b03168152602001836001600160a01b0316815260200180602001828103825283818151815260200191508051906020019080838360005b8381101562000bfc57818101518382015260200162000be2565b50505050905090810190601f16801562000c2a5780820380516001836020036101000a031916815260200191505b5095505050505050604051809103906000f08015801562000c4f573d6000803e3d6000fd5b506001600160a01b0381166000818152600160208190526040808320805460ff191690921790915551929350909133917f8ccec77b0cb63ac2cafd0f5de8cdfadab91ce656d262240ba8a6343bccc5f94591a3604080516392eefe9b60e01b815233600482015290516001600160a01b038316916392eefe9b91602480830192600092919082900301818387803b15801562000cea57600080fd5b505af115801562000cff573d6000803e3d6000fd5b505060408051600180825281830190925260609350915060208083019080368337019050509050818160008151811062000d3557fe5b6001600160a01b03928316602091820292909201810191909152600654604080516362071a2960e01b81526002600482018181526024830193845287516044840152875194909616956362071a29959194889491939192606490920191858101910280838360005b8381101562000db757818101518382015260200162000d9d565b505050509050019350505050600060405180830381600087803b15801562000dde57600080fd5b505af115801562000df3573d6000803e3d6000fd5b509394505050505090565b6001600160a01b03811662000e455760405162461bcd60e51b815260040180806020018281038252602f81526020018062001d48602f913960400191505060405180910390fd5b600080546001600160a01b0319166001600160a01b038316908117825560405190917f0b13ebfb339521b6e5b463c48cb139349ce9ec66833ea58f7c7101847c1fa61c91a250565b3390565b60606000368080601f01602080910402602001604051908101604052809392919081815260200183838082843760009201919091525092935050505090565b610e698062000edf8339019056fe60e06040523480156200001157600080fd5b5060405162000e6938038062000e69833981810160405260808110156200003757600080fd5b8151602083015160408085015160608601805192519496939591949391820192846401000000008211156200006b57600080fd5b9083019060208201858111156200008157600080fd5b82516401000000008111828201881017156200009c57600080fd5b82525081516020918201929091019080838360005b83811015620000cb578181015183820152602001620000b1565b50505050905090810190601f168015620000f95780820380516001836020036101000a031916815260200191505b50604052506200011491506301ffc9a760e01b905062000173565b62000126630271189760e51b62000173565b6001600160601b0319606085811b821660805283811b821660a05284901b1660c0528051156200016957620001678482620001f860201b6200049b1760201c565b505b50505050620003e5565b6001600160e01b03198082161415620001d3576040805162461bcd60e51b815260206004820152601c60248201527f4552433136353a20696e76616c696420696e7465726661636520696400000000604482015290519081900360640190fd5b6001600160e01b0319166000908152602081905260409020805460ff19166001179055565b606062000220838360405180606001604052806027815260200162000e1c6027913962000227565b9392505050565b6060620002348462000335565b620002715760405162461bcd60e51b815260040180806020018281038252602681526020018062000e436026913960400191505060405180910390fd5b60006060856001600160a01b0316856040518082805190602001908083835b60208310620002b15780518252601f19909201916020918201910162000290565b6001836020036101000a038019825116818451168082178552505050505050905001915050600060405180830381855af49150503d806000811462000313576040519150601f19603f3d011682016040523d82523d6000602084013e62000318565b606091505b5090925090506200032b8282866200033b565b9695505050505050565b3b151590565b606083156200034c57508162000220565b8251156200035d5782518084602001fd5b8160405162461bcd60e51b81526004018080602001828103825283818151815260200191508051906020019080838360005b83811015620003a95781810151838201526020016200038f565b50505050905090810190601f168015620003d75780820380516001836020036101000a031916815260200191505b509250505060405180910390fd5b60805160601c60a05160601c60c05160601c6109f26200042a6000398061043352806107df525080610468528061071252508061040f52806104d952506109f26000f3fe6080604052600436106100595760003560e01c806301ffc9a7146100705780635c60da1b146100b85780639c008673146100e9578063bc197c81146100fe578063c7c30be1146102e9578063f23a6e61146102fe57610068565b36610068576100666103d4565b005b6100666103d4565b34801561007c57600080fd5b506100a46004803603602081101561009357600080fd5b50356001600160e01b0319166103ee565b604080519115158252519081900360200190f35b3480156100c457600080fd5b506100cd61040d565b604080516001600160a01b039092168252519081900360200190f35b3480156100f557600080fd5b506100cd610431565b34801561010a57600080fd5b506102cc600480360360a081101561012157600080fd5b6001600160a01b038235811692602081013590911691810190606081016040820135600160201b81111561015457600080fd5b82018360208201111561016657600080fd5b803590602001918460208302840111600160201b8311171561018757600080fd5b9190808060200260200160405190810160405280939291908181526020018383602002808284376000920191909152509295949360208101935035915050600160201b8111156101d657600080fd5b8201836020820111156101e857600080fd5b803590602001918460208302840111600160201b8311171561020957600080fd5b9190808060200260200160405190810160405280939291908181526020018383602002808284376000920191909152509295949360208101935035915050600160201b81111561025857600080fd5b82018360208201111561026a57600080fd5b803590602001918460018302840111600160201b8311171561028b57600080fd5b91908080601f016020809104026020016040519081016040528093929190818152602001838380828437600092019190915250929550610455945050505050565b604080516001600160e01b03199092168252519081900360200190f35b3480156102f557600080fd5b506100cd610466565b34801561030a57600080fd5b506102cc600480360360a081101561032157600080fd5b6001600160a01b03823581169260208101359091169160408201359160608101359181019060a081016080820135600160201b81111561036057600080fd5b82018360208201111561037257600080fd5b803590602001918460018302840111600160201b8311171561039357600080fd5b91908080601f01602080910402602001604051908101604052809392919081815260200183838082843760009201919091525092955061048a945050505050565b6103dc6104c7565b6103ec6103e76104d7565b6104fb565b565b6001600160e01b03191660009081526020819052604090205460ff1690565b7f000000000000000000000000000000000000000000000000000000000000000081565b7f000000000000000000000000000000000000000000000000000000000000000081565b63bc197c8160e01b95945050505050565b7f000000000000000000000000000000000000000000000000000000000000000081565b63f23a6e6160e01b95945050505050565b60606104c083836040518060600160405280602781526020016109706027913961051f565b9392505050565b6104cf610622565b6103ec61077d565b7f000000000000000000000000000000000000000000000000000000000000000090565b3660008037600080366000845af43d6000803e80801561051a573d6000f35b3d6000fd5b606061052a8461089d565b6105655760405162461bcd60e51b81526004018080602001828103825260268152602001806109976026913960400191505060405180910390fd5b60006060856001600160a01b0316856040518082805190602001908083835b602083106105a35780518252601f199092019160209182019101610584565b6001836020036101000a038019825116818451168082178552505050505050905001915050600060405180830381855af49150503d8060008114610603576040519150601f19603f3d011682016040523d82523d6000602084013e610608565b606091505b50915091506106188282866108a3565b9695505050505050565b6000356001600160e01b0319166313da703560e21b148061065557506000356001600160e01b03191663b02f0b7360e01b145b8061067257506000356001600160e01b031916638201aa3f60e01b145b8061068f57506000356001600160e01b031916631f17a7a960e21b145b806106ac57506000356001600160e01b031916635db3427760e01b145b806106c957506000356001600160e01b03191663036836fd60e51b145b806106e657506000356001600160e01b0319166346ab38f160e01b145b8061070257506000356001600160e01b03191662592ce960e31b145b156103ec57336001600160a01b037f000000000000000000000000000000000000000000000000000000000000000016146103ec576040805162461bcd60e51b81526020600482015260166024820152754552525f4e4f545f45584348414e47455f50524f585960501b604482015290519081900360640190fd5b6000356001600160e01b031916631c9c3ca760e31b14156103ec5760006107a73660048184610947565b60608110156107b557600080fd5b506040805163a4c1cccb60e01b815291356001600160a01b039081166004840181905291519193507f0000000000000000000000000000000000000000000000000000000000000000169163a4c1cccb916024808301926020929190829003018186803b15801561082557600080fd5b505afa158015610839573d6000803e3d6000fd5b505050506040513d602081101561084f57600080fd5b505161089a576040805162461bcd60e51b815260206004820152601560248201527422a9292fa727aa2fa0a62627aba2a22faa27a5a2a760591b604482015290519081900360640190fd5b50565b3b151590565b606083156108b25750816104c0565b8251156108c25782518084602001fd5b8160405162461bcd60e51b81526004018080602001828103825283818151815260200191508051906020019080838360005b8381101561090c5781810151838201526020016108f4565b50505050905090810190601f1680156109395780820380516001836020036101000a031916815260200191505b509250505060405180910390fd5b60008085851115610956578182fd5b83861115610962578182fd5b505082019391909203915056fe416464726573733a206c6f772d6c6576656c2064656c65676174652063616c6c206661696c6564416464726573733a2064656c65676174652063616c6c20746f206e6f6e2d636f6e7472616374a2646970667358221220fb6b1f934e006c1b971335d0992c4b3c5ed2ce5ac8d7608868b062b31182b74d64736f6c63430007040033416464726573733a206c6f772d6c6576656c2064656c65676174652063616c6c206661696c6564416464726573733a2064656c65676174652063616c6c20746f206e6f6e2d636f6e7472616374417574686f72697a61626c653a20617574686f72697a6174696f6e20697320746865207a65726f2061646472657373a26469706673582212208e505d69e18a2dfa355abdf879fbd3c5f595fec94b3cf3c855b115f01fee841164736f6c63430007040033",
  "immutableReferences": {},
  "source": "// This program is free software: you can redistribute it and/or modify\n// it under the terms of the GNU General Public License as published by\n// the Free Software Foundation, either version 3 of the License, or\n// (at your option) any later version.\n\n// This program is disstributed in the hope that it will be useful,\n// but WITHOUT ANY WARRANTY; without even the implied warranty of\n// MERCHANTABILITY or FITNESS FOR A PARTICULAR PURPOSE.  See the\n// GNU General Public License for more details.\n\n// You should have received a copy of the GNU General Public License\n// along with this program.  If not, see <http://www.gnu.org/licenses/>.\n\npragma solidity ^0.7.0;\n\n// Builds new BPools, logging their addresses and providing `isBPool(address) -> (bool)`\n\nimport \"./BColor.sol\";\nimport \"./BPoolExtend.sol\";\nimport \"./IERC20.sol\";\nimport \"swarm-smart-contracts/contracts/authorization/Authorizable.sol\";\n\ninterface IBpool {\n    function initialize() external;\n    function setController(address manager) external;\n}\n\ninterface IPermissionManager {\n    function assignItem(uint256 _itemId, address[] memory _accounts) external;\n}\n\ncontract BFactory is BBronze, Authorizable {\n    event LOG_NEW_POOL(\n        address indexed caller,\n        address indexed pool\n    );\n\n    event LOG_BLABS(\n        address indexed caller,\n        address indexed blabs\n    );\n\n    event LOG_POOLIMPL(\n        address indexed caller,\n        address indexed poolImpl\n    );\n\n    event LOG_EXCHPROXY(\n        address indexed caller,\n        address indexed exchProxy\n    );\n\n    event LOG_OPERATIONREGISTRY(\n        address indexed caller,\n        address indexed operationsRegistry\n    );\n\n    event LOG_PERMISSIONMANAGER(\n        address indexed caller,\n        address indexed permissionManager\n    );\n\n    mapping(address=>bool) private _isBPool;\n\n    function isBPool(address b)\n        external view returns (bool)\n    {\n        return _isBPool[b];\n    }\n\n    function newBPool()\n        external\n        onlyAuthorized\n        returns (BPoolExtend)\n    {\n        require(_operationsRegistry != address(0), \"ERR_OP_REG_NOT_INITIALIZED\");\n        require(_exchProxy != address(0), \"ERR_EXCH_PROXY_NOT_INITIALIZED\");\n        require(_permissionManager != address(0), \"ERR_PERM_MAN_NOT_INITIALIZED\");\n        BPoolExtend bpool = new BPoolExtend(_poolImpl, _operationsRegistry, _exchProxy, abi.encodeWithSignature(\"initialize()\"));\n        _isBPool[address(bpool)] = true;\n        emit LOG_NEW_POOL(msg.sender, address(bpool));\n        IBpool(address(bpool)).setController(msg.sender);\n        address[] memory accounts = new address[](1);\n        accounts[0] = address(bpool);\n        IPermissionManager(_permissionManager).assignItem(2, accounts);\n        return bpool;\n    }\n\n    address private _blabs;\n    address public _poolImpl;\n    address public _exchProxy;\n    address public _operationsRegistry;\n    address public _permissionManager;\n\n    constructor(address poolImpl) public {\n        _blabs = msg.sender;\n        _poolImpl = poolImpl;\n    }\n\n    function getBLabs()\n        external view\n        returns (address)\n    {\n        return _blabs;\n    }\n\n    function setBLabs(address b)\n        external\n    {\n        require(msg.sender == _blabs, \"ERR_NOT_BLABS\");\n        emit LOG_BLABS(msg.sender, b);\n        _blabs = b;\n    }\n\n    function setPoolImpl(address poolImpl)\n        external\n    {\n        require(msg.sender == _blabs, \"ERR_NOT_BLABS\");\n        emit LOG_POOLIMPL(msg.sender, poolImpl);\n        _poolImpl = poolImpl;\n    }\n\n    function setExchProxy(address exchProxy)\n        external\n    {\n        require(msg.sender == _blabs, \"ERR_NOT_BLABS\");\n        emit LOG_EXCHPROXY(msg.sender, exchProxy);\n        _exchProxy = exchProxy;\n    }\n\n    function setOperationsRegistry(address operationsRegistry)\n        external\n    {\n        require(msg.sender == _blabs, \"ERR_NOT_BLABS\");\n        emit LOG_OPERATIONREGISTRY(msg.sender, operationsRegistry);\n        _operationsRegistry = operationsRegistry;\n    }\n\n    function setPermissionManager(address permissionManager)\n        external\n    {\n        require(msg.sender == _blabs, \"ERR_NOT_BLABS\");\n        emit LOG_PERMISSIONMANAGER(msg.sender, permissionManager);\n        _permissionManager = permissionManager;\n    }\n\n    function setAuthorization(address _authorization)\n        external\n    {\n        require(msg.sender == _blabs, \"ERR_NOT_BLABS\");\n        _setAuthorization(_authorization);\n    }\n\n    function collect(IERC20 pool)\n        external\n    {\n        require(msg.sender == _blabs, \"ERR_NOT_BLABS\");\n        uint collected = pool.balanceOf(address(this));\n        bool xfer = pool.transfer(_blabs, collected);\n        require(xfer, \"ERR_ERC20_FAILED\");\n    }\n}\n",
  "sourcePath": "/home/dbale/_dev/_git/x_aux/balancer-core/contracts/BFactory.sol",
  "compiler": {
    "name": "solc",
    "version": "0.7.4+commit.3f05b770.Emscripten.clang"
  },
  "schemaVersion": "3.3.4",
  "updatedAt": "2022-06-22T17:52:35.838Z",
  "networkType": "ethereum",
  "devdoc": {
    "kind": "dev",
    "methods": {},
    "version": 1
  },
  "userdoc": {
    "kind": "user",
    "methods": {},
    "version": 1
  }
}