{
  "contractName": "BMath",
  "abi": [
    {
      "inputs": [],
      "name": "BONE",
      "outputs": [
        {
          "internalType": "uint256",
          "name": "",
          "type": "uint256"
        }
      ],
      "stateMutability": "view",
      "type": "function"
    },
    {
      "inputs": [],
      "name": "BPOW_PRECISION",
      "outputs": [
        {
          "internalType": "uint256",
          "name": "",
          "type": "uint256"
        }
      ],
      "stateMutability": "view",
      "type": "function"
    },
    {
      "inputs": [],
      "name": "EXIT_FEE",
      "outputs": [
        {
          "internalType": "uint256",
          "name": "",
          "type": "uint256"
        }
      ],
      "stateMutability": "view",
      "type": "function"
    },
    {
      "inputs": [],
      "name": "INIT_POOL_SUPPLY",
      "outputs": [
        {
          "internalType": "uint256",
          "name": "",
          "type": "uint256"
        }
      ],
      "stateMutability": "view",
      "type": "function"
    },
    {
      "inputs": [],
      "name": "MAX_BOUND_TOKENS",
      "outputs": [
        {
          "internalType": "uint256",
          "name": "",
          "type": "uint256"
        }
      ],
      "stateMutability": "view",
      "type": "function"
    },
    {
      "inputs": [],
      "name": "MAX_BPOW_BASE",
      "outputs": [
        {
          "internalType": "uint256",
          "name": "",
          "type": "uint256"
        }
      ],
      "stateMutability": "view",
      "type": "function"
    },
    {
      "inputs": [],
      "name": "MAX_FEE",
      "outputs": [
        {
          "internalType": "uint256",
          "name": "",
          "type": "uint256"
        }
      ],
      "stateMutability": "view",
      "type": "function"
    },
    {
      "inputs": [],
      "name": "MAX_IN_RATIO",
      "outputs": [
        {
          "internalType": "uint256",
          "name": "",
          "type": "uint256"
        }
      ],
      "stateMutability": "view",
      "type": "function"
    },
    {
      "inputs": [],
      "name": "MAX_OUT_RATIO",
      "outputs": [
        {
          "internalType": "uint256",
          "name": "",
          "type": "uint256"
        }
      ],
      "stateMutability": "view",
      "type": "function"
    },
    {
      "inputs": [],
      "name": "MAX_TOTAL_WEIGHT",
      "outputs": [
        {
          "internalType": "uint256",
          "name": "",
          "type": "uint256"
        }
      ],
      "stateMutability": "view",
      "type": "function"
    },
    {
      "inputs": [],
      "name": "MAX_WEIGHT",
      "outputs": [
        {
          "internalType": "uint256",
          "name": "",
          "type": "uint256"
        }
      ],
      "stateMutability": "view",
      "type": "function"
    },
    {
      "inputs": [],
      "name": "MIN_BALANCE",
      "outputs": [
        {
          "internalType": "uint256",
          "name": "",
          "type": "uint256"
        }
      ],
      "stateMutability": "view",
      "type": "function"
    },
    {
      "inputs": [],
      "name": "MIN_BOUND_TOKENS",
      "outputs": [
        {
          "internalType": "uint256",
          "name": "",
          "type": "uint256"
        }
      ],
      "stateMutability": "view",
      "type": "function"
    },
    {
      "inputs": [],
      "name": "MIN_BPOW_BASE",
      "outputs": [
        {
          "internalType": "uint256",
          "name": "",
          "type": "uint256"
        }
      ],
      "stateMutability": "view",
      "type": "function"
    },
    {
      "inputs": [],
      "name": "MIN_FEE",
      "outputs": [
        {
          "internalType": "uint256",
          "name": "",
          "type": "uint256"
        }
      ],
      "stateMutability": "view",
      "type": "function"
    },
    {
      "inputs": [],
      "name": "MIN_WEIGHT",
      "outputs": [
        {
          "internalType": "uint256",
          "name": "",
          "type": "uint256"
        }
      ],
      "stateMutability": "view",
      "type": "function"
    },
    {
      "inputs": [],
      "name": "getColor",
      "outputs": [
        {
          "internalType": "bytes32",
          "name": "",
          "type": "bytes32"
        }
      ],
      "stateMutability": "view",
      "type": "function"
    },
    {
      "inputs": [
        {
          "internalType": "uint256",
          "name": "tokenBalanceIn",
          "type": "uint256"
        },
        {
          "internalType": "uint256",
          "name": "tokenWeightIn",
          "type": "uint256"
        },
        {
          "internalType": "uint256",
          "name": "tokenBalanceOut",
          "type": "uint256"
        },
        {
          "internalType": "uint256",
          "name": "tokenWeightOut",
          "type": "uint256"
        },
        {
          "internalType": "uint256",
          "name": "swapFee",
          "type": "uint256"
        }
      ],
      "name": "calcSpotPrice",
      "outputs": [
        {
          "internalType": "uint256",
          "name": "spotPrice",
          "type": "uint256"
        }
      ],
      "stateMutability": "pure",
      "type": "function"
    },
    {
      "inputs": [
        {
          "internalType": "uint256",
          "name": "tokenBalanceIn",
          "type": "uint256"
        },
        {
          "internalType": "uint256",
          "name": "tokenWeightIn",
          "type": "uint256"
        },
        {
          "internalType": "uint256",
          "name": "tokenBalanceOut",
          "type": "uint256"
        },
        {
          "internalType": "uint256",
          "name": "tokenWeightOut",
          "type": "uint256"
        },
        {
          "internalType": "uint256",
          "name": "tokenAmountIn",
          "type": "uint256"
        },
        {
          "internalType": "uint256",
          "name": "swapFee",
          "type": "uint256"
        }
      ],
      "name": "calcOutGivenIn",
      "outputs": [
        {
          "internalType": "uint256",
          "name": "tokenAmountOut",
          "type": "uint256"
        }
      ],
      "stateMutability": "pure",
      "type": "function"
    },
    {
      "inputs": [
        {
          "internalType": "uint256",
          "name": "tokenBalanceIn",
          "type": "uint256"
        },
        {
          "internalType": "uint256",
          "name": "tokenWeightIn",
          "type": "uint256"
        },
        {
          "internalType": "uint256",
          "name": "tokenBalanceOut",
          "type": "uint256"
        },
        {
          "internalType": "uint256",
          "name": "tokenWeightOut",
          "type": "uint256"
        },
        {
          "internalType": "uint256",
          "name": "tokenAmountOut",
          "type": "uint256"
        },
        {
          "internalType": "uint256",
          "name": "swapFee",
          "type": "uint256"
        }
      ],
      "name": "calcInGivenOut",
      "outputs": [
        {
          "internalType": "uint256",
          "name": "tokenAmountIn",
          "type": "uint256"
        }
      ],
      "stateMutability": "pure",
      "type": "function"
    },
    {
      "inputs": [
        {
          "internalType": "uint256",
          "name": "tokenBalanceIn",
          "type": "uint256"
        },
        {
          "internalType": "uint256",
          "name": "tokenWeightIn",
          "type": "uint256"
        },
        {
          "internalType": "uint256",
          "name": "poolSupply",
          "type": "uint256"
        },
        {
          "internalType": "uint256",
          "name": "totalWeight",
          "type": "uint256"
        },
        {
          "internalType": "uint256",
          "name": "tokenAmountIn",
          "type": "uint256"
        },
        {
          "internalType": "uint256",
          "name": "swapFee",
          "type": "uint256"
        }
      ],
      "name": "calcPoolOutGivenSingleIn",
      "outputs": [
        {
          "internalType": "uint256",
          "name": "poolAmountOut",
          "type": "uint256"
        }
      ],
      "stateMutability": "pure",
      "type": "function"
    },
    {
      "inputs": [
        {
          "internalType": "uint256",
          "name": "tokenBalanceIn",
          "type": "uint256"
        },
        {
          "internalType": "uint256",
          "name": "tokenWeightIn",
          "type": "uint256"
        },
        {
          "internalType": "uint256",
          "name": "poolSupply",
          "type": "uint256"
        },
        {
          "internalType": "uint256",
          "name": "totalWeight",
          "type": "uint256"
        },
        {
          "internalType": "uint256",
          "name": "poolAmountOut",
          "type": "uint256"
        },
        {
          "internalType": "uint256",
          "name": "swapFee",
          "type": "uint256"
        }
      ],
      "name": "calcSingleInGivenPoolOut",
      "outputs": [
        {
          "internalType": "uint256",
          "name": "tokenAmountIn",
          "type": "uint256"
        }
      ],
      "stateMutability": "pure",
      "type": "function"
    },
    {
      "inputs": [
        {
          "internalType": "uint256",
          "name": "tokenBalanceOut",
          "type": "uint256"
        },
        {
          "internalType": "uint256",
          "name": "tokenWeightOut",
          "type": "uint256"
        },
        {
          "internalType": "uint256",
          "name": "poolSupply",
          "type": "uint256"
        },
        {
          "internalType": "uint256",
          "name": "totalWeight",
          "type": "uint256"
        },
        {
          "internalType": "uint256",
          "name": "poolAmountIn",
          "type": "uint256"
        },
        {
          "internalType": "uint256",
          "name": "swapFee",
          "type": "uint256"
        }
      ],
      "name": "calcSingleOutGivenPoolIn",
      "outputs": [
        {
          "internalType": "uint256",
          "name": "tokenAmountOut",
          "type": "uint256"
        }
      ],
      "stateMutability": "pure",
      "type": "function"
    },
    {
      "inputs": [
        {
          "internalType": "uint256",
          "name": "tokenBalanceOut",
          "type": "uint256"
        },
        {
          "internalType": "uint256",
          "name": "tokenWeightOut",
          "type": "uint256"
        },
        {
          "internalType": "uint256",
          "name": "poolSupply",
          "type": "uint256"
        },
        {
          "internalType": "uint256",
          "name": "totalWeight",
          "type": "uint256"
        },
        {
          "internalType": "uint256",
          "name": "tokenAmountOut",
          "type": "uint256"
        },
        {
          "internalType": "uint256",
          "name": "swapFee",
          "type": "uint256"
        }
      ],
      "name": "calcPoolInGivenSingleOut",
      "outputs": [
        {
          "internalType": "uint256",
          "name": "poolAmountIn",
          "type": "uint256"
        }
      ],
      "stateMutability": "pure",
      "type": "function"
    }
  ],
  "bytecode": "0x608060405234801561001057600080fd5b50610dbc806100206000396000f3fe608060405234801561001057600080fd5b50600436106101585760003560e01c8063a221ee49116100c3578063bc694ea21161007c578063bc694ea21461032b578063c36596a61461017f578063c6580d1214610333578063e4a28a521461015d578063ec0930211461033b578063f8d6aed41461034357610158565b8063a221ee491461029b578063b0e0d136146102d0578063b7b800a4146102d8578063ba019dab146102e0578063ba9530a6146102e8578063bc063e1a1461032357610158565b80638656b653116101155780638656b65314610205578063867378c51461024057806389298012146102485780639381cd2b14610283578063992e2a921461028b5780639a86139b1461029357610158565b806309a3bbe41461015d578063189d00ca14610177578063218b53821461017f5780635c1bbaf71461018757806376c7a3c7146101c257806382f652ad146101ca575b600080fd5b61016561037e565b60408051918252519081900360200190f35b61016561038b565b61016561039f565b610165600480360360c081101561019d57600080fd5b5080359060208101359060408101359060608101359060808101359060a001356103ab565b610165610463565b610165600480360360c08110156101e057600080fd5b5080359060208101359060408101359060608101359060808101359060a00135610475565b610165600480360360c081101561021b57600080fd5b5080359060208101359060408101359060608101359060808101359060a00135610534565b6101656105d5565b610165600480360360c081101561025e57600080fd5b5080359060208101359060408101359060608101359060808101359060a001356105e9565b610165610699565b6101656106a6565b6101656106b2565b610165600480360360a08110156102b157600080fd5b50803590602081013590604081013590606081013590608001356106bf565b610165610724565b610165610729565b61016561072e565b610165600480360360c08110156102fe57600080fd5b5080359060208101359060408101359060608101359060808101359060a00135610733565b6101656107b4565b6101656107c4565b6101656107d0565b6101656107d5565b610165600480360360c081101561035957600080fd5b5080359060208101359060408101359060608101359060808101359060a001356107e5565b6802b5e3af16b188000081565b6402540be400670de0b6b3a76400005b0481565b670de0b6b3a764000081565b6000806103b88786610868565b905060006103c6878661097d565b905060006103d48289610868565b905060006103ea670de0b6b3a764000085610868565b905060006103f883836109d1565b90506000610406828e610adf565b90506000610414828f610ba1565b9050600061043361042d670de0b6b3a76400008a610ba1565b8b610adf565b90506104508261044b670de0b6b3a764000084610ba1565b610868565b9f9e505050505050505050505050505050565b620f4240670de0b6b3a764000061039b565b6000806104828786610868565b90506000610498670de0b6b3a764000083610ba1565b905060006104a68286610adf565b905060006104c08761044b670de0b6b3a764000085610ba1565b905060006104ce8c83610ba1565b905060006104dc828e610868565b905060006104ea82886109d1565b905060006104f8828e610adf565b905060006105068e83610ba1565b905061051f8161044b670de0b6b3a76400006000610ba1565b99505050505050505050509695505050505050565b6000806105418786610868565b9050600061056061055a670de0b6b3a764000084610ba1565b85610adf565b9050600061057f8661057a670de0b6b3a764000085610ba1565b610adf565b9050600061058d8b8361097d565b9050600061059b828d610868565b905060006105a982876109d1565b905060006105b7828d610adf565b90506105c3818d610ba1565b9e9d5050505050505050505050505050565b64e8d4a51000670de0b6b3a764000061039b565b6000806105f68786610868565b905060006106118561057a670de0b6b3a76400006000610ba1565b9050600061061f8883610ba1565b9050600061062d828a610868565b9050600061064c82610647670de0b6b3a764000088610868565b6109d1565b9050600061065a828e610adf565b905060006106688e83610ba1565b9050600061068161042d670de0b6b3a76400008a610ba1565b90506104508261057a670de0b6b3a764000084610ba1565b68056bc75e2d6310000081565b6704a03ce68d21555681565b6542524f4e5a4560d01b90565b6000806106cc8787610868565b905060006106da8686610868565b905060006106e88383610868565b9050600061070a670de0b6b3a764000061044b670de0b6b3a764000089610ba1565b90506107168282610adf565b9a9950505050505050505050565b600881565b600281565b600181565b6000806107408786610868565b90506000610756670de0b6b3a764000085610ba1565b90506107628582610adf565b905060006107748a61044b8c8561097d565b9050600061078282856109d1565b90506000610798670de0b6b3a764000083610ba1565b90506107a48a82610adf565b9c9b505050505050505050505050565b600a670de0b6b3a764000061039b565b671bc16d674ec7ffff81565b600081565b6002670de0b6b3a764000061039b565b6000806107f28588610868565b905060006108008786610ba1565b9050600061080e8883610868565b9050600061081c82856109d1565b905061083081670de0b6b3a7640000610ba1565b9050610844670de0b6b3a764000087610ba1565b94506108596108538c83610adf565b86610868565b9b9a5050505050505050505050565b6000816108ab576040805162461bcd60e51b815260206004820152600c60248201526b4552525f4449565f5a45524f60a01b604482015290519081900360640190fd5b670de0b6b3a764000083028315806108d35750670de0b6b3a76400008482816108d057fe5b04145b610917576040805162461bcd60e51b815260206004820152601060248201526f11549497d1125597d25395115493905360821b604482015290519081900360640190fd5b60028304810181811015610965576040805162461bcd60e51b815260206004820152601060248201526f11549497d1125597d25395115493905360821b604482015290519081900360640190fd5b600084828161097057fe5b0493505050505b92915050565b6000828201838110156109ca576040805162461bcd60e51b815260206004820152601060248201526f4552525f4144445f4f564552464c4f5760801b604482015290519081900360640190fd5b9392505050565b60006001831015610a21576040805162461bcd60e51b81526020600482015260156024820152744552525f42504f575f424153455f544f4f5f4c4f5760581b604482015290519081900360640190fd5b671bc16d674ec7ffff831115610a77576040805162461bcd60e51b815260206004820152601660248201527508aa4a4be84a09eaebe8482a68abea89e9ebe90928e960531b604482015290519081900360640190fd5b6000610a8283610c03565b90506000610a908483610ba1565b90506000610aa686610aa185610c1e565b610c2c565b905081610ab7579250610977915050565b6000610ac887846305f5e100610c83565b9050610ad48282610adf565b979650505050505050565b6000828202831580610af9575082848281610af657fe5b04145b610b3d576040805162461bcd60e51b815260206004820152601060248201526f4552525f4d554c5f4f564552464c4f5760801b604482015290519081900360640190fd5b6706f05b59d3b20000810181811015610b90576040805162461bcd60e51b815260206004820152601060248201526f4552525f4d554c5f4f564552464c4f5760801b604482015290519081900360640190fd5b6000670de0b6b3a764000082610970565b6000806000610bb08585610d61565b915091508015610bfb576040805162461bcd60e51b81526020600482015260116024820152704552525f5355425f554e444552464c4f5760781b604482015290519081900360640190fd5b509392505050565b6000670de0b6b3a7640000610c1783610c1e565b0292915050565b670de0b6b3a7640000900490565b60008060028306610c4557670de0b6b3a7640000610c47565b835b90506002830492505b82156109ca57610c608485610adf565b93506002830615610c7857610c758185610adf565b90505b600283049250610c50565b6000828180610c9a87670de0b6b3a7640000610d61565b9092509050670de0b6b3a764000080600060015b888410610d52576000670de0b6b3a764000082029050600080610ce28a610cdd85670de0b6b3a7640000610ba1565b610d61565b91509150610cf48761057a848c610adf565b9650610d008784610868565b965086610d0f57505050610d52565b8715610d19579315935b8015610d23579315935b8415610d3a57610d338688610ba1565b9550610d47565b610d44868861097d565b95505b505050600101610cae565b50909998505050505050505050565b600080828410610d775750508082036000610d7f565b505081810360015b925092905056fea26469706673582212207d21b37ace7e746096bcd82293f2b76c001d2ddd8cd81e90875c1efa59aec39064736f6c63430007040033",
  "immutableReferences": {},
  "source": "// This program is free software: you can redistribute it and/or modify\n// it under the terms of the GNU General Public License as published by\n// the Free Software Foundation, either version 3 of the License, or\n// (at your option) any later version.\n\n// This program is distributed in the hope that it will be useful,\n// but WITHOUT ANY WARRANTY; without even the implied warranty of\n// MERCHANTABILITY or FITNESS FOR A PARTICULAR PURPOSE.  See the\n// GNU General Public License for more details.\n\n// You should have received a copy of the GNU General Public License\n// along with this program.  If not, see <http://www.gnu.org/licenses/>.\n\npragma solidity ^0.7.0;\n\nimport \"./BNum.sol\";\n\ncontract BMath is BBronze, BConst, BNum {\n    /**********************************************************************************************\n    // calcSpotPrice                                                                             //\n    // sP = spotPrice                                                                            //\n    // bI = tokenBalanceIn                ( bI / wI )         1                                  //\n    // bO = tokenBalanceOut         sP =  -----------  *  ----------                             //\n    // wI = tokenWeightIn                 ( bO / wO )     ( 1 - sF )                             //\n    // wO = tokenWeightOut                                                                       //\n    // sF = swapFee                                                                              //\n    **********************************************************************************************/\n    function calcSpotPrice(\n        uint tokenBalanceIn,\n        uint tokenWeightIn,\n        uint tokenBalanceOut,\n        uint tokenWeightOut,\n        uint swapFee\n    )\n        public pure\n        returns (uint spotPrice)\n    {\n        uint numer = bdiv(tokenBalanceIn, tokenWeightIn);\n        uint denom = bdiv(tokenBalanceOut, tokenWeightOut);\n        uint ratio = bdiv(numer, denom);\n        uint scale = bdiv(BONE, bsub(BONE, swapFee));\n        return  (spotPrice = bmul(ratio, scale));\n    }\n\n    /**********************************************************************************************\n    // calcOutGivenIn                                                                            //\n    // aO = tokenAmountOut                                                                       //\n    // bO = tokenBalanceOut                                                                      //\n    // bI = tokenBalanceIn              /      /            bI             \\    (wI / wO) \\      //\n    // aI = tokenAmountIn    aO = bO * |  1 - | --------------------------  | ^            |     //\n    // wI = tokenWeightIn               \\      \\ ( bI + ( aI * ( 1 - sF )) /              /      //\n    // wO = tokenWeightOut                                                                       //\n    // sF = swapFee                                                                              //\n    **********************************************************************************************/\n    function calcOutGivenIn(\n        uint tokenBalanceIn,\n        uint tokenWeightIn,\n        uint tokenBalanceOut,\n        uint tokenWeightOut,\n        uint tokenAmountIn,\n        uint swapFee\n    )\n        public pure\n        returns (uint tokenAmountOut)\n    {\n        uint weightRatio = bdiv(tokenWeightIn, tokenWeightOut);\n        uint adjustedIn = bsub(BONE, swapFee);\n        adjustedIn = bmul(tokenAmountIn, adjustedIn);\n        uint y = bdiv(tokenBalanceIn, badd(tokenBalanceIn, adjustedIn));\n        uint foo = bpow(y, weightRatio);\n        uint bar = bsub(BONE, foo);\n        tokenAmountOut = bmul(tokenBalanceOut, bar);\n        return tokenAmountOut;\n    }\n\n    /**********************************************************************************************\n    // calcInGivenOut                                                                            //\n    // aI = tokenAmountIn                                                                        //\n    // bO = tokenBalanceOut               /  /     bO      \\    (wO / wI)      \\                 //\n    // bI = tokenBalanceIn          bI * |  | ------------  | ^            - 1  |                //\n    // aO = tokenAmountOut    aI =        \\  \\ ( bO - aO ) /                   /                 //\n    // wI = tokenWeightIn           --------------------------------------------                 //\n    // wO = tokenWeightOut                          ( 1 - sF )                                   //\n    // sF = swapFee                                                                              //\n    **********************************************************************************************/\n    function calcInGivenOut(\n        uint tokenBalanceIn,\n        uint tokenWeightIn,\n        uint tokenBalanceOut,\n        uint tokenWeightOut,\n        uint tokenAmountOut,\n        uint swapFee\n    )\n        public pure\n        returns (uint tokenAmountIn)\n    {\n        uint weightRatio = bdiv(tokenWeightOut, tokenWeightIn);\n        uint diff = bsub(tokenBalanceOut, tokenAmountOut);\n        uint y = bdiv(tokenBalanceOut, diff);\n        uint foo = bpow(y, weightRatio);\n        foo = bsub(foo, BONE);\n        tokenAmountIn = bsub(BONE, swapFee);\n        tokenAmountIn = bdiv(bmul(tokenBalanceIn, foo), tokenAmountIn);\n        return tokenAmountIn;\n    }\n\n    /**********************************************************************************************\n    // calcPoolOutGivenSingleIn                                                                  //\n    // pAo = poolAmountOut         /                                              \\              //\n    // tAi = tokenAmountIn        ///      /     //    wI \\      \\\\       \\     wI \\             //\n    // wI = tokenWeightIn        //| tAi *| 1 - || 1 - --  | * sF || + tBi \\    --  \\            //\n    // tW = totalWeight     pAo=||  \\      \\     \\\\    tW /      //         | ^ tW   | * pS - pS //\n    // tBi = tokenBalanceIn      \\\\  ------------------------------------- /        /            //\n    // pS = poolSupply            \\\\                    tBi               /        /             //\n    // sF = swapFee                \\                                              /              //\n    **********************************************************************************************/\n    function calcPoolOutGivenSingleIn(\n        uint tokenBalanceIn,\n        uint tokenWeightIn,\n        uint poolSupply,\n        uint totalWeight,\n        uint tokenAmountIn,\n        uint swapFee\n    )\n        public pure\n        returns (uint poolAmountOut)\n    {\n        // Charge the trading fee for the proportion of tokenAi\n        // which is implicitly traded to the other pool tokens.\n        // That proportion is (1- weightTokenIn)\n        // tokenAiAfterFee = tAi * (1 - (1-weightTi) * poolFee);\n        uint normalizedWeight = bdiv(tokenWeightIn, totalWeight);\n        uint zaz = bmul(bsub(BONE, normalizedWeight), swapFee);\n        uint tokenAmountInAfterFee = bmul(tokenAmountIn, bsub(BONE, zaz));\n\n        uint newTokenBalanceIn = badd(tokenBalanceIn, tokenAmountInAfterFee);\n        uint tokenInRatio = bdiv(newTokenBalanceIn, tokenBalanceIn);\n\n        // uint newPoolSupply = (ratioTi ^ weightTi) * poolSupply;\n        uint poolRatio = bpow(tokenInRatio, normalizedWeight);\n        uint newPoolSupply = bmul(poolRatio, poolSupply);\n        poolAmountOut = bsub(newPoolSupply, poolSupply);\n        return poolAmountOut;\n    }\n\n    /**********************************************************************************************\n    // calcSingleInGivenPoolOut                                                                  //\n    // tAi = tokenAmountIn              //(pS + pAo)\\     /    1    \\\\                           //\n    // pS = poolSupply                 || ---------  | ^ | --------- || * bI - bI                //\n    // pAo = poolAmountOut              \\\\    pS    /     \\(wI / tW)//                           //\n    // bI = balanceIn          tAi =  --------------------------------------------               //\n    // wI = weightIn                              /      wI  \\                                   //\n    // tW = totalWeight                          |  1 - ----  |  * sF                            //\n    // sF = swapFee                               \\      tW  /                                   //\n    **********************************************************************************************/\n    function calcSingleInGivenPoolOut(\n        uint tokenBalanceIn,\n        uint tokenWeightIn,\n        uint poolSupply,\n        uint totalWeight,\n        uint poolAmountOut,\n        uint swapFee\n    )\n        public pure\n        returns (uint tokenAmountIn)\n    {\n        uint normalizedWeight = bdiv(tokenWeightIn, totalWeight);\n        uint newPoolSupply = badd(poolSupply, poolAmountOut);\n        uint poolRatio = bdiv(newPoolSupply, poolSupply);\n\n        //uint newBalTi = poolRatio^(1/weightTi) * balTi;\n        uint boo = bdiv(BONE, normalizedWeight);\n        uint tokenInRatio = bpow(poolRatio, boo);\n        uint newTokenBalanceIn = bmul(tokenInRatio, tokenBalanceIn);\n        uint tokenAmountInAfterFee = bsub(newTokenBalanceIn, tokenBalanceIn);\n        // Do reverse order of fees charged in joinswap_ExternAmountIn, this way\n        //     ``` pAo == joinswap_ExternAmountIn(Ti, joinswap_PoolAmountOut(pAo, Ti)) ```\n        //uint tAi = tAiAfterFee / (1 - (1-weightTi) * swapFee) ;\n        uint zar = bmul(bsub(BONE, normalizedWeight), swapFee);\n        tokenAmountIn = bdiv(tokenAmountInAfterFee, bsub(BONE, zar));\n        return tokenAmountIn;\n    }\n\n    /**********************************************************************************************\n    // calcSingleOutGivenPoolIn                                                                  //\n    // tAo = tokenAmountOut            /      /                                             \\\\   //\n    // bO = tokenBalanceOut           /      // pS - (pAi * (1 - eF)) \\     /    1    \\      \\\\  //\n    // pAi = poolAmountIn            | bO - || ----------------------- | ^ | --------- | * b0 || //\n    // ps = poolSupply                \\      \\\\          pS           /     \\(wO / tW)/      //  //\n    // wI = tokenWeightIn      tAo =   \\      \\                                             //   //\n    // tW = totalWeight                    /     /      wO \\       \\                             //\n    // sF = swapFee                    *  | 1 - |  1 - ---- | * sF  |                            //\n    // eF = exitFee                        \\     \\      tW /       /                             //\n    **********************************************************************************************/\n    function calcSingleOutGivenPoolIn(\n        uint tokenBalanceOut,\n        uint tokenWeightOut,\n        uint poolSupply,\n        uint totalWeight,\n        uint poolAmountIn,\n        uint swapFee\n    )\n        public pure\n        returns (uint tokenAmountOut)\n    {\n        uint normalizedWeight = bdiv(tokenWeightOut, totalWeight);\n        // charge exit fee on the pool token side\n        // pAiAfterExitFee = pAi*(1-exitFee)\n        uint poolAmountInAfterExitFee = bmul(poolAmountIn, bsub(BONE, EXIT_FEE));\n        uint newPoolSupply = bsub(poolSupply, poolAmountInAfterExitFee);\n        uint poolRatio = bdiv(newPoolSupply, poolSupply);\n\n        // newBalTo = poolRatio^(1/weightTo) * balTo;\n        uint tokenOutRatio = bpow(poolRatio, bdiv(BONE, normalizedWeight));\n        uint newTokenBalanceOut = bmul(tokenOutRatio, tokenBalanceOut);\n\n        uint tokenAmountOutBeforeSwapFee = bsub(tokenBalanceOut, newTokenBalanceOut);\n\n        // charge swap fee on the output token side\n        //uint tAo = tAoBeforeSwapFee * (1 - (1-weightTo) * swapFee)\n        uint zaz = bmul(bsub(BONE, normalizedWeight), swapFee);\n        tokenAmountOut = bmul(tokenAmountOutBeforeSwapFee, bsub(BONE, zaz));\n        return tokenAmountOut;\n    }\n\n    /**********************************************************************************************\n    // calcPoolInGivenSingleOut                                                                  //\n    // pAi = poolAmountIn               // /               tAo             \\\\     / wO \\     \\   //\n    // bO = tokenBalanceOut            // | bO - -------------------------- |\\   | ---- |     \\  //\n    // tAo = tokenAmountOut      pS - ||   \\     1 - ((1 - (tO / tW)) * sF)/  | ^ \\ tW /  * pS | //\n    // ps = poolSupply                 \\\\ -----------------------------------/                /  //\n    // wO = tokenWeightOut  pAi =       \\\\               bO                 /                /   //\n    // tW = totalWeight           -------------------------------------------------------------  //\n    // sF = swapFee                                        ( 1 - eF )                            //\n    // eF = exitFee                                                                              //\n    **********************************************************************************************/\n    function calcPoolInGivenSingleOut(\n        uint tokenBalanceOut,\n        uint tokenWeightOut,\n        uint poolSupply,\n        uint totalWeight,\n        uint tokenAmountOut,\n        uint swapFee\n    )\n        public pure\n        returns (uint poolAmountIn)\n    {\n\n        // charge swap fee on the output token side\n        uint normalizedWeight = bdiv(tokenWeightOut, totalWeight);\n        //uint tAoBeforeSwapFee = tAo / (1 - (1-weightTo) * swapFee) ;\n        uint zoo = bsub(BONE, normalizedWeight);\n        uint zar = bmul(zoo, swapFee);\n        uint tokenAmountOutBeforeSwapFee = bdiv(tokenAmountOut, bsub(BONE, zar));\n\n        uint newTokenBalanceOut = bsub(tokenBalanceOut, tokenAmountOutBeforeSwapFee);\n        uint tokenOutRatio = bdiv(newTokenBalanceOut, tokenBalanceOut);\n\n        //uint newPoolSupply = (ratioTo ^ weightTo) * poolSupply;\n        uint poolRatio = bpow(tokenOutRatio, normalizedWeight);\n        uint newPoolSupply = bmul(poolRatio, poolSupply);\n        uint poolAmountInAfterExitFee = bsub(poolSupply, newPoolSupply);\n\n        // charge exit fee on the pool token side\n        // pAi = pAiAfterExitFee/(1-exitFee)\n        poolAmountIn = bdiv(poolAmountInAfterExitFee, bsub(BONE, EXIT_FEE));\n        return poolAmountIn;\n    }\n\n\n}\n",
  "sourcePath": "/Users/lisandro/Protofire/Swarm/swarm-markets-balancer-core-7/contracts/BMath.sol",
  "compiler": {
    "name": "solc",
    "version": "0.7.4+commit.3f05b770.Emscripten.clang"
  },
  "schemaVersion": "3.3.4",
  "updatedAt": "2021-03-19T20:25:55.986Z",
  "devdoc": {
    "kind": "dev",
    "methods": {},
    "version": 1
  },
  "userdoc": {
    "kind": "user",
    "methods": {},
    "version": 1
  }
}