{
  "contractName": "BPoolExtend",
  "abi": [
    {
      "inputs": [
        {
          "internalType": "address",
          "name": "_poolImpl",
          "type": "address"
        },
        {
          "internalType": "address",
          "name": "_operationsRegistry",
          "type": "address"
        },
        {
          "internalType": "address",
          "name": "_exchProxy",
          "type": "address"
        },
        {
          "internalType": "bytes",
          "name": "_data",
          "type": "bytes"
        }
      ],
      "stateMutability": "nonpayable",
      "type": "constructor"
    },
    {
      "anonymous": false,
      "inputs": [
        {
          "indexed": false,
          "internalType": "bytes4",
          "name": "sig",
          "type": "bytes4"
        }
      ],
      "name": "LOG",
      "type": "event"
    },
    {
      "stateMutability": "payable",
      "type": "fallback"
    },
    {
      "inputs": [],
      "name": "exchangeProxy",
      "outputs": [
        {
          "internalType": "address",
          "name": "",
          "type": "address"
        }
      ],
      "stateMutability": "view",
      "type": "function"
    },
    {
      "inputs": [],
      "name": "implementation",
      "outputs": [
        {
          "internalType": "address",
          "name": "",
          "type": "address"
        }
      ],
      "stateMutability": "view",
      "type": "function"
    },
    {
      "inputs": [],
      "name": "operationsRegistry",
      "outputs": [
        {
          "internalType": "address",
          "name": "",
          "type": "address"
        }
      ],
      "stateMutability": "view",
      "type": "function"
    },
    {
      "stateMutability": "payable",
      "type": "receive"
    }
  ],
  "bytecode": "0x60e060405234801561001057600080fd5b50604051610a2e380380610a2e8339818101604052608081101561003357600080fd5b81516020830151604080850151606086018051925194969395919493918201928464010000000082111561006657600080fd5b90830190602082018581111561007b57600080fd5b825164010000000081118282018810171561009557600080fd5b82525081516020918201929091019080838360005b838110156100c25781810151838201526020016100aa565b50505050905090810190601f1680156100ef5780820380516001836020036101000a031916815260200191505b506040525050506001600160601b0319606085811b821660805283811b821660a05284901b1660c05280511561013557610133848261013e60201b6101301760201c565b505b50505050610318565b606061016383836040518060600160405280602781526020016109e16027913961016a565b9392505050565b60606101758461026e565b6101b05760405162461bcd60e51b8152600401808060200182810382526026815260200180610a086026913960400191505060405180910390fd5b60006060856001600160a01b0316856040518082805190602001908083835b602083106101ee5780518252601f1990920191602091820191016101cf565b6001836020036101000a038019825116818451168082178552505050505050905001915050600060405180830381855af49150503d806000811461024e576040519150601f19603f3d011682016040523d82523d6000602084013e610253565b606091505b509092509050610264828286610274565b9695505050505050565b3b151590565b60608315610283575081610163565b8251156102935782518084602001fd5b8160405162461bcd60e51b81526004018080602001828103825283818151815260200191508051906020019080838360005b838110156102dd5781810151838201526020016102c5565b50505050905090810190601f16801561030a5780820380516001836020036101000a031916815260200191505b509250505060405180910390fd5b60805160601c60a05160601c60c05160601c61068761035a6000398060ea528061047452508061010e52806103a752508060c6528061016e52506106876000f3fe6080604052600436106100385760003560e01c80635c60da1b1461004f5780639c00867314610080578063c7c30be11461009557610047565b36610047576100456100aa565b005b6100456100aa565b34801561005b57600080fd5b506100646100c4565b604080516001600160a01b039092168252519081900360200190f35b34801561008c57600080fd5b506100646100e8565b3480156100a157600080fd5b5061006461010c565b6100b261015c565b6100c26100bd61016c565b610190565b565b7f000000000000000000000000000000000000000000000000000000000000000081565b7f000000000000000000000000000000000000000000000000000000000000000081565b7f000000000000000000000000000000000000000000000000000000000000000081565b60606101558383604051806060016040528060278152602001610605602791396101b4565b9392505050565b6101646102b7565b6100c2610412565b7f000000000000000000000000000000000000000000000000000000000000000090565b3660008037600080366000845af43d6000803e8080156101af573d6000f35b3d6000fd5b60606101bf84610532565b6101fa5760405162461bcd60e51b815260040180806020018281038252602681526020018061062c6026913960400191505060405180910390fd5b60006060856001600160a01b0316856040518082805190602001908083835b602083106102385780518252601f199092019160209182019101610219565b6001836020036101000a038019825116818451168082178552505050505050905001915050600060405180830381855af49150503d8060008114610298576040519150601f19603f3d011682016040523d82523d6000602084013e61029d565b606091505b50915091506102ad828286610538565b9695505050505050565b6000356001600160e01b0319166313da703560e21b14806102ea57506000356001600160e01b03191663b02f0b7360e01b145b8061030757506000356001600160e01b031916638201aa3f60e01b145b8061032457506000356001600160e01b031916631f17a7a960e21b145b8061034157506000356001600160e01b031916635db3427760e01b145b8061035e57506000356001600160e01b03191663036836fd60e51b145b8061037b57506000356001600160e01b0319166346ab38f160e01b145b8061039757506000356001600160e01b03191662592ce960e31b145b156100c257336001600160a01b037f000000000000000000000000000000000000000000000000000000000000000016146100c2576040805162461bcd60e51b81526020600482015260166024820152754552525f4e4f545f45584348414e47455f50524f585960501b604482015290519081900360640190fd5b6000356001600160e01b031916631c9c3ca760e31b14156100c257600061043c36600481846105dc565b606081101561044a57600080fd5b506040805163a4c1cccb60e01b815291356001600160a01b039081166004840181905291519193507f0000000000000000000000000000000000000000000000000000000000000000169163a4c1cccb916024808301926020929190829003018186803b1580156104ba57600080fd5b505afa1580156104ce573d6000803e3d6000fd5b505050506040513d60208110156104e457600080fd5b505161052f576040805162461bcd60e51b815260206004820152601560248201527422a9292fa727aa2fa0a62627aba2a22faa27a5a2a760591b604482015290519081900360640190fd5b50565b3b151590565b60608315610547575081610155565b8251156105575782518084602001fd5b8160405162461bcd60e51b81526004018080602001828103825283818151815260200191508051906020019080838360005b838110156105a1578181015183820152602001610589565b50505050905090810190601f1680156105ce5780820380516001836020036101000a031916815260200191505b509250505060405180910390fd5b600080858511156105eb578182fd5b838611156105f7578182fd5b505082019391909203915056fe416464726573733a206c6f772d6c6576656c2064656c65676174652063616c6c206661696c6564416464726573733a2064656c65676174652063616c6c20746f206e6f6e2d636f6e7472616374a2646970667358221220492db765537cb8fbe5505ff587fd59dc03ae0f17b01224f48a2d55459ee2d83964736f6c63430007040033416464726573733a206c6f772d6c6576656c2064656c65676174652063616c6c206661696c6564416464726573733a2064656c65676174652063616c6c20746f206e6f6e2d636f6e7472616374",
  "immutableReferences": {
    "3650": [
      {
        "length": 32,
        "start": 198
      },
      {
        "length": 32,
        "start": 366
      }
    ],
    "3652": [
      {
        "length": 32,
        "start": 270
      },
      {
        "length": 32,
        "start": 935
      }
    ],
    "3654": [
      {
        "length": 32,
        "start": 234
      },
      {
        "length": 32,
        "start": 1140
      }
    ]
  },
  "source": "// This program is free software: you can redistribute it and/or modify\n// it under the terms of the GNU General Public License as published by\n// the Free Software Foundation, either version 3 of the License, or\n// (at your option) any later version.\n\n// This program is distributed in the hope that it will be useful,\n// but WITHOUT ANY WARRANTY; without even the implied warranty of\n// MERCHANTABILITY or FITNESS FOR A PARTICULAR PURPOSE.  See the\n// GNU General Public License for more details.\n\n// You should have received a copy of the GNU General Public License\n// along with this program.  If not, see <http://www.gnu.org/licenses/>.\n\npragma solidity ^0.7.0;\n\nimport \"@openzeppelin/contracts/proxy/Proxy.sol\";\nimport \"@openzeppelin/contracts/utils/Address.sol\";\n\ninterface IOperationsRegistry {\n    function allowedAssets(address asset) external view returns (bool);\n}\n\ncontract BPoolExtend is Proxy {\n    address public immutable implementation;\n    address public immutable exchangeProxy;\n    address public immutable operationsRegistry;\n\n    bytes4 internal constant JOIN_POOL = 0x4f69c0d4; // joinPool(uint256,uint256[])\n    bytes4 internal constant EXIT_POOL = 0xb02f0b73; //exitPool(uint256,uint256[])\n    bytes4 internal constant SWAP_EXACT_AMOUNT_IN = 0x8201aa3f; //swapExactAmountIn(address,uint256,address,uint256,uint256)\n    bytes4 internal constant SWAP_EXACT_AMOUNT_OUT = 0x7c5e9ea4; //swapExactAmountOut(address,uint256,address,uint256,uint256)\n    bytes4 internal constant JOINSWAP_EXTERN_AMOUNT_IN = 0x5db34277; //joinswapExternAmountIn(address,uint256,uint256)\n    bytes4 internal constant JOINSWAP_POOL_AMOUNT_OUT = 0x6d06dfa0; //joinswapPoolAmountOut(address,uint256,uint256)\n    bytes4 internal constant EXITSWAP_POOL_AMOUNT_IN = 0x46ab38f1; //exitswapPoolAmountIn(address,uint256,uint256)\n    bytes4 internal constant EXITSWAP_EXTERN_AMOUNT_OUT = 0x02c96748; //exitswapExternAmountOut(address,uint256,uint256)\n    bytes4 internal constant BIND = 0xe4e1e538; //bind(address,uint256,uint256)\n\n     event LOG(\n        bytes4 sig\n    );\n\n    constructor(address _poolImpl, address _operationsRegistry, address _exchProxy, bytes memory _data) {\n        implementation = _poolImpl;\n        exchangeProxy = _exchProxy;\n        operationsRegistry = _operationsRegistry;\n\n        if(_data.length > 0) {\n            Address.functionDelegateCall(_poolImpl, _data);\n        }\n    }\n\n    function _implementation() internal view override returns (address) {\n        return implementation;\n    }\n\n    function _beforeFallback() internal view override {\n       _onlyExchangeProxy();\n       _onlyAllowedToken();\n    }\n\n    function _onlyExchangeProxy() internal view {\n        if (\n           msg.sig == JOIN_POOL ||\n           msg.sig == EXIT_POOL ||\n           msg.sig == SWAP_EXACT_AMOUNT_IN ||\n           msg.sig == SWAP_EXACT_AMOUNT_OUT ||\n           msg.sig == JOINSWAP_EXTERN_AMOUNT_IN ||\n           msg.sig == JOINSWAP_POOL_AMOUNT_OUT ||\n           msg.sig == EXITSWAP_POOL_AMOUNT_IN ||\n           msg.sig == EXITSWAP_EXTERN_AMOUNT_OUT\n        ) {\n            require(msg.sender == exchangeProxy, \"ERR_NOT_EXCHANGE_PROXY\");\n       }\n    }\n\n    function _onlyAllowedToken() internal view {\n        if (msg.sig == BIND) {\n            (address token, , ) = abi.decode(msg.data[4:], (address, address, uint256));\n            require(IOperationsRegistry(operationsRegistry).allowedAssets(token), \"ERR_NOT_ALLOWED_TOKEN\");\n        }\n    }\n}\n",
  "sourcePath": "/Users/lisandro/Protofire/Swarm/swarm-markets-balancer-core-7/contracts/BPoolExtend.sol",
  "compiler": {
    "name": "solc",
    "version": "0.7.4+commit.3f05b770.Emscripten.clang"
  },
  "schemaVersion": "3.3.4",
  "updatedAt": "2021-03-17T18:31:27.613Z",
  "devdoc": {
    "kind": "dev",
    "methods": {},
    "version": 1
  },
  "userdoc": {
    "kind": "user",
    "methods": {},
    "version": 1
  }
}