{
  "contractName": "BPool",
  "abi": [
    {
      "anonymous": false,
      "inputs": [
        {
          "indexed": true,
          "internalType": "address",
          "name": "src",
          "type": "address"
        },
        {
          "indexed": true,
          "internalType": "address",
          "name": "dst",
          "type": "address"
        },
        {
          "indexed": false,
          "internalType": "uint256",
          "name": "amt",
          "type": "uint256"
        }
      ],
      "name": "Approval",
      "type": "event"
    },
    {
      "anonymous": true,
      "inputs": [
        {
          "indexed": true,
          "internalType": "bytes4",
          "name": "sig",
          "type": "bytes4"
        },
        {
          "indexed": true,
          "internalType": "address",
          "name": "caller",
          "type": "address"
        },
        {
          "indexed": false,
          "internalType": "bytes",
          "name": "data",
          "type": "bytes"
        }
      ],
      "name": "LOG_CALL",
      "type": "event"
    },
    {
      "anonymous": false,
      "inputs": [
        {
          "indexed": true,
          "internalType": "address",
          "name": "caller",
          "type": "address"
        },
        {
          "indexed": true,
          "internalType": "address",
          "name": "tokenOut",
          "type": "address"
        },
        {
          "indexed": false,
          "internalType": "uint256",
          "name": "tokenAmountOut",
          "type": "uint256"
        }
      ],
      "name": "LOG_EXIT",
      "type": "event"
    },
    {
      "anonymous": false,
      "inputs": [
        {
          "indexed": true,
          "internalType": "address",
          "name": "caller",
          "type": "address"
        },
        {
          "indexed": true,
          "internalType": "address",
          "name": "tokenIn",
          "type": "address"
        },
        {
          "indexed": false,
          "internalType": "uint256",
          "name": "tokenAmountIn",
          "type": "uint256"
        }
      ],
      "name": "LOG_JOIN",
      "type": "event"
    },
    {
      "anonymous": false,
      "inputs": [
        {
          "indexed": true,
          "internalType": "address",
          "name": "caller",
          "type": "address"
        },
        {
          "indexed": true,
          "internalType": "address",
          "name": "tokenIn",
          "type": "address"
        },
        {
          "indexed": true,
          "internalType": "address",
          "name": "tokenOut",
          "type": "address"
        },
        {
          "indexed": false,
          "internalType": "uint256",
          "name": "tokenAmountIn",
          "type": "uint256"
        },
        {
          "indexed": false,
          "internalType": "uint256",
          "name": "tokenAmountOut",
          "type": "uint256"
        }
      ],
      "name": "LOG_SWAP",
      "type": "event"
    },
    {
      "anonymous": false,
      "inputs": [
        {
          "indexed": true,
          "internalType": "address",
          "name": "src",
          "type": "address"
        },
        {
          "indexed": true,
          "internalType": "address",
          "name": "dst",
          "type": "address"
        },
        {
          "indexed": false,
          "internalType": "uint256",
          "name": "amt",
          "type": "uint256"
        }
      ],
      "name": "Transfer",
      "type": "event"
    },
    {
      "inputs": [],
      "name": "BONE",
      "outputs": [
        {
          "internalType": "uint256",
          "name": "",
          "type": "uint256"
        }
      ],
      "stateMutability": "view",
      "type": "function",
      "constant": true
    },
    {
      "inputs": [],
      "name": "BPOW_PRECISION",
      "outputs": [
        {
          "internalType": "uint256",
          "name": "",
          "type": "uint256"
        }
      ],
      "stateMutability": "view",
      "type": "function",
      "constant": true
    },
    {
      "inputs": [],
      "name": "EXIT_FEE",
      "outputs": [
        {
          "internalType": "uint256",
          "name": "",
          "type": "uint256"
        }
      ],
      "stateMutability": "view",
      "type": "function",
      "constant": true
    },
    {
      "inputs": [],
      "name": "INIT_POOL_SUPPLY",
      "outputs": [
        {
          "internalType": "uint256",
          "name": "",
          "type": "uint256"
        }
      ],
      "stateMutability": "view",
      "type": "function",
      "constant": true
    },
    {
      "inputs": [],
      "name": "MAX_BOUND_TOKENS",
      "outputs": [
        {
          "internalType": "uint256",
          "name": "",
          "type": "uint256"
        }
      ],
      "stateMutability": "view",
      "type": "function",
      "constant": true
    },
    {
      "inputs": [],
      "name": "MAX_BPOW_BASE",
      "outputs": [
        {
          "internalType": "uint256",
          "name": "",
          "type": "uint256"
        }
      ],
      "stateMutability": "view",
      "type": "function",
      "constant": true
    },
    {
      "inputs": [],
      "name": "MAX_FEE",
      "outputs": [
        {
          "internalType": "uint256",
          "name": "",
          "type": "uint256"
        }
      ],
      "stateMutability": "view",
      "type": "function",
      "constant": true
    },
    {
      "inputs": [],
      "name": "MAX_IN_RATIO",
      "outputs": [
        {
          "internalType": "uint256",
          "name": "",
          "type": "uint256"
        }
      ],
      "stateMutability": "view",
      "type": "function",
      "constant": true
    },
    {
      "inputs": [],
      "name": "MAX_OUT_RATIO",
      "outputs": [
        {
          "internalType": "uint256",
          "name": "",
          "type": "uint256"
        }
      ],
      "stateMutability": "view",
      "type": "function",
      "constant": true
    },
    {
      "inputs": [],
      "name": "MAX_TOTAL_WEIGHT",
      "outputs": [
        {
          "internalType": "uint256",
          "name": "",
          "type": "uint256"
        }
      ],
      "stateMutability": "view",
      "type": "function",
      "constant": true
    },
    {
      "inputs": [],
      "name": "MAX_WEIGHT",
      "outputs": [
        {
          "internalType": "uint256",
          "name": "",
          "type": "uint256"
        }
      ],
      "stateMutability": "view",
      "type": "function",
      "constant": true
    },
    {
      "inputs": [],
      "name": "MIN_BALANCE",
      "outputs": [
        {
          "internalType": "uint256",
          "name": "",
          "type": "uint256"
        }
      ],
      "stateMutability": "view",
      "type": "function",
      "constant": true
    },
    {
      "inputs": [],
      "name": "MIN_BOUND_TOKENS",
      "outputs": [
        {
          "internalType": "uint256",
          "name": "",
          "type": "uint256"
        }
      ],
      "stateMutability": "view",
      "type": "function",
      "constant": true
    },
    {
      "inputs": [],
      "name": "MIN_BPOW_BASE",
      "outputs": [
        {
          "internalType": "uint256",
          "name": "",
          "type": "uint256"
        }
      ],
      "stateMutability": "view",
      "type": "function",
      "constant": true
    },
    {
      "inputs": [],
      "name": "MIN_FEE",
      "outputs": [
        {
          "internalType": "uint256",
          "name": "",
          "type": "uint256"
        }
      ],
      "stateMutability": "view",
      "type": "function",
      "constant": true
    },
    {
      "inputs": [],
      "name": "MIN_WEIGHT",
      "outputs": [
        {
          "internalType": "uint256",
          "name": "",
          "type": "uint256"
        }
      ],
      "stateMutability": "view",
      "type": "function",
      "constant": true
    },
    {
      "inputs": [
        {
          "internalType": "address",
          "name": "src",
          "type": "address"
        },
        {
          "internalType": "address",
          "name": "dst",
          "type": "address"
        }
      ],
      "name": "allowance",
      "outputs": [
        {
          "internalType": "uint256",
          "name": "",
          "type": "uint256"
        }
      ],
      "stateMutability": "view",
      "type": "function",
      "constant": true
    },
    {
      "inputs": [
        {
          "internalType": "address",
          "name": "dst",
          "type": "address"
        },
        {
          "internalType": "uint256",
          "name": "amt",
          "type": "uint256"
        }
      ],
      "name": "approve",
      "outputs": [
        {
          "internalType": "bool",
          "name": "",
          "type": "bool"
        }
      ],
      "stateMutability": "nonpayable",
      "type": "function"
    },
    {
      "inputs": [
        {
          "internalType": "address",
          "name": "whom",
          "type": "address"
        }
      ],
      "name": "balanceOf",
      "outputs": [
        {
          "internalType": "uint256",
          "name": "",
          "type": "uint256"
        }
      ],
      "stateMutability": "view",
      "type": "function",
      "constant": true
    },
    {
      "inputs": [
        {
          "internalType": "uint256",
          "name": "tokenBalanceIn",
          "type": "uint256"
        },
        {
          "internalType": "uint256",
          "name": "tokenWeightIn",
          "type": "uint256"
        },
        {
          "internalType": "uint256",
          "name": "tokenBalanceOut",
          "type": "uint256"
        },
        {
          "internalType": "uint256",
          "name": "tokenWeightOut",
          "type": "uint256"
        },
        {
          "internalType": "uint256",
          "name": "tokenAmountOut",
          "type": "uint256"
        },
        {
          "internalType": "uint256",
          "name": "swapFee",
          "type": "uint256"
        }
      ],
      "name": "calcInGivenOut",
      "outputs": [
        {
          "internalType": "uint256",
          "name": "tokenAmountIn",
          "type": "uint256"
        }
      ],
      "stateMutability": "pure",
      "type": "function",
      "constant": true
    },
    {
      "inputs": [
        {
          "internalType": "uint256",
          "name": "tokenBalanceIn",
          "type": "uint256"
        },
        {
          "internalType": "uint256",
          "name": "tokenWeightIn",
          "type": "uint256"
        },
        {
          "internalType": "uint256",
          "name": "tokenBalanceOut",
          "type": "uint256"
        },
        {
          "internalType": "uint256",
          "name": "tokenWeightOut",
          "type": "uint256"
        },
        {
          "internalType": "uint256",
          "name": "tokenAmountIn",
          "type": "uint256"
        },
        {
          "internalType": "uint256",
          "name": "swapFee",
          "type": "uint256"
        }
      ],
      "name": "calcOutGivenIn",
      "outputs": [
        {
          "internalType": "uint256",
          "name": "tokenAmountOut",
          "type": "uint256"
        }
      ],
      "stateMutability": "pure",
      "type": "function",
      "constant": true
    },
    {
      "inputs": [
        {
          "internalType": "uint256",
          "name": "tokenBalanceOut",
          "type": "uint256"
        },
        {
          "internalType": "uint256",
          "name": "tokenWeightOut",
          "type": "uint256"
        },
        {
          "internalType": "uint256",
          "name": "poolSupply",
          "type": "uint256"
        },
        {
          "internalType": "uint256",
          "name": "totalWeight",
          "type": "uint256"
        },
        {
          "internalType": "uint256",
          "name": "tokenAmountOut",
          "type": "uint256"
        },
        {
          "internalType": "uint256",
          "name": "swapFee",
          "type": "uint256"
        }
      ],
      "name": "calcPoolInGivenSingleOut",
      "outputs": [
        {
          "internalType": "uint256",
          "name": "poolAmountIn",
          "type": "uint256"
        }
      ],
      "stateMutability": "pure",
      "type": "function",
      "constant": true
    },
    {
      "inputs": [
        {
          "internalType": "uint256",
          "name": "tokenBalanceIn",
          "type": "uint256"
        },
        {
          "internalType": "uint256",
          "name": "tokenWeightIn",
          "type": "uint256"
        },
        {
          "internalType": "uint256",
          "name": "poolSupply",
          "type": "uint256"
        },
        {
          "internalType": "uint256",
          "name": "totalWeight",
          "type": "uint256"
        },
        {
          "internalType": "uint256",
          "name": "tokenAmountIn",
          "type": "uint256"
        },
        {
          "internalType": "uint256",
          "name": "swapFee",
          "type": "uint256"
        }
      ],
      "name": "calcPoolOutGivenSingleIn",
      "outputs": [
        {
          "internalType": "uint256",
          "name": "poolAmountOut",
          "type": "uint256"
        }
      ],
      "stateMutability": "pure",
      "type": "function",
      "constant": true
    },
    {
      "inputs": [
        {
          "internalType": "uint256",
          "name": "tokenBalanceIn",
          "type": "uint256"
        },
        {
          "internalType": "uint256",
          "name": "tokenWeightIn",
          "type": "uint256"
        },
        {
          "internalType": "uint256",
          "name": "poolSupply",
          "type": "uint256"
        },
        {
          "internalType": "uint256",
          "name": "totalWeight",
          "type": "uint256"
        },
        {
          "internalType": "uint256",
          "name": "poolAmountOut",
          "type": "uint256"
        },
        {
          "internalType": "uint256",
          "name": "swapFee",
          "type": "uint256"
        }
      ],
      "name": "calcSingleInGivenPoolOut",
      "outputs": [
        {
          "internalType": "uint256",
          "name": "tokenAmountIn",
          "type": "uint256"
        }
      ],
      "stateMutability": "pure",
      "type": "function",
      "constant": true
    },
    {
      "inputs": [
        {
          "internalType": "uint256",
          "name": "tokenBalanceOut",
          "type": "uint256"
        },
        {
          "internalType": "uint256",
          "name": "tokenWeightOut",
          "type": "uint256"
        },
        {
          "internalType": "uint256",
          "name": "poolSupply",
          "type": "uint256"
        },
        {
          "internalType": "uint256",
          "name": "totalWeight",
          "type": "uint256"
        },
        {
          "internalType": "uint256",
          "name": "poolAmountIn",
          "type": "uint256"
        },
        {
          "internalType": "uint256",
          "name": "swapFee",
          "type": "uint256"
        }
      ],
      "name": "calcSingleOutGivenPoolIn",
      "outputs": [
        {
          "internalType": "uint256",
          "name": "tokenAmountOut",
          "type": "uint256"
        }
      ],
      "stateMutability": "pure",
      "type": "function",
      "constant": true
    },
    {
      "inputs": [
        {
          "internalType": "uint256",
          "name": "tokenBalanceIn",
          "type": "uint256"
        },
        {
          "internalType": "uint256",
          "name": "tokenWeightIn",
          "type": "uint256"
        },
        {
          "internalType": "uint256",
          "name": "tokenBalanceOut",
          "type": "uint256"
        },
        {
          "internalType": "uint256",
          "name": "tokenWeightOut",
          "type": "uint256"
        },
        {
          "internalType": "uint256",
          "name": "swapFee",
          "type": "uint256"
        }
      ],
      "name": "calcSpotPrice",
      "outputs": [
        {
          "internalType": "uint256",
          "name": "spotPrice",
          "type": "uint256"
        }
      ],
      "stateMutability": "pure",
      "type": "function",
      "constant": true
    },
    {
      "inputs": [],
      "name": "decimals",
      "outputs": [
        {
          "internalType": "uint8",
          "name": "",
          "type": "uint8"
        }
      ],
      "stateMutability": "view",
      "type": "function",
      "constant": true
    },
    {
      "inputs": [
        {
          "internalType": "address",
          "name": "dst",
          "type": "address"
        },
        {
          "internalType": "uint256",
          "name": "amt",
          "type": "uint256"
        }
      ],
      "name": "decreaseApproval",
      "outputs": [
        {
          "internalType": "bool",
          "name": "",
          "type": "bool"
        }
      ],
      "stateMutability": "nonpayable",
      "type": "function"
    },
    {
      "inputs": [],
      "name": "getColor",
      "outputs": [
        {
          "internalType": "bytes32",
          "name": "",
          "type": "bytes32"
        }
      ],
      "stateMutability": "view",
      "type": "function",
      "constant": true
    },
    {
      "inputs": [
        {
          "internalType": "address",
          "name": "dst",
          "type": "address"
        },
        {
          "internalType": "uint256",
          "name": "amt",
          "type": "uint256"
        }
      ],
      "name": "increaseApproval",
      "outputs": [
        {
          "internalType": "bool",
          "name": "",
          "type": "bool"
        }
      ],
      "stateMutability": "nonpayable",
      "type": "function"
    },
    {
      "inputs": [],
      "name": "name",
      "outputs": [
        {
          "internalType": "string",
          "name": "",
          "type": "string"
        }
      ],
      "stateMutability": "view",
      "type": "function",
      "constant": true
    },
    {
      "inputs": [],
      "name": "symbol",
      "outputs": [
        {
          "internalType": "string",
          "name": "",
          "type": "string"
        }
      ],
      "stateMutability": "view",
      "type": "function",
      "constant": true
    },
    {
      "inputs": [],
      "name": "totalSupply",
      "outputs": [
        {
          "internalType": "uint256",
          "name": "",
          "type": "uint256"
        }
      ],
      "stateMutability": "view",
      "type": "function",
      "constant": true
    },
    {
      "inputs": [
        {
          "internalType": "address",
          "name": "dst",
          "type": "address"
        },
        {
          "internalType": "uint256",
          "name": "amt",
          "type": "uint256"
        }
      ],
      "name": "transfer",
      "outputs": [
        {
          "internalType": "bool",
          "name": "",
          "type": "bool"
        }
      ],
      "stateMutability": "nonpayable",
      "type": "function"
    },
    {
      "inputs": [
        {
          "internalType": "address",
          "name": "src",
          "type": "address"
        },
        {
          "internalType": "address",
          "name": "dst",
          "type": "address"
        },
        {
          "internalType": "uint256",
          "name": "amt",
          "type": "uint256"
        }
      ],
      "name": "transferFrom",
      "outputs": [
        {
          "internalType": "bool",
          "name": "",
          "type": "bool"
        }
      ],
      "stateMutability": "nonpayable",
      "type": "function"
    },
    {
      "inputs": [],
      "name": "initialize",
      "outputs": [],
      "stateMutability": "nonpayable",
      "type": "function"
    },
    {
      "inputs": [],
      "name": "isPublicSwap",
      "outputs": [
        {
          "internalType": "bool",
          "name": "",
          "type": "bool"
        }
      ],
      "stateMutability": "view",
      "type": "function",
      "constant": true
    },
    {
      "inputs": [],
      "name": "isFinalized",
      "outputs": [
        {
          "internalType": "bool",
          "name": "",
          "type": "bool"
        }
      ],
      "stateMutability": "view",
      "type": "function",
      "constant": true
    },
    {
      "inputs": [
        {
          "internalType": "address",
          "name": "t",
          "type": "address"
        }
      ],
      "name": "isBound",
      "outputs": [
        {
          "internalType": "bool",
          "name": "",
          "type": "bool"
        }
      ],
      "stateMutability": "view",
      "type": "function",
      "constant": true
    },
    {
      "inputs": [],
      "name": "getNumTokens",
      "outputs": [
        {
          "internalType": "uint256",
          "name": "",
          "type": "uint256"
        }
      ],
      "stateMutability": "view",
      "type": "function",
      "constant": true
    },
    {
      "inputs": [],
      "name": "getCurrentTokens",
      "outputs": [
        {
          "internalType": "address[]",
          "name": "tokens",
          "type": "address[]"
        }
      ],
      "stateMutability": "view",
      "type": "function",
      "constant": true
    },
    {
      "inputs": [],
      "name": "getFinalTokens",
      "outputs": [
        {
          "internalType": "address[]",
          "name": "tokens",
          "type": "address[]"
        }
      ],
      "stateMutability": "view",
      "type": "function",
      "constant": true
    },
    {
      "inputs": [
        {
          "internalType": "address",
          "name": "token",
          "type": "address"
        }
      ],
      "name": "getDenormalizedWeight",
      "outputs": [
        {
          "internalType": "uint256",
          "name": "",
          "type": "uint256"
        }
      ],
      "stateMutability": "view",
      "type": "function",
      "constant": true
    },
    {
      "inputs": [],
      "name": "getTotalDenormalizedWeight",
      "outputs": [
        {
          "internalType": "uint256",
          "name": "",
          "type": "uint256"
        }
      ],
      "stateMutability": "view",
      "type": "function",
      "constant": true
    },
    {
      "inputs": [
        {
          "internalType": "address",
          "name": "token",
          "type": "address"
        }
      ],
      "name": "getNormalizedWeight",
      "outputs": [
        {
          "internalType": "uint256",
          "name": "",
          "type": "uint256"
        }
      ],
      "stateMutability": "view",
      "type": "function",
      "constant": true
    },
    {
      "inputs": [
        {
          "internalType": "address",
          "name": "token",
          "type": "address"
        }
      ],
      "name": "getBalance",
      "outputs": [
        {
          "internalType": "uint256",
          "name": "",
          "type": "uint256"
        }
      ],
      "stateMutability": "view",
      "type": "function",
      "constant": true
    },
    {
      "inputs": [],
      "name": "getSwapFee",
      "outputs": [
        {
          "internalType": "uint256",
          "name": "",
          "type": "uint256"
        }
      ],
      "stateMutability": "view",
      "type": "function",
      "constant": true
    },
    {
      "inputs": [],
      "name": "getController",
      "outputs": [
        {
          "internalType": "address",
          "name": "",
          "type": "address"
        }
      ],
      "stateMutability": "view",
      "type": "function",
      "constant": true
    },
    {
      "inputs": [
        {
          "internalType": "uint256",
          "name": "swapFee",
          "type": "uint256"
        }
      ],
      "name": "setSwapFee",
      "outputs": [],
      "stateMutability": "nonpayable",
      "type": "function"
    },
    {
      "inputs": [
        {
          "internalType": "address",
          "name": "manager",
          "type": "address"
        }
      ],
      "name": "setController",
      "outputs": [],
      "stateMutability": "nonpayable",
      "type": "function"
    },
    {
      "inputs": [
        {
          "internalType": "bool",
          "name": "public_",
          "type": "bool"
        }
      ],
      "name": "setPublicSwap",
      "outputs": [],
      "stateMutability": "nonpayable",
      "type": "function"
    },
    {
      "inputs": [],
      "name": "finalize",
      "outputs": [],
      "stateMutability": "nonpayable",
      "type": "function"
    },
    {
      "inputs": [
        {
          "internalType": "address",
          "name": "token",
          "type": "address"
        },
        {
          "internalType": "uint256",
          "name": "balance",
          "type": "uint256"
        },
        {
          "internalType": "uint256",
          "name": "denorm",
          "type": "uint256"
        }
      ],
      "name": "bind",
      "outputs": [],
      "stateMutability": "nonpayable",
      "type": "function"
    },
    {
      "inputs": [
        {
          "internalType": "address",
          "name": "token",
          "type": "address"
        },
        {
          "internalType": "uint256",
          "name": "balance",
          "type": "uint256"
        },
        {
          "internalType": "uint256",
          "name": "denorm",
          "type": "uint256"
        }
      ],
      "name": "rebind",
      "outputs": [],
      "stateMutability": "nonpayable",
      "type": "function"
    },
    {
      "inputs": [
        {
          "internalType": "address",
          "name": "token",
          "type": "address"
        }
      ],
      "name": "unbind",
      "outputs": [],
      "stateMutability": "nonpayable",
      "type": "function"
    },
    {
      "inputs": [
        {
          "internalType": "address",
          "name": "token",
          "type": "address"
        }
      ],
      "name": "gulp",
      "outputs": [],
      "stateMutability": "nonpayable",
      "type": "function"
    },
    {
      "inputs": [
        {
          "internalType": "address",
          "name": "tokenIn",
          "type": "address"
        },
        {
          "internalType": "address",
          "name": "tokenOut",
          "type": "address"
        }
      ],
      "name": "getSpotPrice",
      "outputs": [
        {
          "internalType": "uint256",
          "name": "spotPrice",
          "type": "uint256"
        }
      ],
      "stateMutability": "view",
      "type": "function",
      "constant": true
    },
    {
      "inputs": [
        {
          "internalType": "address",
          "name": "tokenIn",
          "type": "address"
        },
        {
          "internalType": "address",
          "name": "tokenOut",
          "type": "address"
        }
      ],
      "name": "getSpotPriceSansFee",
      "outputs": [
        {
          "internalType": "uint256",
          "name": "spotPrice",
          "type": "uint256"
        }
      ],
      "stateMutability": "view",
      "type": "function",
      "constant": true
    },
    {
      "inputs": [
        {
          "internalType": "uint256",
          "name": "poolAmountOut",
          "type": "uint256"
        },
        {
          "internalType": "uint256[]",
          "name": "maxAmountsIn",
          "type": "uint256[]"
        }
      ],
      "name": "joinPool",
      "outputs": [],
      "stateMutability": "nonpayable",
      "type": "function"
    },
    {
      "inputs": [
        {
          "internalType": "uint256",
          "name": "poolAmountIn",
          "type": "uint256"
        },
        {
          "internalType": "uint256[]",
          "name": "minAmountsOut",
          "type": "uint256[]"
        }
      ],
      "name": "exitPool",
      "outputs": [],
      "stateMutability": "nonpayable",
      "type": "function"
    },
    {
      "inputs": [
        {
          "internalType": "address",
          "name": "tokenIn",
          "type": "address"
        },
        {
          "internalType": "uint256",
          "name": "tokenAmountIn",
          "type": "uint256"
        },
        {
          "internalType": "address",
          "name": "tokenOut",
          "type": "address"
        },
        {
          "internalType": "uint256",
          "name": "minAmountOut",
          "type": "uint256"
        },
        {
          "internalType": "uint256",
          "name": "maxPrice",
          "type": "uint256"
        }
      ],
      "name": "swapExactAmountIn",
      "outputs": [
        {
          "internalType": "uint256",
          "name": "tokenAmountOut",
          "type": "uint256"
        },
        {
          "internalType": "uint256",
          "name": "spotPriceAfter",
          "type": "uint256"
        }
      ],
      "stateMutability": "nonpayable",
      "type": "function"
    },
    {
      "inputs": [
        {
          "internalType": "address",
          "name": "tokenIn",
          "type": "address"
        },
        {
          "internalType": "uint256",
          "name": "maxAmountIn",
          "type": "uint256"
        },
        {
          "internalType": "address",
          "name": "tokenOut",
          "type": "address"
        },
        {
          "internalType": "uint256",
          "name": "tokenAmountOut",
          "type": "uint256"
        },
        {
          "internalType": "uint256",
          "name": "maxPrice",
          "type": "uint256"
        }
      ],
      "name": "swapExactAmountOut",
      "outputs": [
        {
          "internalType": "uint256",
          "name": "tokenAmountIn",
          "type": "uint256"
        },
        {
          "internalType": "uint256",
          "name": "spotPriceAfter",
          "type": "uint256"
        }
      ],
      "stateMutability": "nonpayable",
      "type": "function"
    },
    {
      "inputs": [
        {
          "internalType": "address",
          "name": "tokenIn",
          "type": "address"
        },
        {
          "internalType": "uint256",
          "name": "tokenAmountIn",
          "type": "uint256"
        },
        {
          "internalType": "uint256",
          "name": "minPoolAmountOut",
          "type": "uint256"
        }
      ],
      "name": "joinswapExternAmountIn",
      "outputs": [
        {
          "internalType": "uint256",
          "name": "poolAmountOut",
          "type": "uint256"
        }
      ],
      "stateMutability": "nonpayable",
      "type": "function"
    },
    {
      "inputs": [
        {
          "internalType": "address",
          "name": "tokenIn",
          "type": "address"
        },
        {
          "internalType": "uint256",
          "name": "poolAmountOut",
          "type": "uint256"
        },
        {
          "internalType": "uint256",
          "name": "maxAmountIn",
          "type": "uint256"
        }
      ],
      "name": "joinswapPoolAmountOut",
      "outputs": [
        {
          "internalType": "uint256",
          "name": "tokenAmountIn",
          "type": "uint256"
        }
      ],
      "stateMutability": "nonpayable",
      "type": "function"
    },
    {
      "inputs": [
        {
          "internalType": "address",
          "name": "tokenOut",
          "type": "address"
        },
        {
          "internalType": "uint256",
          "name": "poolAmountIn",
          "type": "uint256"
        },
        {
          "internalType": "uint256",
          "name": "minAmountOut",
          "type": "uint256"
        }
      ],
      "name": "exitswapPoolAmountIn",
      "outputs": [
        {
          "internalType": "uint256",
          "name": "tokenAmountOut",
          "type": "uint256"
        }
      ],
      "stateMutability": "nonpayable",
      "type": "function"
    },
    {
      "inputs": [
        {
          "internalType": "address",
          "name": "tokenOut",
          "type": "address"
        },
        {
          "internalType": "uint256",
          "name": "tokenAmountOut",
          "type": "uint256"
        },
        {
          "internalType": "uint256",
          "name": "maxPoolAmountIn",
          "type": "uint256"
        }
      ],
      "name": "exitswapExternAmountOut",
      "outputs": [
        {
          "internalType": "uint256",
          "name": "poolAmountIn",
          "type": "uint256"
        }
      ],
      "stateMutability": "nonpayable",
      "type": "function"
    }
  ],
  "bytecode": "0x608060405234801561001057600080fd5b506157a980620000216000396000f3fe608060405234801561001057600080fd5b50600436106103665760003560e01c80638d4e4083116101ca578063bc694ea211610105578063d73dd623116100a8578063d73dd62314610b71578063dd62ed3e14610b9d578063e4a28a521461046c578063e4e1e53814610bcb578063ec09302114610bfd578063f1b8a9b714610c05578063f8b2cb4f14610c2b578063f8d6aed414610c51578063fde924f714610c8c57610366565b8063bc694ea214610acb578063be3bbd2e14610ad3578063c36596a6146104e0578063c6580d1214610b2b578063cc77828d14610b33578063cd2ed8fb14610b3b578063cf5e7bd314610b43578063d4cadf6814610b6957610366565b8063a221ee491161016d578063a221ee491461099a578063a9059cbb146109cf578063b02f0b73146109fb578063b0e0d13614610a70578063b7b800a414610a78578063ba019dab14610a80578063ba9530a614610a88578063bc063e1a14610ac357610366565b80638d4e40831461091e57806392eefe9b14610926578063936c34771461094c5780639381cd2b14610954578063948d8ce61461095c57806395d89b4114610982578063992e2a921461098a5780639a86139b1461099257610366565b806349b59552116102a557806376c7a3c71161024857806376c7a3c7146107965780637c5e9ea41461079e5780638129fc1c146107f75780638201aa3f146107ff57806382f652ad1461083f5780638656b6531461087a578063867378c5146108b557806389298012146108bd5780638c28cbe8146108f857610366565b806349b59552146106095780634bb278f3146106285780634f69c0d4146106305780635c1bbaf7146106a55780635db34277146106e057806366188463146107125780636d06dfa01461073e57806370a082311461077057610366565b8063218b53821161030d578063218b5382146104e057806323b872dd146104e85780632f37b6241461051e5780633018205f14610544578063313ce5671461056857806334e19907146105865780633fdddaa2146105a557806346ab38f1146105d757610366565b806302c967481461036b57806306fdde03146103af578063095ea7b31461042c57806309a3bbe41461046c5780631446a7ff1461047457806315e84af9146104a257806318160ddd146104d0578063189d00ca146104d8575b600080fd5b61039d6004803603606081101561038157600080fd5b506001600160a01b038135169060208101359060400135610c94565b60408051918252519081900360200190f35b6103b7610fe1565b6040805160208082528351818301528351919283929083019185019080838360005b838110156103f15781810151838201526020016103d9565b50505050905090810190601f16801561041e5780820380516001836020036101000a031916815260200191505b509250505060405180910390f35b6104586004803603604081101561044257600080fd5b506001600160a01b038135169060200135611077565b604080519115158252519081900360200190f35b61039d6110cc565b61039d6004803603604081101561048a57600080fd5b506001600160a01b03813581169160200135166110d9565b61039d600480360360408110156104b857600080fd5b506001600160a01b038135811691602001351661122e565b61039d61137a565b61039d611380565b61039d611394565b610458600480360360608110156104fe57600080fd5b506001600160a01b038135811691602081013590911690604001356113a0565b6104586004803603602081101561053457600080fd5b50356001600160a01b03166114fa565b61054c611518565b604080516001600160a01b039092168252519081900360200190f35b610570611576565b6040805160ff9092168252519081900360200190f35b6105a36004803603602081101561059c57600080fd5b503561157f565b005b6105a3600480360360608110156105bb57600080fd5b506001600160a01b03813516906020810135906040013561177c565b61039d600480360360608110156105ed57600080fd5b506001600160a01b038135169060208101359060400135611b89565b6105a36004803603602081101561061f57600080fd5b50351515611e75565b6105a3611ff8565b6105a36004803603604081101561064657600080fd5b81359190810190604081016020820135600160201b81111561066757600080fd5b82018360208201111561067957600080fd5b803590602001918460208302840111600160201b8311171561069a57600080fd5b5090925090506121ef565b61039d600480360360c08110156106bb57600080fd5b5080359060208101359060408101359060608101359060808101359060a001356124d6565b61039d600480360360608110156106f657600080fd5b506001600160a01b03813516906020810135906040013561258e565b6104586004803603604081101561072857600080fd5b506001600160a01b03813516906020013561285e565b61039d6004803603606081101561075457600080fd5b506001600160a01b038135169060208101359060400135612936565b61039d6004803603602081101561078657600080fd5b50356001600160a01b0316612c34565b61039d612c4f565b6107de600480360360a08110156107b457600080fd5b506001600160a01b0381358116916020810135916040820135169060608101359060800135612c61565b6040805192835260208301919091528051918290030190f35b6105a3613124565b6107de600480360360a081101561081557600080fd5b506001600160a01b0381358116916020810135916040820135169060608101359060800135613219565b61039d600480360360c081101561085557600080fd5b5080359060208101359060408101359060608101359060808101359060a001356136c3565b61039d600480360360c081101561089057600080fd5b5080359060208101359060408101359060608101359060808101359060a00135613782565b61039d613823565b61039d600480360360c08110156108d357600080fd5b5080359060208101359060408101359060608101359060808101359060a00135613837565b6105a36004803603602081101561090e57600080fd5b50356001600160a01b03166138e7565b610458613a9b565b6105a36004803603602081101561093c57600080fd5b50356001600160a01b0316613aa4565b61039d613be2565b61039d613c37565b61039d6004803603602081101561097257600080fd5b50356001600160a01b0316613c44565b6103b7613d0e565b61039d613d6f565b61039d613d7b565b61039d600480360360a08110156109b057600080fd5b5080359060208101359060408101359060608101359060800135613d88565b610458600480360360408110156109e557600080fd5b506001600160a01b038135169060200135613ded565b6105a360048036036040811015610a1157600080fd5b81359190810190604081016020820135600160201b811115610a3257600080fd5b820183602082011115610a4457600080fd5b803590602001918460208302840111600160201b83111715610a6557600080fd5b509092509050613e03565b61039d614138565b61039d61413d565b61039d614142565b61039d600480360360c0811015610a9e57600080fd5b5080359060208101359060408101359060608101359060808101359060a00135614147565b61039d6141c8565b61039d6141d8565b610adb6141e4565b60408051602080825283518183015283519192839290830191858101910280838360005b83811015610b17578181015183820152602001610aff565b505050509050019250505060405180910390f35b61039d6142dc565b610adb6142e1565b61039d61432f565b6105a360048036036020811015610b5957600080fd5b50356001600160a01b0316614335565b61039d6146b7565b61045860048036036040811015610b8757600080fd5b506001600160a01b03813516906020013561470c565b61039d60048036036040811015610bb357600080fd5b506001600160a01b038135811691602001351661478d565b6105a360048036036060811015610be157600080fd5b506001600160a01b0381351690602081013590604001356147b8565b61039d614a0f565b61039d60048036036020811015610c1b57600080fd5b50356001600160a01b0316614a1f565b61039d60048036036020811015610c4157600080fd5b50356001600160a01b0316614afb565b61039d600480360360c0811015610c6757600080fd5b5080359060208101359060408101359060608101359060808101359060a00135614bc5565b610458614c48565b6000336001600160a01b03166000356001600160e01b0319166001600160e01b03191660003660405180806020018281038252848482818152602001925080828437600083820152604051601f909101601f19169092018290039550909350505050a2600654610100900460ff1615610d42576040805162461bcd60e51b815260206004820152600b60248201526a4552525f5245454e54525960a81b604482015290519081900360640190fd5b6006805461ff00191661010017905560095460ff16610d9c576040805162461bcd60e51b815260206004820152601160248201527011549497d393d517d19253905312569151607a1b604482015290519081900360640190fd5b6001600160a01b0384166000908152600b602052604090205460ff16610df9576040805162461bcd60e51b815260206004820152600d60248201526c11549497d393d517d093d55391609a1b604482015290519081900360640190fd5b6001600160a01b0384166000908152600b60205260409020600390810154610e2e91670de0b6b3a76400005b04600101614c58565b831115610e76576040805162461bcd60e51b81526020600482015260116024820152704552525f4d41585f4f55545f524154494f60781b604482015290519081900360640190fd5b6001600160a01b0384166000908152600b6020526040902060038082015460028301549154600c54600854610eaf9492919089906136c3565b915081610ef5576040805162461bcd60e51b815260206004820152600f60248201526e08aa4a4be9a82a890be82a0a0a49eb608b1b604482015290519081900360640190fd5b82821115610f39576040805162461bcd60e51b815260206004820152600c60248201526b22a9292fa624a6a4aa2fa4a760a11b604482015290519081900360640190fd5b610f47816003015485614d21565b60038201556000610f588382614c58565b6040805187815290519192506001600160a01b038816913391600080516020615734833981519152919081900360200190a3610f943384614d83565b610fa6610fa18483614d21565b614d91565b600654610fc2906201000090046001600160a01b031682614d9a565b610fcd863387614da4565b50506006805461ff00191690559392505050565b60048054604080516020601f600260001961010060018816150201909516949094049384018190048102820181019092528281526060939092909183018282801561106d5780601f106110425761010080835404028352916020019161106d565b820191906000526020600020905b81548152906001019060200180831161105057829003601f168201915b5050505050905090565b3360008181526002602090815260408083206001600160a01b03871680855290835281842086905581518681529151939490939092600080516020615754833981519152928290030190a35060015b92915050565b6802b5e3af16b188000081565b600654600090610100900460ff1615611127576040805162461bcd60e51b815260206004820152600b60248201526a4552525f5245454e54525960a81b604482015290519081900360640190fd5b6001600160a01b0383166000908152600b602052604090205460ff16611184576040805162461bcd60e51b815260206004820152600d60248201526c11549497d393d517d093d55391609a1b604482015290519081900360640190fd5b6001600160a01b0382166000908152600b602052604090205460ff166111e1576040805162461bcd60e51b815260206004820152600d60248201526c11549497d393d517d093d55391609a1b604482015290519081900360640190fd5b6001600160a01b038084166000908152600b602052604080822092851682528120600380840154600280860154928401549084015493946112259492939290613d88565b95945050505050565b600654600090610100900460ff161561127c576040805162461bcd60e51b815260206004820152600b60248201526a4552525f5245454e54525960a81b604482015290519081900360640190fd5b6001600160a01b0383166000908152600b602052604090205460ff166112d9576040805162461bcd60e51b815260206004820152600d60248201526c11549497d393d517d093d55391609a1b604482015290519081900360640190fd5b6001600160a01b0382166000908152600b602052604090205460ff16611336576040805162461bcd60e51b815260206004820152600d60248201526c11549497d393d517d093d55391609a1b604482015290519081900360640190fd5b6001600160a01b038084166000908152600b602052604080822092851682529020600380830154600280850154928401549084015460085461122594929190613d88565b60035490565b6402540be400670de0b6b3a76400005b0481565b670de0b6b3a764000081565b6000336001600160a01b03851614806113dc57506001600160a01b03841660009081526002602090815260408083203384529091529020548211155b611425576040805162461bcd60e51b815260206004820152601560248201527422a9292fa12a27a5a2a72fa120a22fa1a0a62622a960591b604482015290519081900360640190fd5b611430848484614e75565b336001600160a01b0385161480159061146e57506001600160a01b038416600090815260026020908152604080832033845290915290205460001914155b156114f0576001600160a01b03841660009081526002602090815260408083203384529091529020546114a19083614d21565b6001600160a01b03858116600090815260026020908152604080832033808552908352928190208590558051948552519287169391926000805160206157548339815191529281900390910190a35b5060019392505050565b6001600160a01b03166000908152600b602052604090205460ff1690565b600654600090610100900460ff1615611566576040805162461bcd60e51b815260206004820152600b60248201526a4552525f5245454e54525960a81b604482015290519081900360640190fd5b506007546001600160a01b031690565b60065460ff1690565b336001600160a01b03166000356001600160e01b0319166001600160e01b03191660003660405180806020018281038252848482818152602001925080828437600083820152604051601f909101601f19169092018290039550909350505050a2600654610100900460ff161561162b576040805162461bcd60e51b815260206004820152600b60248201526a4552525f5245454e54525960a81b604482015290519081900360640190fd5b6006805461ff00191661010017905560095460ff1615611685576040805162461bcd60e51b815260206004820152601060248201526f11549497d254d7d1925390531256915160821b604482015290519081900360640190fd5b6007546001600160a01b031633146116d9576040805162461bcd60e51b815260206004820152601260248201527122a9292fa727aa2fa1a7a72a2927a62622a960711b604482015290519081900360640190fd5b64e8d4a51000811015611721576040805162461bcd60e51b815260206004820152600b60248201526a4552525f4d494e5f46454560a81b604482015290519081900360640190fd5b67016345785d8a000081111561176c576040805162461bcd60e51b815260206004820152600b60248201526a4552525f4d41585f46454560a81b604482015290519081900360640190fd5b6008556006805461ff0019169055565b336001600160a01b03166000356001600160e01b0319166001600160e01b03191660003660405180806020018281038252848482818152602001925080828437600083820152604051601f909101601f19169092018290039550909350505050a2600654610100900460ff1615611828576040805162461bcd60e51b815260206004820152600b60248201526a4552525f5245454e54525960a81b604482015290519081900360640190fd5b6006805461ff001916610100179055600754336001600160a01b039091161461188d576040805162461bcd60e51b815260206004820152601260248201527122a9292fa727aa2fa1a7a72a2927a62622a960711b604482015290519081900360640190fd5b6001600160a01b0383166000908152600b602052604090205460ff166118ea576040805162461bcd60e51b815260206004820152600d60248201526c11549497d393d517d093d55391609a1b604482015290519081900360640190fd5b60095460ff1615611935576040805162461bcd60e51b815260206004820152601060248201526f11549497d254d7d1925390531256915160821b604482015290519081900360640190fd5b670de0b6b3a7640000811015611983576040805162461bcd60e51b815260206004820152600e60248201526d11549497d3525397d5d15251d21560921b604482015290519081900360640190fd5b6802b5e3af16b18800008111156119d2576040805162461bcd60e51b815260206004820152600e60248201526d11549497d3505617d5d15251d21560921b604482015290519081900360640190fd5b620f4240821015611a1c576040805162461bcd60e51b815260206004820152600f60248201526e4552525f4d494e5f42414c414e434560881b604482015290519081900360640190fd5b6001600160a01b0383166000908152600b602052604090206002015480821115611ab357611a55600c54611a508484614d21565b614f75565b600c8190556802b5e3af16b18800001015611aae576040805162461bcd60e51b815260206004820152601460248201527311549497d3505617d513d5105317d5d15251d21560621b604482015290519081900360640190fd5b611ad4565b80821015611ad457611ad0600c54611acb8385614d21565b614d21565b600c555b6001600160a01b0384166000908152600b602052604090206002810183905560030180549084905580841115611b1d57611b188533611b138785614d21565b614fc2565b611b77565b80841015611b77576000611b318286614d21565b90506000611b40826000614c58565b9050611b568733611b518585614d21565b614da4565b600654611b749088906201000090046001600160a01b031683614da4565b50505b50506006805461ff0019169055505050565b6000336001600160a01b03166000356001600160e01b0319166001600160e01b03191660003660405180806020018281038252848482818152602001925080828437600083820152604051601f909101601f19169092018290039550909350505050a2600654610100900460ff1615611c37576040805162461bcd60e51b815260206004820152600b60248201526a4552525f5245454e54525960a81b604482015290519081900360640190fd5b6006805461ff00191661010017905560095460ff16611c91576040805162461bcd60e51b815260206004820152601160248201527011549497d393d517d19253905312569151607a1b604482015290519081900360640190fd5b6001600160a01b0384166000908152600b602052604090205460ff16611cee576040805162461bcd60e51b815260206004820152600d60248201526c11549497d393d517d093d55391609a1b604482015290519081900360640190fd5b6001600160a01b0384166000908152600b6020526040902060038082015460028301549154600c54600854611d27949291908990613837565b915082821015611d6e576040805162461bcd60e51b815260206004820152600d60248201526c11549497d31253525517d3d555609a1b604482015290519081900360640190fd5b6001600160a01b0385166000908152600b60205260409020600390810154611d9e91670de0b6b3a7640000610e25565b821115611de6576040805162461bcd60e51b81526020600482015260116024820152704552525f4d41585f4f55545f524154494f60781b604482015290519081900360640190fd5b611df4816003015483614d21565b60038201556000611e058582614c58565b6040805185815290519192506001600160a01b038816913391600080516020615734833981519152919081900360200190a3611e413386614d83565b611e4e610fa18683614d21565b600654611e6a906201000090046001600160a01b031682614d9a565b610fcd863385614da4565b336001600160a01b03166000356001600160e01b0319166001600160e01b03191660003660405180806020018281038252848482818152602001925080828437600083820152604051601f909101601f19169092018290039550909350505050a2600654610100900460ff1615611f21576040805162461bcd60e51b815260206004820152600b60248201526a4552525f5245454e54525960a81b604482015290519081900360640190fd5b6006805461ff00191661010017905560095460ff1615611f7b576040805162461bcd60e51b815260206004820152601060248201526f11549497d254d7d1925390531256915160821b604482015290519081900360640190fd5b6007546001600160a01b03163314611fcf576040805162461bcd60e51b815260206004820152601260248201527122a9292fa727aa2fa1a7a72a2927a62622a960711b604482015290519081900360640190fd5b60078054911515600160a01b0260ff60a01b199092169190911790556006805461ff0019169055565b336001600160a01b03166000356001600160e01b0319166001600160e01b03191660003660405180806020018281038252848482818152602001925080828437600083820152604051601f909101601f19169092018290039550909350505050a2600654610100900460ff16156120a4576040805162461bcd60e51b815260206004820152600b60248201526a4552525f5245454e54525960a81b604482015290519081900360640190fd5b6006805461ff001916610100179055600754336001600160a01b0390911614612109576040805162461bcd60e51b815260206004820152601260248201527122a9292fa727aa2fa1a7a72a2927a62622a960711b604482015290519081900360640190fd5b60095460ff1615612154576040805162461bcd60e51b815260206004820152601060248201526f11549497d254d7d1925390531256915160821b604482015290519081900360640190fd5b600a546002111561219d576040805162461bcd60e51b815260206004820152600e60248201526d4552525f4d494e5f544f4b454e5360901b604482015290519081900360640190fd5b6009805460ff191660011790556007805460ff60a01b1916600160a01b1790556121cf68056bc75e2d6310000061501b565b6121e23368056bc75e2d63100000614d9a565b6006805461ff0019169055565b336001600160a01b03166000356001600160e01b0319166001600160e01b03191660003660405180806020018281038252848482818152602001925080828437600083820152604051601f909101601f19169092018290039550909350505050a2600654610100900460ff161561229b576040805162461bcd60e51b815260206004820152600b60248201526a4552525f5245454e54525960a81b604482015290519081900360640190fd5b6006805461ff00191661010017905560095460ff166122f5576040805162461bcd60e51b815260206004820152601160248201527011549497d393d517d19253905312569151607a1b604482015290519081900360640190fd5b60006122ff61137a565b9050600061230d8583615024565b905080612353576040805162461bcd60e51b815260206004820152600f60248201526e08aa4a4be9a82a890be82a0a0a49eb608b1b604482015290519081900360640190fd5b60005b600a548110156124c2576000600a828154811061236f57fe5b60009182526020808320909101546001600160a01b0316808352600b9091526040822060030154909250906123a48583614c58565b9050806123ea576040805162461bcd60e51b815260206004820152600f60248201526e08aa4a4be9a82a890be82a0a0a49eb608b1b604482015290519081900360640190fd5b8787858181106123f657fe5b90506020020135811115612440576040805162461bcd60e51b815260206004820152600c60248201526b22a9292fa624a6a4aa2fa4a760a11b604482015290519081900360640190fd5b6001600160a01b0383166000908152600b60205260409020600301546124669082614f75565b6001600160a01b0384166000818152600b60209081526040918290206003019390935580518481529051919233926000805160206156c68339815191529281900390910190a36124b7833383614fc2565b505050600101612356565b506124cc8561501b565b611b773386614d9a565b6000806124e38786615024565b905060006124f18786614f75565b905060006124ff8289615024565b90506000612515670de0b6b3a764000085615024565b90506000612523838361512c565b90506000612531828e614c58565b9050600061253f828f614d21565b9050600061255e612558670de0b6b3a76400008a614d21565b8b614c58565b905061257b82612576670de0b6b3a764000084614d21565b615024565b9f9e505050505050505050505050505050565b6000336001600160a01b03166000356001600160e01b0319166001600160e01b03191660003660405180806020018281038252848482818152602001925080828437600083820152604051601f909101601f19169092018290039550909350505050a2600654610100900460ff161561263c576040805162461bcd60e51b815260206004820152600b60248201526a4552525f5245454e54525960a81b604482015290519081900360640190fd5b6006805461ff00191661010017905560095460ff16612696576040805162461bcd60e51b815260206004820152601160248201527011549497d393d517d19253905312569151607a1b604482015290519081900360640190fd5b6001600160a01b0384166000908152600b602052604090205460ff166126f3576040805162461bcd60e51b815260206004820152600d60248201526c11549497d393d517d093d55391609a1b604482015290519081900360640190fd5b6001600160a01b0384166000908152600b6020526040902060030154612725906002670de0b6b3a76400005b04614c58565b83111561276c576040805162461bcd60e51b815260206004820152601060248201526f4552525f4d41585f494e5f524154494f60801b604482015290519081900360640190fd5b6001600160a01b0384166000908152600b6020526040902060038082015460028301549154600c546008546127a5949291908990613782565b9150828210156127ec576040805162461bcd60e51b815260206004820152600d60248201526c11549497d31253525517d3d555609a1b604482015290519081900360640190fd5b6127fa816003015485614f75565b60038201556040805185815290516001600160a01b0387169133916000805160206156c68339815191529181900360200190a36128368261501b565b6128403383614d9a565b61284b853386614fc2565b506006805461ff00191690559392505050565b3360009081526002602090815260408083206001600160a01b0386168452909152812054808311156128b3573360009081526002602090815260408083206001600160a01b03881684529091528120556128e2565b6128bd8184614d21565b3360009081526002602090815260408083206001600160a01b03891684529091529020555b3360008181526002602090815260408083206001600160a01b038916808552908352928190205481519081529051929392600080516020615754833981519152929181900390910190a35060019392505050565b6000336001600160a01b03166000356001600160e01b0319166001600160e01b03191660003660405180806020018281038252848482818152602001925080828437600083820152604051601f909101601f19169092018290039550909350505050a2600654610100900460ff16156129e4576040805162461bcd60e51b815260206004820152600b60248201526a4552525f5245454e54525960a81b604482015290519081900360640190fd5b6006805461ff00191661010017905560095460ff16612a3e576040805162461bcd60e51b815260206004820152601160248201527011549497d393d517d19253905312569151607a1b604482015290519081900360640190fd5b6001600160a01b0384166000908152600b602052604090205460ff16612a9b576040805162461bcd60e51b815260206004820152600d60248201526c11549497d393d517d093d55391609a1b604482015290519081900360640190fd5b6001600160a01b0384166000908152600b6020526040902060038082015460028301549154600c54600854612ad49492919089906124d6565b915081612b1a576040805162461bcd60e51b815260206004820152600f60248201526e08aa4a4be9a82a890be82a0a0a49eb608b1b604482015290519081900360640190fd5b82821115612b5e576040805162461bcd60e51b815260206004820152600c60248201526b22a9292fa624a6a4aa2fa4a760a11b604482015290519081900360640190fd5b6001600160a01b0385166000908152600b6020526040902060030154612b8e906002670de0b6b3a764000061271f565b821115612bd5576040805162461bcd60e51b815260206004820152601060248201526f4552525f4d41585f494e5f524154494f60801b604482015290519081900360640190fd5b612be3816003015483614f75565b60038201556040805183815290516001600160a01b0387169133916000805160206156c68339815191529181900360200190a3612c1f8461501b565b612c293385614d9a565b61284b853384614fc2565b6001600160a01b031660009081526001602052604090205490565b620f4240670de0b6b3a7640000611390565b60408051602080825236908201819052600092839233926001600160e01b03198535169285929081908101848480828437600083820152604051601f909101601f19169092018290039550909350505050a2600654610100900460ff1615612cfe576040805162461bcd60e51b815260206004820152600b60248201526a4552525f5245454e54525960a81b604482015290519081900360640190fd5b6006805461ff0019166101001790556001600160a01b0387166000908152600b602052604090205460ff16612d6a576040805162461bcd60e51b815260206004820152600d60248201526c11549497d393d517d093d55391609a1b604482015290519081900360640190fd5b6001600160a01b0385166000908152600b602052604090205460ff16612dc7576040805162461bcd60e51b815260206004820152600d60248201526c11549497d393d517d093d55391609a1b604482015290519081900360640190fd5b600754600160a01b900460ff16612e1b576040805162461bcd60e51b81526020600482015260136024820152724552525f535741505f4e4f545f5055424c494360681b604482015290519081900360640190fd5b6001600160a01b038088166000908152600b602052604080822092881682529020600380820154612e5491670de0b6b3a7640000610e25565b861115612e9c576040805162461bcd60e51b81526020600482015260116024820152704552525f4d41585f4f55545f524154494f60781b604482015290519081900360640190fd5b6000612ebd8360030154846002015484600301548560020154600854613d88565b905085811115612f0a576040805162461bcd60e51b81526020600482015260136024820152724552525f4241445f4c494d49545f505249434560681b604482015290519081900360640190fd5b612f2a83600301548460020154846003015485600201548b600854614bc5565b945088851115612f70576040805162461bcd60e51b815260206004820152600c60248201526b22a9292fa624a6a4aa2fa4a760a11b604482015290519081900360640190fd5b612f7e836003015486614f75565b8360030181905550612f94826003015488614d21565b600380840182905584015460028086015490850154600854612fb7949190613d88565b935080841015613000576040805162461bcd60e51b815260206004820152600f60248201526e08aa4a4be9a82a890be82a0a0a49eb608b1b604482015290519081900360640190fd5b85841115613047576040805162461bcd60e51b815260206004820152600f60248201526e4552525f4c494d49545f505249434560881b604482015290519081900360640190fd5b6130518588615024565b811115613097576040805162461bcd60e51b815260206004820152600f60248201526e08aa4a4be9a82a890be82a0a0a49eb608b1b604482015290519081900360640190fd5b876001600160a01b03168a6001600160a01b0316336001600160a01b03167f908fb5ee8f16c6bc9bc3690973819f32a4d4b10188134543c88706e0e1d43378888b604051808381526020018281526020019250505060405180910390a46130ff8a3387614fc2565b61310a883389614da4565b5050506006805461ff001916905590969095509350505050565b600054610100900460ff168061313d575061313d61523a565b8061314b575060005460ff16155b6131865760405162461bcd60e51b815260040180806020018281038252602e8152602001806156e6602e913960400191505060405180910390fd5b600054610100900460ff161580156131b1576000805460ff1961ff0019909116610100171660011790555b600780546006805462010000600160b01b031916336201000081029190911790915564e8d4a510006008556001600160a01b03199091161760ff60a01b191690556009805460ff1916905561320461524b565b8015613216576000805461ff00191690555b50565b60408051602080825236908201819052600092839233926001600160e01b03198535169285929081908101848480828437600083820152604051601f909101601f19169092018290039550909350505050a2600654610100900460ff16156132b6576040805162461bcd60e51b815260206004820152600b60248201526a4552525f5245454e54525960a81b604482015290519081900360640190fd5b6006805461ff0019166101001790556001600160a01b0387166000908152600b602052604090205460ff16613322576040805162461bcd60e51b815260206004820152600d60248201526c11549497d393d517d093d55391609a1b604482015290519081900360640190fd5b6001600160a01b0385166000908152600b602052604090205460ff1661337f576040805162461bcd60e51b815260206004820152600d60248201526c11549497d393d517d093d55391609a1b604482015290519081900360640190fd5b600754600160a01b900460ff166133d3576040805162461bcd60e51b81526020600482015260136024820152724552525f535741505f4e4f545f5055424c494360681b604482015290519081900360640190fd5b6001600160a01b038088166000908152600b602052604080822092881682529020600382015461340d906002670de0b6b3a764000061271f565b881115613454576040805162461bcd60e51b815260206004820152601060248201526f4552525f4d41585f494e5f524154494f60801b604482015290519081900360640190fd5b60006134758360030154846002015484600301548560020154600854613d88565b9050858111156134c2576040805162461bcd60e51b81526020600482015260136024820152724552525f4241445f4c494d49545f505249434560681b604482015290519081900360640190fd5b6134e283600301548460020154846003015485600201548d600854614147565b945086851015613529576040805162461bcd60e51b815260206004820152600d60248201526c11549497d31253525517d3d555609a1b604482015290519081900360640190fd5b61353783600301548a614f75565b836003018190555061354d826003015486614d21565b600380840182905584015460028086015490850154600854613570949190613d88565b9350808410156135b9576040805162461bcd60e51b815260206004820152600f60248201526e08aa4a4be9a82a890be82a0a0a49eb608b1b604482015290519081900360640190fd5b85841115613600576040805162461bcd60e51b815260206004820152600f60248201526e4552525f4c494d49545f505249434560881b604482015290519081900360640190fd5b61360a8986615024565b811115613650576040805162461bcd60e51b815260206004820152600f60248201526e08aa4a4be9a82a890be82a0a0a49eb608b1b604482015290519081900360640190fd5b876001600160a01b03168a6001600160a01b0316336001600160a01b03167f908fb5ee8f16c6bc9bc3690973819f32a4d4b10188134543c88706e0e1d433788c89604051808381526020018281526020019250505060405180910390a46136b88a338b614fc2565b61310a883387614da4565b6000806136d08786615024565b905060006136e6670de0b6b3a764000083614d21565b905060006136f48286614c58565b9050600061370e87612576670de0b6b3a764000085614d21565b9050600061371c8c83614d21565b9050600061372a828e615024565b90506000613738828861512c565b90506000613746828e614c58565b905060006137548e83614d21565b905061376d81612576670de0b6b3a76400006000614d21565b99505050505050505050509695505050505050565b60008061378f8786615024565b905060006137ae6137a8670de0b6b3a764000084614d21565b85614c58565b905060006137cd866137c8670de0b6b3a764000085614d21565b614c58565b905060006137db8b83614f75565b905060006137e9828d615024565b905060006137f7828761512c565b90506000613805828d614c58565b9050613811818d614d21565b9e9d5050505050505050505050505050565b64e8d4a51000670de0b6b3a7640000611390565b6000806138448786615024565b9050600061385f856137c8670de0b6b3a76400006000614d21565b9050600061386d8883614d21565b9050600061387b828a615024565b9050600061389a82613895670de0b6b3a764000088615024565b61512c565b905060006138a8828e614c58565b905060006138b68e83614d21565b905060006138cf612558670de0b6b3a76400008a614d21565b905061257b826137c8670de0b6b3a764000084614d21565b336001600160a01b03166000356001600160e01b0319166001600160e01b03191660003660405180806020018281038252848482818152602001925080828437600083820152604051601f909101601f19169092018290039550909350505050a2600654610100900460ff1615613993576040805162461bcd60e51b815260206004820152600b60248201526a4552525f5245454e54525960a81b604482015290519081900360640190fd5b6006805461ff0019166101001790556001600160a01b0381166000908152600b602052604090205460ff166139ff576040805162461bcd60e51b815260206004820152600d60248201526c11549497d393d517d093d55391609a1b604482015290519081900360640190fd5b604080516370a0823160e01b815230600482015290516001600160a01b038316916370a08231916024808301926020929190829003018186803b158015613a4557600080fd5b505afa158015613a59573d6000803e3d6000fd5b505050506040513d6020811015613a6f57600080fd5b50516001600160a01b039091166000908152600b60205260409020600301556006805461ff0019169055565b60095460ff1690565b336001600160a01b03166000356001600160e01b0319166001600160e01b03191660003660405180806020018281038252848482818152602001925080828437600083820152604051601f909101601f19169092018290039550909350505050a2600654610100900460ff1615613b50576040805162461bcd60e51b815260206004820152600b60248201526a4552525f5245454e54525960a81b604482015290519081900360640190fd5b6006805461ff001916610100179055600754336001600160a01b0390911614613bb5576040805162461bcd60e51b815260206004820152601260248201527122a9292fa727aa2fa1a7a72a2927a62622a960711b604482015290519081900360640190fd5b600780546001600160a01b0319166001600160a01b03929092169190911790556006805461ff0019169055565b600654600090610100900460ff1615613c30576040805162461bcd60e51b815260206004820152600b60248201526a4552525f5245454e54525960a81b604482015290519081900360640190fd5b50600c5490565b68056bc75e2d6310000081565b600654600090610100900460ff1615613c92576040805162461bcd60e51b815260206004820152600b60248201526a4552525f5245454e54525960a81b604482015290519081900360640190fd5b6001600160a01b0382166000908152600b602052604090205460ff16613cef576040805162461bcd60e51b815260206004820152600d60248201526c11549497d393d517d093d55391609a1b604482015290519081900360640190fd5b506001600160a01b03166000908152600b602052604090206002015490565b60058054604080516020601f600260001961010060018816150201909516949094049384018190048102820181019092528281526060939092909183018282801561106d5780601f106110425761010080835404028352916020019161106d565b6704a03ce68d21555681565b6542524f4e5a4560d01b90565b600080613d958787615024565b90506000613da38686615024565b90506000613db18383615024565b90506000613dd3670de0b6b3a7640000612576670de0b6b3a764000089614d21565b9050613ddf8282614c58565b9a9950505050505050505050565b6000613dfa338484614e75565b50600192915050565b336001600160a01b03166000356001600160e01b0319166001600160e01b03191660003660405180806020018281038252848482818152602001925080828437600083820152604051601f909101601f19169092018290039550909350505050a2600654610100900460ff1615613eaf576040805162461bcd60e51b815260206004820152600b60248201526a4552525f5245454e54525960a81b604482015290519081900360640190fd5b6006805461ff00191661010017905560095460ff16613f09576040805162461bcd60e51b815260206004820152601160248201527011549497d393d517d19253905312569151607a1b604482015290519081900360640190fd5b6000613f1361137a565b90506000613f22856000614c58565b90506000613f308683614d21565b90506000613f3e8285615024565b905080613f84576040805162461bcd60e51b815260206004820152600f60248201526e08aa4a4be9a82a890be82a0a0a49eb608b1b604482015290519081900360640190fd5b613f8e3388614d83565b600654613faa906201000090046001600160a01b031684614d9a565b613fb382614d91565b60005b600a54811015614123576000600a8281548110613fcf57fe5b60009182526020808320909101546001600160a01b0316808352600b9091526040822060030154909250906140048583614c58565b90508061404a576040805162461bcd60e51b815260206004820152600f60248201526e08aa4a4be9a82a890be82a0a0a49eb608b1b604482015290519081900360640190fd5b89898581811061405657fe5b905060200201358110156140a1576040805162461bcd60e51b815260206004820152600d60248201526c11549497d31253525517d3d555609a1b604482015290519081900360640190fd5b6001600160a01b0383166000908152600b60205260409020600301546140c79082614d21565b6001600160a01b0384166000818152600b60209081526040918290206003019390935580518481529051919233926000805160206157348339815191529281900390910190a3614118833383614da4565b505050600101613fb6565b50506006805461ff0019169055505050505050565b600881565b600281565b600181565b6000806141548786615024565b9050600061416a670de0b6b3a764000085614d21565b90506141768582614c58565b905060006141888a6125768c85614f75565b90506000614196828561512c565b905060006141ac670de0b6b3a764000083614d21565b90506141b88a82614c58565b9c9b505050505050505050505050565b600a670de0b6b3a7640000611390565b671bc16d674ec7ffff81565b600654606090610100900460ff1615614232576040805162461bcd60e51b815260206004820152600b60248201526a4552525f5245454e54525960a81b604482015290519081900360640190fd5b60095460ff1661427d576040805162461bcd60e51b815260206004820152601160248201527011549497d393d517d19253905312569151607a1b604482015290519081900360640190fd5b600a80548060200260200160405190810160405280929190818152602001828054801561106d57602002820191906000526020600020905b81546001600160a01b031681526001909101906020018083116142b5575050505050905090565b600081565b600654606090610100900460ff161561427d576040805162461bcd60e51b815260206004820152600b60248201526a4552525f5245454e54525960a81b604482015290519081900360640190fd5b600a5490565b336001600160a01b03166000356001600160e01b0319166001600160e01b03191660003660405180806020018281038252848482818152602001925080828437600083820152604051601f909101601f19169092018290039550909350505050a2600654610100900460ff16156143e1576040805162461bcd60e51b815260206004820152600b60248201526a4552525f5245454e54525960a81b604482015290519081900360640190fd5b6006805461ff001916610100179055600754336001600160a01b0390911614614446576040805162461bcd60e51b815260206004820152601260248201527122a9292fa727aa2fa1a7a72a2927a62622a960711b604482015290519081900360640190fd5b6001600160a01b0381166000908152600b602052604090205460ff166144a3576040805162461bcd60e51b815260206004820152600d60248201526c11549497d393d517d093d55391609a1b604482015290519081900360640190fd5b60095460ff16156144ee576040805162461bcd60e51b815260206004820152601060248201526f11549497d254d7d1925390531256915160821b604482015290519081900360640190fd5b6001600160a01b0381166000908152600b6020526040812060030154906145158282614c58565b600c546001600160a01b0385166000908152600b602052604090206002015491925061454091614d21565b600c556001600160a01b0383166000908152600b6020526040902060010154600a8054600019810191908290811061457457fe5b600091825260209091200154600a80546001600160a01b03909216918490811061459a57fe5b9060005260206000200160006101000a8154816001600160a01b0302191690836001600160a01b0316021790555081600b6000600a85815481106145da57fe5b60009182526020808320909101546001600160a01b03168352820192909252604001902060010155600a80548061460d57fe5b60008281526020808220600019908401810180546001600160a01b031916905590920190925560408051608081018252838152808301848152818301858152606083018681526001600160a01b038c168752600b909552929094209051815460ff191690151517815592516001840155516002830155516003909101556146998533611b518787614d21565b600654611b779086906201000090046001600160a01b031685614da4565b600654600090610100900460ff1615614705576040805162461bcd60e51b815260206004820152600b60248201526a4552525f5245454e54525960a81b604482015290519081900360640190fd5b5060085490565b3360009081526002602090815260408083206001600160a01b038616845290915281205461473a9083614f75565b3360008181526002602090815260408083206001600160a01b038916808552908352928190208590558051948552519193600080516020615754833981519152929081900390910190a350600192915050565b6001600160a01b03918216600090815260026020908152604080832093909416825291909152205490565b336001600160a01b03166000356001600160e01b0319166001600160e01b03191660003660405180806020018281038252848482818152602001925080828437600083820152604051601f909101601f19169092018290039550909350505050a26007546001600160a01b0316331461486d576040805162461bcd60e51b815260206004820152601260248201527122a9292fa727aa2fa1a7a72a2927a62622a960711b604482015290519081900360640190fd5b6001600160a01b0383166000908152600b602052604090205460ff16156148ca576040805162461bcd60e51b815260206004820152600c60248201526b11549497d254d7d093d5539160a21b604482015290519081900360640190fd5b60095460ff1615614915576040805162461bcd60e51b815260206004820152601060248201526f11549497d254d7d1925390531256915160821b604482015290519081900360640190fd5b600a5460081161495d576040805162461bcd60e51b815260206004820152600e60248201526d4552525f4d41585f544f4b454e5360901b604482015290519081900360640190fd5b604080516080810182526001808252600a805460208085019182526000858701818152606087018281526001600160a01b038c16808452600b9094529782209651875460ff1916901515178755925186860155915160028601559451600390940193909355805491820181559091527fc65a7bb8d6351c1cf70c95a316cc6a92839c986682d98bc35f958f4883f9d2a80180546001600160a01b0319169091179055614a0a83838361177c565b505050565b6002670de0b6b3a7640000611390565b600654600090610100900460ff1615614a6d576040805162461bcd60e51b815260206004820152600b60248201526a4552525f5245454e54525960a81b604482015290519081900360640190fd5b6001600160a01b0382166000908152600b602052604090205460ff16614aca576040805162461bcd60e51b815260206004820152600d60248201526c11549497d393d517d093d55391609a1b604482015290519081900360640190fd5b6001600160a01b0382166000908152600b6020526040902060020154600c54614af4908290615024565b9392505050565b600654600090610100900460ff1615614b49576040805162461bcd60e51b815260206004820152600b60248201526a4552525f5245454e54525960a81b604482015290519081900360640190fd5b6001600160a01b0382166000908152600b602052604090205460ff16614ba6576040805162461bcd60e51b815260206004820152600d60248201526c11549497d393d517d093d55391609a1b604482015290519081900360640190fd5b506001600160a01b03166000908152600b602052604090206003015490565b600080614bd28588615024565b90506000614be08786614d21565b90506000614bee8883615024565b90506000614bfc828561512c565b9050614c1081670de0b6b3a7640000614d21565b9050614c24670de0b6b3a764000087614d21565b9450614c39614c338c83614c58565b86615024565b9b9a5050505050505050505050565b600754600160a01b900460ff1690565b6000828202831580614c72575082848281614c6f57fe5b04145b614cb6576040805162461bcd60e51b815260206004820152601060248201526f4552525f4d554c5f4f564552464c4f5760801b604482015290519081900360640190fd5b6706f05b59d3b20000810181811015614d09576040805162461bcd60e51b815260206004820152601060248201526f4552525f4d554c5f4f564552464c4f5760801b604482015290519081900360640190fd5b6000670de0b6b3a7640000825b049695505050505050565b6000806000614d308585615364565b915091508015614d7b576040805162461bcd60e51b81526020600482015260116024820152704552525f5355425f554e444552464c4f5760781b604482015290519081900360640190fd5b509392505050565b614d8d8282615389565b5050565b61321681615394565b614d8d8282615452565b6000836001600160a01b031663a9059cbb84846040518363ffffffff1660e01b815260040180836001600160a01b0316815260200182815260200192505050602060405180830381600087803b158015614dfd57600080fd5b505af1158015614e11573d6000803e3d6000fd5b505050506040513d6020811015614e2757600080fd5b5051905080614e6f576040805162461bcd60e51b815260206004820152600f60248201526e4552525f45524332305f46414c534560881b604482015290519081900360640190fd5b50505050565b6001600160a01b038316600090815260016020526040902054811115614ed9576040805162461bcd60e51b815260206004820152601460248201527311549497d25394d551919250d251539517d0905360621b604482015290519081900360640190fd5b6001600160a01b038316600090815260016020526040902054614efc9082614d21565b6001600160a01b038085166000908152600160205260408082209390935590841681522054614f2b9082614f75565b6001600160a01b03808416600081815260016020908152604091829020949094558051858152905191939287169260008051602061571483398151915292918290030190a3505050565b600082820183811015614af4576040805162461bcd60e51b815260206004820152601060248201526f4552525f4144445f4f564552464c4f5760801b604482015290519081900360640190fd5b604080516323b872dd60e01b81526001600160a01b0384811660048301523060248301526044820184905291516000928616916323b872dd91606480830192602092919082900301818787803b158015614dfd57600080fd5b6132168161545d565b600081615067576040805162461bcd60e51b815260206004820152600c60248201526b4552525f4449565f5a45524f60a01b604482015290519081900360640190fd5b670de0b6b3a7640000830283158061508f5750670de0b6b3a764000084828161508c57fe5b04145b6150d3576040805162461bcd60e51b815260206004820152601060248201526f11549497d1125597d25395115493905360821b604482015290519081900360640190fd5b60028304810181811015615121576040805162461bcd60e51b815260206004820152601060248201526f11549497d1125597d25395115493905360821b604482015290519081900360640190fd5b6000848281614d1657fe5b6000600183101561517c576040805162461bcd60e51b81526020600482015260156024820152744552525f42504f575f424153455f544f4f5f4c4f5760581b604482015290519081900360640190fd5b671bc16d674ec7ffff8311156151d2576040805162461bcd60e51b815260206004820152601660248201527508aa4a4be84a09eaebe8482a68abea89e9ebe90928e960531b604482015290519081900360640190fd5b60006151dd836154c0565b905060006151eb8483614d21565b90506000615201866151fc856154db565b6154e9565b9050816152125792506110c6915050565b600061522387846305f5e100615540565b905061522f8282614c58565b979650505050505050565b60006152453061561e565b15905090565b600054610100900460ff1680615264575061526461523a565b80615272575060005460ff16155b6152ad5760405162461bcd60e51b815260040180806020018281038252602e8152602001806156e6602e913960400191505060405180910390fd5b600054610100900460ff161580156152d8576000805460ff1961ff0019909116610100171660011790555b6040805180820190915260188082527729bbb0b9369026b0b935b2ba39902837b7b6102a37b5b2b760411b602090920191825261531791600491615624565b506040805180820190915260038082526214d41560ea1b602090920191825261534291600591615624565b506006805460ff191660121790558015613216576000805461ff001916905550565b60008082841061537a5750508082036000615382565b505081810360015b9250929050565b614d8d823083614e75565b306000908152600160205260409020548111156153ef576040805162461bcd60e51b815260206004820152601460248201527311549497d25394d551919250d251539517d0905360621b604482015290519081900360640190fd5b306000908152600160205260409020546154099082614d21565b306000908152600160205260409020556003546154269082614d21565b60035560408051828152905160009130916000805160206157148339815191529181900360200190a350565b614d8d308383614e75565b306000908152600160205260409020546154779082614f75565b306000908152600160205260409020556003546154949082614f75565b60035560408051828152905130916000916000805160206157148339815191529181900360200190a350565b6000670de0b6b3a76400006154d4836154db565b0292915050565b670de0b6b3a7640000900490565b6000806002830661550257670de0b6b3a7640000615504565b835b90506002830492505b8215614af45761551d8485614c58565b93506002830615615535576155328185614c58565b90505b60028304925061550d565b600082818061555787670de0b6b3a7640000615364565b9092509050670de0b6b3a764000080600060015b88841061560f576000670de0b6b3a76400008202905060008061559f8a61559a85670de0b6b3a7640000614d21565b615364565b915091506155b1876137c8848c614c58565b96506155bd8784615024565b9650866155cc5750505061560f565b87156155d6579315935b80156155e0579315935b84156155f7576155f08688614d21565b9550615604565b6156018688614f75565b95505b50505060010161556b565b50909998505050505050505050565b3b151590565b828054600181600116156101000203166002900490600052602060002090601f01602090048101928261565a57600085556156a0565b82601f1061567357805160ff19168380011785556156a0565b828001600101855582156156a0579182015b828111156156a0578251825591602001919060010190615685565b506156ac9291506156b0565b5090565b5b808211156156ac57600081556001016156b156fe63982df10efd8dfaaaa0fcc7f50b2d93b7cba26ccc48adee2873220d485dc39a496e697469616c697a61626c653a20636f6e747261637420697320616c726561647920696e697469616c697a6564ddf252ad1be2c89b69c2b068fc378daa952ba7f163c4a11628f55a4df523b3efe74c91552b64c2e2e7bd255639e004e693bd3e1d01cc33e65610b86afcc1ffed8c5be1e5ebec7d5bd14f71427d1e84f3dd0314c0f7b2291e5b200ac8c7c3b925a2646970667358221220a0ed906c63efec101aae9864164917f29e066ec376c7efc201623257265d669b64736f6c63430007040033",
  "immutableReferences": {},
  "source": "// This program is free software: you can redistribute it and/or modify\n// it under the terms of the GNU General Public License as published by\n// the Free Software Foundation, either version 3 of the License, or\n// (at your option) any later version.\n\n// This program is distributed in the hope that it will be useful,\n// but WITHOUT ANY WARRANTY; without even the implied warranty of\n// MERCHANTABILITY or FITNESS FOR A PARTICULAR PURPOSE.  See the\n// GNU General Public License for more details.\n\n// You should have received a copy of the GNU General Public License\n// along with this program.  If not, see <http://www.gnu.org/licenses/>.\n\npragma solidity ^0.7.0;\n\nimport \"./BToken.sol\";\nimport \"./BMath.sol\";\n\ncontract BPool is BBronze, BToken, BMath {\n\n    struct Record {\n        bool bound;   // is token bound to pool\n        uint index;   // private\n        uint denorm;  // denormalized weight\n        uint balance;\n    }\n\n    event LOG_SWAP(\n        address indexed caller,\n        address indexed tokenIn,\n        address indexed tokenOut,\n        uint256         tokenAmountIn,\n        uint256         tokenAmountOut\n    );\n\n    event LOG_JOIN(\n        address indexed caller,\n        address indexed tokenIn,\n        uint256         tokenAmountIn\n    );\n\n    event LOG_EXIT(\n        address indexed caller,\n        address indexed tokenOut,\n        uint256         tokenAmountOut\n    );\n\n    event LOG_CALL(\n        bytes4  indexed sig,\n        address indexed caller,\n        bytes           data\n    ) anonymous;\n\n    modifier _logs_() {\n        emit LOG_CALL(msg.sig, msg.sender, msg.data);\n        _;\n    }\n\n    modifier _lock_() {\n        require(!_mutex, \"ERR_REENTRY\");\n        _mutex = true;\n        _;\n        _mutex = false;\n    }\n\n    modifier _viewlock_() {\n        require(!_mutex, \"ERR_REENTRY\");\n        _;\n    }\n\n    bool private _mutex;\n\n    address private _factory;    // BFactory address to push token exitFee to\n    address private _controller; // has CONTROL role\n    bool private _publicSwap; // true if PUBLIC can call SWAP functions\n\n    // `setSwapFee` and `finalize` require CONTROL\n    // `finalize` sets `PUBLIC can SWAP`, `PUBLIC can JOIN`\n    uint private _swapFee;\n    bool private _finalized;\n\n    address[] private _tokens;\n    mapping(address=>Record) private  _records;\n    uint private _totalWeight;\n\n    function initialize() public initializer {\n        _controller = msg.sender;\n        _factory = msg.sender;\n        _swapFee = MIN_FEE;\n        _publicSwap = false;\n        _finalized = false;\n        __BToken_init_unchained();\n    }\n\n    function isPublicSwap()\n        external view\n        returns (bool)\n    {\n        return _publicSwap;\n    }\n\n    function isFinalized()\n        external view\n        returns (bool)\n    {\n        return _finalized;\n    }\n\n    function isBound(address t)\n        external view\n        returns (bool)\n    {\n        return _records[t].bound;\n    }\n\n    function getNumTokens()\n        external view\n        returns (uint)\n    {\n        return _tokens.length;\n    }\n\n    function getCurrentTokens()\n        external view _viewlock_\n        returns (address[] memory tokens)\n    {\n        return _tokens;\n    }\n\n    function getFinalTokens()\n        external view\n        _viewlock_\n        returns (address[] memory tokens)\n    {\n        require(_finalized, \"ERR_NOT_FINALIZED\");\n        return _tokens;\n    }\n\n    function getDenormalizedWeight(address token)\n        external view\n        _viewlock_\n        returns (uint)\n    {\n\n        require(_records[token].bound, \"ERR_NOT_BOUND\");\n        return _records[token].denorm;\n    }\n\n    function getTotalDenormalizedWeight()\n        external view\n        _viewlock_\n        returns (uint)\n    {\n        return _totalWeight;\n    }\n\n    function getNormalizedWeight(address token)\n        external view\n        _viewlock_\n        returns (uint)\n    {\n\n        require(_records[token].bound, \"ERR_NOT_BOUND\");\n        uint denorm = _records[token].denorm;\n        return bdiv(denorm, _totalWeight);\n    }\n\n    function getBalance(address token)\n        external view\n        _viewlock_\n        returns (uint)\n    {\n\n        require(_records[token].bound, \"ERR_NOT_BOUND\");\n        return _records[token].balance;\n    }\n\n    function getSwapFee()\n        external view\n        _viewlock_\n        returns (uint)\n    {\n        return _swapFee;\n    }\n\n    function getController()\n        external view\n        _viewlock_\n        returns (address)\n    {\n        return _controller;\n    }\n\n    function setSwapFee(uint swapFee)\n        external\n        _logs_\n        _lock_\n    {\n        require(!_finalized, \"ERR_IS_FINALIZED\");\n        require(msg.sender == _controller, \"ERR_NOT_CONTROLLER\");\n        require(swapFee >= MIN_FEE, \"ERR_MIN_FEE\");\n        require(swapFee <= MAX_FEE, \"ERR_MAX_FEE\");\n        _swapFee = swapFee;\n    }\n\n    function setController(address manager)\n        external\n        _logs_\n        _lock_\n    {\n        require(msg.sender == _controller, \"ERR_NOT_CONTROLLER\");\n        _controller = manager;\n    }\n\n    function setPublicSwap(bool public_)\n        external\n        _logs_\n        _lock_\n    {\n        require(!_finalized, \"ERR_IS_FINALIZED\");\n        require(msg.sender == _controller, \"ERR_NOT_CONTROLLER\");\n        _publicSwap = public_;\n    }\n\n    function finalize()\n        external\n        _logs_\n        _lock_\n    {\n        require(msg.sender == _controller, \"ERR_NOT_CONTROLLER\");\n        require(!_finalized, \"ERR_IS_FINALIZED\");\n        require(_tokens.length >= MIN_BOUND_TOKENS, \"ERR_MIN_TOKENS\");\n\n        _finalized = true;\n        _publicSwap = true;\n\n        _mintPoolShare(INIT_POOL_SUPPLY);\n        _pushPoolShare(msg.sender, INIT_POOL_SUPPLY);\n    }\n\n\n    function bind(address token, uint balance, uint denorm)\n        external\n        _logs_\n        // _lock_  Bind does not lock because it jumps to `rebind`, which does\n    {\n        require(msg.sender == _controller, \"ERR_NOT_CONTROLLER\");\n        require(!_records[token].bound, \"ERR_IS_BOUND\");\n        require(!_finalized, \"ERR_IS_FINALIZED\");\n\n        require(_tokens.length < MAX_BOUND_TOKENS, \"ERR_MAX_TOKENS\");\n\n        _records[token] = Record({\n            bound: true,\n            index: _tokens.length,\n            denorm: 0,    // balance and denorm will be validated\n            balance: 0   // and set by `rebind`\n        });\n        _tokens.push(token);\n        rebind(token, balance, denorm);\n    }\n\n    function rebind(address token, uint balance, uint denorm)\n        public\n        _logs_\n        _lock_\n    {\n\n        require(msg.sender == _controller, \"ERR_NOT_CONTROLLER\");\n        require(_records[token].bound, \"ERR_NOT_BOUND\");\n        require(!_finalized, \"ERR_IS_FINALIZED\");\n\n        require(denorm >= MIN_WEIGHT, \"ERR_MIN_WEIGHT\");\n        require(denorm <= MAX_WEIGHT, \"ERR_MAX_WEIGHT\");\n        require(balance >= MIN_BALANCE, \"ERR_MIN_BALANCE\");\n\n        // Adjust the denorm and totalWeight\n        uint oldWeight = _records[token].denorm;\n        if (denorm > oldWeight) {\n            _totalWeight = badd(_totalWeight, bsub(denorm, oldWeight));\n            require(_totalWeight <= MAX_TOTAL_WEIGHT, \"ERR_MAX_TOTAL_WEIGHT\");\n        } else if (denorm < oldWeight) {\n            _totalWeight = bsub(_totalWeight, bsub(oldWeight, denorm));\n        }\n        _records[token].denorm = denorm;\n\n        // Adjust the balance record and actual token balance\n        uint oldBalance = _records[token].balance;\n        _records[token].balance = balance;\n        if (balance > oldBalance) {\n            _pullUnderlying(token, msg.sender, bsub(balance, oldBalance));\n        } else if (balance < oldBalance) {\n            // In this case liquidity is being withdrawn, so charge EXIT_FEE\n            uint tokenBalanceWithdrawn = bsub(oldBalance, balance);\n            uint tokenExitFee = bmul(tokenBalanceWithdrawn, EXIT_FEE);\n            _pushUnderlying(token, msg.sender, bsub(tokenBalanceWithdrawn, tokenExitFee));\n            _pushUnderlying(token, _factory, tokenExitFee);\n        }\n    }\n\n    function unbind(address token)\n        external\n        _logs_\n        _lock_\n    {\n\n        require(msg.sender == _controller, \"ERR_NOT_CONTROLLER\");\n        require(_records[token].bound, \"ERR_NOT_BOUND\");\n        require(!_finalized, \"ERR_IS_FINALIZED\");\n\n        uint tokenBalance = _records[token].balance;\n        uint tokenExitFee = bmul(tokenBalance, EXIT_FEE);\n\n        _totalWeight = bsub(_totalWeight, _records[token].denorm);\n\n        // Swap the token-to-unbind with the last token,\n        // then delete the last token\n        uint index = _records[token].index;\n        uint last = _tokens.length - 1;\n        _tokens[index] = _tokens[last];\n        _records[_tokens[index]].index = index;\n        _tokens.pop();\n        _records[token] = Record({\n            bound: false,\n            index: 0,\n            denorm: 0,\n            balance: 0\n        });\n\n        _pushUnderlying(token, msg.sender, bsub(tokenBalance, tokenExitFee));\n        _pushUnderlying(token, _factory, tokenExitFee);\n    }\n\n    // Absorb any tokens that have been sent to this contract into the pool\n    function gulp(address token)\n        external\n        _logs_\n        _lock_\n    {\n        require(_records[token].bound, \"ERR_NOT_BOUND\");\n        _records[token].balance = IERC20(token).balanceOf(address(this));\n    }\n\n    function getSpotPrice(address tokenIn, address tokenOut)\n        external view\n        _viewlock_\n        returns (uint spotPrice)\n    {\n        require(_records[tokenIn].bound, \"ERR_NOT_BOUND\");\n        require(_records[tokenOut].bound, \"ERR_NOT_BOUND\");\n        Record storage inRecord = _records[tokenIn];\n        Record storage outRecord = _records[tokenOut];\n        return calcSpotPrice(inRecord.balance, inRecord.denorm, outRecord.balance, outRecord.denorm, _swapFee);\n    }\n\n    function getSpotPriceSansFee(address tokenIn, address tokenOut)\n        external view\n        _viewlock_\n        returns (uint spotPrice)\n    {\n        require(_records[tokenIn].bound, \"ERR_NOT_BOUND\");\n        require(_records[tokenOut].bound, \"ERR_NOT_BOUND\");\n        Record storage inRecord = _records[tokenIn];\n        Record storage outRecord = _records[tokenOut];\n        return calcSpotPrice(inRecord.balance, inRecord.denorm, outRecord.balance, outRecord.denorm, 0);\n    }\n\n    function joinPool(uint poolAmountOut, uint[] calldata maxAmountsIn)\n        external\n        _logs_\n        _lock_\n    {\n        require(_finalized, \"ERR_NOT_FINALIZED\");\n\n        uint poolTotal = totalSupply();\n        uint ratio = bdiv(poolAmountOut, poolTotal);\n        require(ratio != 0, \"ERR_MATH_APPROX\");\n\n        for (uint i = 0; i < _tokens.length; i++) {\n            address t = _tokens[i];\n            uint bal = _records[t].balance;\n            uint tokenAmountIn = bmul(ratio, bal);\n            require(tokenAmountIn != 0, \"ERR_MATH_APPROX\");\n            require(tokenAmountIn <= maxAmountsIn[i], \"ERR_LIMIT_IN\");\n            _records[t].balance = badd(_records[t].balance, tokenAmountIn);\n            emit LOG_JOIN(msg.sender, t, tokenAmountIn);\n            _pullUnderlying(t, msg.sender, tokenAmountIn);\n        }\n        _mintPoolShare(poolAmountOut);\n        _pushPoolShare(msg.sender, poolAmountOut);\n    }\n\n    function exitPool(uint poolAmountIn, uint[] calldata minAmountsOut)\n        external\n        _logs_\n        _lock_\n    {\n        require(_finalized, \"ERR_NOT_FINALIZED\");\n\n        uint poolTotal = totalSupply();\n        uint exitFee = bmul(poolAmountIn, EXIT_FEE);\n        uint pAiAfterExitFee = bsub(poolAmountIn, exitFee);\n        uint ratio = bdiv(pAiAfterExitFee, poolTotal);\n        require(ratio != 0, \"ERR_MATH_APPROX\");\n\n        _pullPoolShare(msg.sender, poolAmountIn);\n        _pushPoolShare(_factory, exitFee);\n        _burnPoolShare(pAiAfterExitFee);\n\n        for (uint i = 0; i < _tokens.length; i++) {\n            address t = _tokens[i];\n            uint bal = _records[t].balance;\n            uint tokenAmountOut = bmul(ratio, bal);\n            require(tokenAmountOut != 0, \"ERR_MATH_APPROX\");\n            require(tokenAmountOut >= minAmountsOut[i], \"ERR_LIMIT_OUT\");\n            _records[t].balance = bsub(_records[t].balance, tokenAmountOut);\n            emit LOG_EXIT(msg.sender, t, tokenAmountOut);\n            _pushUnderlying(t, msg.sender, tokenAmountOut);\n        }\n\n    }\n\n\n    function swapExactAmountIn(\n        address tokenIn,\n        uint tokenAmountIn,\n        address tokenOut,\n        uint minAmountOut,\n        uint maxPrice\n    )\n        external\n        _logs_\n        _lock_\n        returns (uint tokenAmountOut, uint spotPriceAfter)\n    {\n\n        require(_records[tokenIn].bound, \"ERR_NOT_BOUND\");\n        require(_records[tokenOut].bound, \"ERR_NOT_BOUND\");\n        require(_publicSwap, \"ERR_SWAP_NOT_PUBLIC\");\n\n        Record storage inRecord = _records[address(tokenIn)];\n        Record storage outRecord = _records[address(tokenOut)];\n\n        require(tokenAmountIn <= bmul(inRecord.balance, MAX_IN_RATIO), \"ERR_MAX_IN_RATIO\");\n\n        uint spotPriceBefore = calcSpotPrice(\n                                    inRecord.balance,\n                                    inRecord.denorm,\n                                    outRecord.balance,\n                                    outRecord.denorm,\n                                    _swapFee\n                                );\n        require(spotPriceBefore <= maxPrice, \"ERR_BAD_LIMIT_PRICE\");\n\n        tokenAmountOut = calcOutGivenIn(\n                            inRecord.balance,\n                            inRecord.denorm,\n                            outRecord.balance,\n                            outRecord.denorm,\n                            tokenAmountIn,\n                            _swapFee\n                        );\n        require(tokenAmountOut >= minAmountOut, \"ERR_LIMIT_OUT\");\n\n        inRecord.balance = badd(inRecord.balance, tokenAmountIn);\n        outRecord.balance = bsub(outRecord.balance, tokenAmountOut);\n\n        spotPriceAfter = calcSpotPrice(\n                                inRecord.balance,\n                                inRecord.denorm,\n                                outRecord.balance,\n                                outRecord.denorm,\n                                _swapFee\n                            );\n        require(spotPriceAfter >= spotPriceBefore, \"ERR_MATH_APPROX\");\n        require(spotPriceAfter <= maxPrice, \"ERR_LIMIT_PRICE\");\n        require(spotPriceBefore <= bdiv(tokenAmountIn, tokenAmountOut), \"ERR_MATH_APPROX\");\n\n        emit LOG_SWAP(msg.sender, tokenIn, tokenOut, tokenAmountIn, tokenAmountOut);\n\n        _pullUnderlying(tokenIn, msg.sender, tokenAmountIn);\n        _pushUnderlying(tokenOut, msg.sender, tokenAmountOut);\n\n        return (tokenAmountOut, spotPriceAfter);\n    }\n\n    function swapExactAmountOut(\n        address tokenIn,\n        uint maxAmountIn,\n        address tokenOut,\n        uint tokenAmountOut,\n        uint maxPrice\n    )\n        external\n        _logs_\n        _lock_\n        returns (uint tokenAmountIn, uint spotPriceAfter)\n    {\n        require(_records[tokenIn].bound, \"ERR_NOT_BOUND\");\n        require(_records[tokenOut].bound, \"ERR_NOT_BOUND\");\n        require(_publicSwap, \"ERR_SWAP_NOT_PUBLIC\");\n\n        Record storage inRecord = _records[address(tokenIn)];\n        Record storage outRecord = _records[address(tokenOut)];\n\n        require(tokenAmountOut <= bmul(outRecord.balance, MAX_OUT_RATIO), \"ERR_MAX_OUT_RATIO\");\n\n        uint spotPriceBefore = calcSpotPrice(\n                                    inRecord.balance,\n                                    inRecord.denorm,\n                                    outRecord.balance,\n                                    outRecord.denorm,\n                                    _swapFee\n                                );\n        require(spotPriceBefore <= maxPrice, \"ERR_BAD_LIMIT_PRICE\");\n\n        tokenAmountIn = calcInGivenOut(\n                            inRecord.balance,\n                            inRecord.denorm,\n                            outRecord.balance,\n                            outRecord.denorm,\n                            tokenAmountOut,\n                            _swapFee\n                        );\n        require(tokenAmountIn <= maxAmountIn, \"ERR_LIMIT_IN\");\n\n        inRecord.balance = badd(inRecord.balance, tokenAmountIn);\n        outRecord.balance = bsub(outRecord.balance, tokenAmountOut);\n\n        spotPriceAfter = calcSpotPrice(\n                                inRecord.balance,\n                                inRecord.denorm,\n                                outRecord.balance,\n                                outRecord.denorm,\n                                _swapFee\n                            );\n        require(spotPriceAfter >= spotPriceBefore, \"ERR_MATH_APPROX\");\n        require(spotPriceAfter <= maxPrice, \"ERR_LIMIT_PRICE\");\n        require(spotPriceBefore <= bdiv(tokenAmountIn, tokenAmountOut), \"ERR_MATH_APPROX\");\n\n        emit LOG_SWAP(msg.sender, tokenIn, tokenOut, tokenAmountIn, tokenAmountOut);\n\n        _pullUnderlying(tokenIn, msg.sender, tokenAmountIn);\n        _pushUnderlying(tokenOut, msg.sender, tokenAmountOut);\n\n        return (tokenAmountIn, spotPriceAfter);\n    }\n\n\n    function joinswapExternAmountIn(address tokenIn, uint tokenAmountIn, uint minPoolAmountOut)\n        external\n        _logs_\n        _lock_\n        returns (uint poolAmountOut)\n\n    {\n        require(_finalized, \"ERR_NOT_FINALIZED\");\n        require(_records[tokenIn].bound, \"ERR_NOT_BOUND\");\n        require(tokenAmountIn <= bmul(_records[tokenIn].balance, MAX_IN_RATIO), \"ERR_MAX_IN_RATIO\");\n\n        Record storage inRecord = _records[tokenIn];\n\n        poolAmountOut = calcPoolOutGivenSingleIn(\n                            inRecord.balance,\n                            inRecord.denorm,\n                            _totalSupply,\n                            _totalWeight,\n                            tokenAmountIn,\n                            _swapFee\n                        );\n\n        require(poolAmountOut >= minPoolAmountOut, \"ERR_LIMIT_OUT\");\n\n        inRecord.balance = badd(inRecord.balance, tokenAmountIn);\n\n        emit LOG_JOIN(msg.sender, tokenIn, tokenAmountIn);\n\n        _mintPoolShare(poolAmountOut);\n        _pushPoolShare(msg.sender, poolAmountOut);\n        _pullUnderlying(tokenIn, msg.sender, tokenAmountIn);\n\n        return poolAmountOut;\n    }\n\n    function joinswapPoolAmountOut(address tokenIn, uint poolAmountOut, uint maxAmountIn)\n        external\n        _logs_\n        _lock_\n        returns (uint tokenAmountIn)\n    {\n        require(_finalized, \"ERR_NOT_FINALIZED\");\n        require(_records[tokenIn].bound, \"ERR_NOT_BOUND\");\n\n        Record storage inRecord = _records[tokenIn];\n\n        tokenAmountIn = calcSingleInGivenPoolOut(\n                            inRecord.balance,\n                            inRecord.denorm,\n                            _totalSupply,\n                            _totalWeight,\n                            poolAmountOut,\n                            _swapFee\n                        );\n\n        require(tokenAmountIn != 0, \"ERR_MATH_APPROX\");\n        require(tokenAmountIn <= maxAmountIn, \"ERR_LIMIT_IN\");\n\n        require(tokenAmountIn <= bmul(_records[tokenIn].balance, MAX_IN_RATIO), \"ERR_MAX_IN_RATIO\");\n\n        inRecord.balance = badd(inRecord.balance, tokenAmountIn);\n\n        emit LOG_JOIN(msg.sender, tokenIn, tokenAmountIn);\n\n        _mintPoolShare(poolAmountOut);\n        _pushPoolShare(msg.sender, poolAmountOut);\n        _pullUnderlying(tokenIn, msg.sender, tokenAmountIn);\n\n        return tokenAmountIn;\n    }\n\n    function exitswapPoolAmountIn(address tokenOut, uint poolAmountIn, uint minAmountOut)\n        external\n        _logs_\n        _lock_\n        returns (uint tokenAmountOut)\n    {\n        require(_finalized, \"ERR_NOT_FINALIZED\");\n        require(_records[tokenOut].bound, \"ERR_NOT_BOUND\");\n\n        Record storage outRecord = _records[tokenOut];\n\n        tokenAmountOut = calcSingleOutGivenPoolIn(\n                            outRecord.balance,\n                            outRecord.denorm,\n                            _totalSupply,\n                            _totalWeight,\n                            poolAmountIn,\n                            _swapFee\n                        );\n\n        require(tokenAmountOut >= minAmountOut, \"ERR_LIMIT_OUT\");\n\n        require(tokenAmountOut <= bmul(_records[tokenOut].balance, MAX_OUT_RATIO), \"ERR_MAX_OUT_RATIO\");\n\n        outRecord.balance = bsub(outRecord.balance, tokenAmountOut);\n\n        uint exitFee = bmul(poolAmountIn, EXIT_FEE);\n\n        emit LOG_EXIT(msg.sender, tokenOut, tokenAmountOut);\n\n        _pullPoolShare(msg.sender, poolAmountIn);\n        _burnPoolShare(bsub(poolAmountIn, exitFee));\n        _pushPoolShare(_factory, exitFee);\n        _pushUnderlying(tokenOut, msg.sender, tokenAmountOut);\n\n        return tokenAmountOut;\n    }\n\n    function exitswapExternAmountOut(address tokenOut, uint tokenAmountOut, uint maxPoolAmountIn)\n        external\n        _logs_\n        _lock_\n        returns (uint poolAmountIn)\n    {\n        require(_finalized, \"ERR_NOT_FINALIZED\");\n        require(_records[tokenOut].bound, \"ERR_NOT_BOUND\");\n        require(tokenAmountOut <= bmul(_records[tokenOut].balance, MAX_OUT_RATIO), \"ERR_MAX_OUT_RATIO\");\n\n        Record storage outRecord = _records[tokenOut];\n\n        poolAmountIn = calcPoolInGivenSingleOut(\n                            outRecord.balance,\n                            outRecord.denorm,\n                            _totalSupply,\n                            _totalWeight,\n                            tokenAmountOut,\n                            _swapFee\n                        );\n\n        require(poolAmountIn != 0, \"ERR_MATH_APPROX\");\n        require(poolAmountIn <= maxPoolAmountIn, \"ERR_LIMIT_IN\");\n\n        outRecord.balance = bsub(outRecord.balance, tokenAmountOut);\n\n        uint exitFee = bmul(poolAmountIn, EXIT_FEE);\n\n        emit LOG_EXIT(msg.sender, tokenOut, tokenAmountOut);\n\n        _pullPoolShare(msg.sender, poolAmountIn);\n        _burnPoolShare(bsub(poolAmountIn, exitFee));\n        _pushPoolShare(_factory, exitFee);\n        _pushUnderlying(tokenOut, msg.sender, tokenAmountOut);\n\n        return poolAmountIn;\n    }\n\n\n    // ==\n    // 'Underlying' token-manipulation functions make external calls but are NOT locked\n    // You must `_lock_` or otherwise ensure reentry-safety\n\n    function _pullUnderlying(address erc20, address from, uint amount)\n        internal\n    {\n        bool xfer = IERC20(erc20).transferFrom(from, address(this), amount);\n        require(xfer, \"ERR_ERC20_FALSE\");\n    }\n\n    function _pushUnderlying(address erc20, address to, uint amount)\n        internal\n    {\n        bool xfer = IERC20(erc20).transfer(to, amount);\n        require(xfer, \"ERR_ERC20_FALSE\");\n    }\n\n    function _pullPoolShare(address from, uint amount)\n        internal\n    {\n        _pull(from, amount);\n    }\n\n    function _pushPoolShare(address to, uint amount)\n        internal\n    {\n        _push(to, amount);\n    }\n\n    function _mintPoolShare(uint amount)\n        internal\n    {\n        _mint(amount);\n    }\n\n    function _burnPoolShare(uint amount)\n        internal\n    {\n        _burn(amount);\n    }\n\n}\n",
  "sourcePath": "/home/dbale/_dev/_git/x_aux/balancer-core/contracts/BPool.sol",
  "compiler": {
    "name": "solc",
    "version": "0.7.4+commit.3f05b770.Emscripten.clang"
  },
  "schemaVersion": "3.3.4",
  "updatedAt": "2022-06-22T17:52:35.850Z",
  "networkType": "ethereum",
  "devdoc": {
    "kind": "dev",
    "methods": {},
    "version": 1
  },
  "userdoc": {
    "kind": "user",
    "methods": {},
    "version": 1
  }
}