{
  "contractName": "OperationsRegistryMock",
  "abi": [
    {
      "inputs": [
        {
          "internalType": "address",
          "name": "",
          "type": "address"
        }
      ],
      "name": "allowedAssets",
      "outputs": [
        {
          "internalType": "bool",
          "name": "",
          "type": "bool"
        }
      ],
      "stateMutability": "view",
      "type": "function"
    },
    {
      "inputs": [
        {
          "internalType": "address",
          "name": "_asset",
          "type": "address"
        }
      ],
      "name": "allowAsset",
      "outputs": [
        {
          "internalType": "bool",
          "name": "",
          "type": "bool"
        }
      ],
      "stateMutability": "nonpayable",
      "type": "function"
    }
  ],
  "bytecode": "0x608060405234801561001057600080fd5b50610104806100206000396000f3fe6080604052348015600f57600080fd5b506004361060325760003560e01c8063a013b1e7146037578063a4c1cccb14606e575b600080fd5b605a60048036036020811015604b57600080fd5b50356001600160a01b03166091565b604080519115158252519081900360200190f35b605a60048036036020811015608257600080fd5b50356001600160a01b031660b9565b6001600160a01b03166000908152602081905260409020805460ff1916600190811790915590565b60006020819052908152604090205460ff168156fea2646970667358221220cbbaaa0e7b77bbd988b700a70697b4d270c523c3129f5776c73d6044ac787f4464736f6c63430007040033",
  "immutableReferences": {},
  "source": "pragma solidity ^0.7.0;\n\ncontract OperationsRegistryMock {\n    mapping(address => bool) public allowedAssets;\n\n    function allowAsset(address _asset) public returns (bool) {\n        allowedAssets[_asset] = true;\n        return true;\n    }\n}\n",
  "sourcePath": "/Users/lisandro/Protofire/Swarm/swarm-markets-balancer-core-7/contracts/test/mocks/OperationsRegistryMock.sol",
  "compiler": {
    "name": "solc",
    "version": "0.7.4+commit.3f05b770.Emscripten.clang"
  },
  "schemaVersion": "3.3.4",
  "updatedAt": "2021-03-16T11:34:21.677Z",
  "networkType": "ethereum",
  "devdoc": {
    "kind": "dev",
    "methods": {},
    "version": 1
  },
  "userdoc": {
    "kind": "user",
    "methods": {},
    "version": 1
  }
}