{
  "contractName": "PermissionManagerMock",
  "abi": [
    {
      "inputs": [
        {
          "internalType": "address",
          "name": "",
          "type": "address"
        }
      ],
      "name": "assigned",
      "outputs": [
        {
          "internalType": "bool",
          "name": "",
          "type": "bool"
        }
      ],
      "stateMutability": "view",
      "type": "function"
    },
    {
      "inputs": [
        {
          "internalType": "uint256",
          "name": "",
          "type": "uint256"
        },
        {
          "internalType": "address[]",
          "name": "_accounts",
          "type": "address[]"
        }
      ],
      "name": "assignItem",
      "outputs": [],
      "stateMutability": "nonpayable",
      "type": "function"
    }
  ],
  "bytecode": "0x608060405234801561001057600080fd5b506101c8806100206000396000f3fe608060405234801561001057600080fd5b50600436106100365760003560e01c806362071a291461003b5780636ff6cee5146100e7575b600080fd5b6100e56004803603604081101561005157600080fd5b8135919081019060408101602082013564010000000081111561007357600080fd5b82018360208201111561008557600080fd5b803590602001918460208302840111640100000000831117156100a757600080fd5b919080806020026020016040519081016040528093929190818152602001838360200280828437600092019190915250929550610121945050505050565b005b61010d600480360360208110156100fd57600080fd5b50356001600160a01b031661017d565b604080519115158252519081900360200190f35b60005b815181101561017857600160008084848151811061013e57fe5b6020908102919091018101516001600160a01b03168252810191909152604001600020805460ff1916911515919091179055600101610124565b505050565b60006020819052908152604090205460ff168156fea2646970667358221220743ca9277a66a1cd1540485db92c2b2caa24ca667e28d77325dd172ae1975a5f64736f6c63430007040033",
  "immutableReferences": {},
  "source": "pragma solidity ^0.7.0;\n\ncontract PermissionManagerMock {\n    mapping(address => bool) public assigned;\n\n    function assignItem(uint256, address[] memory _accounts) external {\n      for (uint256 i = 0; i < _accounts.length; i++) {\n        assigned[_accounts[i]] = true;\n\n      }\n    }\n}\n",
  "sourcePath": "/Users/lisandro/Protofire/Swarm/swarm-markets-balancer-core-7/contracts/test/mocks/PermissionManagerMock.sol",
  "compiler": {
    "name": "solc",
    "version": "0.7.4+commit.3f05b770.Emscripten.clang"
  },
  "schemaVersion": "3.3.4",
  "updatedAt": "2021-03-19T20:27:06.003Z",
  "networkType": "ethereum",
  "devdoc": {
    "kind": "dev",
    "methods": {},
    "version": 1
  },
  "userdoc": {
    "kind": "user",
    "methods": {},
    "version": 1
  }
}