{
  "contractName": "PermissionsMock",
  "abi": [
    {
      "inputs": [
        {
          "internalType": "string",
          "name": "uri_",
          "type": "string"
        }
      ],
      "stateMutability": "nonpayable",
      "type": "constructor"
    },
    {
      "anonymous": false,
      "inputs": [
        {
          "indexed": true,
          "internalType": "address",
          "name": "account",
          "type": "address"
        },
        {
          "indexed": true,
          "internalType": "address",
          "name": "operator",
          "type": "address"
        },
        {
          "indexed": false,
          "internalType": "bool",
          "name": "approved",
          "type": "bool"
        }
      ],
      "name": "ApprovalForAll",
      "type": "event"
    },
    {
      "anonymous": false,
      "inputs": [
        {
          "indexed": true,
          "internalType": "address",
          "name": "operator",
          "type": "address"
        },
        {
          "indexed": true,
          "internalType": "address",
          "name": "from",
          "type": "address"
        },
        {
          "indexed": true,
          "internalType": "address",
          "name": "to",
          "type": "address"
        },
        {
          "indexed": false,
          "internalType": "uint256[]",
          "name": "ids",
          "type": "uint256[]"
        },
        {
          "indexed": false,
          "internalType": "uint256[]",
          "name": "values",
          "type": "uint256[]"
        }
      ],
      "name": "TransferBatch",
      "type": "event"
    },
    {
      "anonymous": false,
      "inputs": [
        {
          "indexed": true,
          "internalType": "address",
          "name": "operator",
          "type": "address"
        },
        {
          "indexed": true,
          "internalType": "address",
          "name": "from",
          "type": "address"
        },
        {
          "indexed": true,
          "internalType": "address",
          "name": "to",
          "type": "address"
        },
        {
          "indexed": false,
          "internalType": "uint256",
          "name": "id",
          "type": "uint256"
        },
        {
          "indexed": false,
          "internalType": "uint256",
          "name": "value",
          "type": "uint256"
        }
      ],
      "name": "TransferSingle",
      "type": "event"
    },
    {
      "anonymous": false,
      "inputs": [
        {
          "indexed": false,
          "internalType": "string",
          "name": "value",
          "type": "string"
        },
        {
          "indexed": true,
          "internalType": "uint256",
          "name": "id",
          "type": "uint256"
        }
      ],
      "name": "URI",
      "type": "event"
    },
    {
      "inputs": [
        {
          "internalType": "address",
          "name": "account",
          "type": "address"
        },
        {
          "internalType": "uint256",
          "name": "id",
          "type": "uint256"
        }
      ],
      "name": "balanceOf",
      "outputs": [
        {
          "internalType": "uint256",
          "name": "",
          "type": "uint256"
        }
      ],
      "stateMutability": "view",
      "type": "function"
    },
    {
      "inputs": [
        {
          "internalType": "address[]",
          "name": "accounts",
          "type": "address[]"
        },
        {
          "internalType": "uint256[]",
          "name": "ids",
          "type": "uint256[]"
        }
      ],
      "name": "balanceOfBatch",
      "outputs": [
        {
          "internalType": "uint256[]",
          "name": "",
          "type": "uint256[]"
        }
      ],
      "stateMutability": "view",
      "type": "function"
    },
    {
      "inputs": [
        {
          "internalType": "address",
          "name": "account",
          "type": "address"
        },
        {
          "internalType": "address",
          "name": "operator",
          "type": "address"
        }
      ],
      "name": "isApprovedForAll",
      "outputs": [
        {
          "internalType": "bool",
          "name": "",
          "type": "bool"
        }
      ],
      "stateMutability": "view",
      "type": "function"
    },
    {
      "inputs": [
        {
          "internalType": "address",
          "name": "from",
          "type": "address"
        },
        {
          "internalType": "address",
          "name": "to",
          "type": "address"
        },
        {
          "internalType": "uint256[]",
          "name": "ids",
          "type": "uint256[]"
        },
        {
          "internalType": "uint256[]",
          "name": "amounts",
          "type": "uint256[]"
        },
        {
          "internalType": "bytes",
          "name": "data",
          "type": "bytes"
        }
      ],
      "name": "safeBatchTransferFrom",
      "outputs": [],
      "stateMutability": "nonpayable",
      "type": "function"
    },
    {
      "inputs": [
        {
          "internalType": "address",
          "name": "from",
          "type": "address"
        },
        {
          "internalType": "address",
          "name": "to",
          "type": "address"
        },
        {
          "internalType": "uint256",
          "name": "id",
          "type": "uint256"
        },
        {
          "internalType": "uint256",
          "name": "amount",
          "type": "uint256"
        },
        {
          "internalType": "bytes",
          "name": "data",
          "type": "bytes"
        }
      ],
      "name": "safeTransferFrom",
      "outputs": [],
      "stateMutability": "nonpayable",
      "type": "function"
    },
    {
      "inputs": [
        {
          "internalType": "address",
          "name": "operator",
          "type": "address"
        },
        {
          "internalType": "bool",
          "name": "approved",
          "type": "bool"
        }
      ],
      "name": "setApprovalForAll",
      "outputs": [],
      "stateMutability": "nonpayable",
      "type": "function"
    },
    {
      "inputs": [
        {
          "internalType": "bytes4",
          "name": "interfaceId",
          "type": "bytes4"
        }
      ],
      "name": "supportsInterface",
      "outputs": [
        {
          "internalType": "bool",
          "name": "",
          "type": "bool"
        }
      ],
      "stateMutability": "view",
      "type": "function"
    },
    {
      "inputs": [
        {
          "internalType": "uint256",
          "name": "",
          "type": "uint256"
        }
      ],
      "name": "uri",
      "outputs": [
        {
          "internalType": "string",
          "name": "",
          "type": "string"
        }
      ],
      "stateMutability": "view",
      "type": "function"
    },
    {
      "inputs": [
        {
          "internalType": "address",
          "name": "_account",
          "type": "address"
        }
      ],
      "name": "assingItem",
      "outputs": [],
      "stateMutability": "nonpayable",
      "type": "function"
    }
  ],
  "bytecode": "0x60806040523480156200001157600080fd5b50604051620019a9380380620019a9833981810160405260208110156200003757600080fd5b81019080805160405193929190846401000000008211156200005857600080fd5b9083019060208201858111156200006e57600080fd5b82516401000000008111828201881017156200008957600080fd5b82525081516020918201929091019080838360005b83811015620000b85781810151838201526020016200009e565b50505050905090810190601f168015620000e65780820380516001836020036101000a031916815260200191505b50604052508291506200010290506301ffc9a760e01b62000139565b6200010d81620001be565b6200011f636cdb3d1360e11b62000139565b620001316303a24d0760e21b62000139565b505062000283565b6001600160e01b0319808216141562000199576040805162461bcd60e51b815260206004820152601c60248201527f4552433136353a20696e76616c696420696e7465726661636520696400000000604482015290519081900360640190fd5b6001600160e01b0319166000908152602081905260409020805460ff19166001179055565b8051620001d3906003906020840190620001d7565b5050565b828054600181600116156101000203166002900490600052602060002090601f0160209004810192826200020f57600085556200025a565b82601f106200022a57805160ff19168380011785556200025a565b828001600101855582156200025a579182015b828111156200025a5782518255916020019190600101906200023d565b50620002689291506200026c565b5090565b5b808211156200026857600081556001016200026d565b61171680620002936000396000f3fe608060405234801561001057600080fd5b50600436106100825760003560e01c8062fdd58e1461008757806301ffc9a7146100c55780630e89341c146101005780632eb2c2d6146101925780634e1273f414610355578063a22cb465146104c8578063e985e9c5146104f6578063f242432a14610524578063fa4d105d146105ed575b600080fd5b6100b36004803603604081101561009d57600080fd5b506001600160a01b038135169060200135610613565b60408051918252519081900360200190f35b6100ec600480360360208110156100db57600080fd5b50356001600160e01b031916610682565b604080519115158252519081900360200190f35b61011d6004803603602081101561011657600080fd5b50356106a1565b6040805160208082528351818301528351919283929083019185019080838360005b8381101561015757818101518382015260200161013f565b50505050905090810190601f1680156101845780820380516001836020036101000a031916815260200191505b509250505060405180910390f35b610353600480360360a08110156101a857600080fd5b6001600160a01b038235811692602081013590911691810190606081016040820135600160201b8111156101db57600080fd5b8201836020820111156101ed57600080fd5b803590602001918460208302840111600160201b8311171561020e57600080fd5b9190808060200260200160405190810160405280939291908181526020018383602002808284376000920191909152509295949360208101935035915050600160201b81111561025d57600080fd5b82018360208201111561026f57600080fd5b803590602001918460208302840111600160201b8311171561029057600080fd5b9190808060200260200160405190810160405280939291908181526020018383602002808284376000920191909152509295949360208101935035915050600160201b8111156102df57600080fd5b8201836020820111156102f157600080fd5b803590602001918460018302840111600160201b8311171561031257600080fd5b91908080601f016020809104026020016040519081016040528093929190818152602001838380828437600092019190915250929550610739945050505050565b005b6104786004803603604081101561036b57600080fd5b810190602081018135600160201b81111561038557600080fd5b82018360208201111561039757600080fd5b803590602001918460208302840111600160201b831117156103b857600080fd5b9190808060200260200160405190810160405280939291908181526020018383602002808284376000920191909152509295949360208101935035915050600160201b81111561040757600080fd5b82018360208201111561041957600080fd5b803590602001918460208302840111600160201b8311171561043a57600080fd5b919080806020026020016040519081016040528093929190818152602001838360200280828437600092019190915250929550610a37945050505050565b60408051602080825283518183015283519192839290830191858101910280838360005b838110156104b457818101518382015260200161049c565b505050509050019250505060405180910390f35b610353600480360360408110156104de57600080fd5b506001600160a01b0381351690602001351515610b23565b6100ec6004803603604081101561050c57600080fd5b506001600160a01b0381358116916020013516610c12565b610353600480360360a081101561053a57600080fd5b6001600160a01b03823581169260208101359091169160408201359160608101359181019060a081016080820135600160201b81111561057957600080fd5b82018360208201111561058b57600080fd5b803590602001918460018302840111600160201b831117156105ac57600080fd5b91908080601f016020809104026020016040519081016040528093929190818152602001838380828437600092019190915250929550610c40945050505050565b6103536004803603602081101561060357600080fd5b50356001600160a01b0316610e0b565b60006001600160a01b03831661065a5760405162461bcd60e51b815260040180806020018281038252602b815260200180611571602b913960400191505060405180910390fd5b5060009081526001602090815260408083206001600160a01b03949094168352929052205490565b6001600160e01b03191660009081526020819052604090205460ff1690565b60038054604080516020601f600260001961010060018816150201909516949094049384018190048102820181019092528281526060939092909183018282801561072d5780601f106107025761010080835404028352916020019161072d565b820191906000526020600020905b81548152906001019060200180831161071057829003601f168201915b50505050509050919050565b81518351146107795760405162461bcd60e51b81526004018080602001828103825260288152602001806116986028913960400191505060405180910390fd5b6001600160a01b0384166107be5760405162461bcd60e51b81526004018080602001828103825260258152602001806115c56025913960400191505060405180910390fd5b6107c6610e2a565b6001600160a01b0316856001600160a01b031614806107f157506107f1856107ec610e2a565b610c12565b61082c5760405162461bcd60e51b81526004018080602001828103825260328152602001806115ea6032913960400191505060405180910390fd5b6000610836610e2a565b9050610846818787878787610a2f565b60005b845181101561094757600085828151811061086057fe5b60200260200101519050600085838151811061087857fe5b602002602001015190506108e5816040518060600160405280602a815260200161161c602a91396001600086815260200190815260200160002060008d6001600160a01b03166001600160a01b0316815260200190815260200160002054610e2f9092919063ffffffff16565b60008381526001602090815260408083206001600160a01b038e811685529252808320939093558a168152205461091c9082610ec6565b60009283526001602081815260408086206001600160a01b038d168752909152909320555001610849565b50846001600160a01b0316866001600160a01b0316826001600160a01b03167f4a39dc06d4c0dbc64b70af90fd698a233a518aa5d07e595d983b8c0526c8f7fb8787604051808060200180602001838103835285818151815260200191508051906020019060200280838360005b838110156109cd5781810151838201526020016109b5565b50505050905001838103825284818151815260200191508051906020019060200280838360005b83811015610a0c5781810151838201526020016109f4565b5050505090500194505050505060405180910390a4610a2f818787878787610f27565b505050505050565b60608151835114610a795760405162461bcd60e51b815260040180806020018281038252602981526020018061166f6029913960400191505060405180910390fd5b6060835167ffffffffffffffff81118015610a9357600080fd5b50604051908082528060200260200182016040528015610abd578160200160208202803683370190505b50905060005b8451811015610b1b57610afc858281518110610adb57fe5b6020026020010151858381518110610aef57fe5b6020026020010151610613565b828281518110610b0857fe5b6020908102919091010152600101610ac3565b509392505050565b816001600160a01b0316610b35610e2a565b6001600160a01b03161415610b7b5760405162461bcd60e51b81526004018080602001828103825260298152602001806116466029913960400191505060405180910390fd5b8060026000610b88610e2a565b6001600160a01b03908116825260208083019390935260409182016000908120918716808252919093529120805460ff191692151592909217909155610bcc610e2a565b6001600160a01b03167f17307eab39ab6107e8899845ad3d59bd9653f200f220920489ca2b5937696c318360405180821515815260200191505060405180910390a35050565b6001600160a01b03918216600090815260026020908152604080832093909416825291909152205460ff1690565b6001600160a01b038416610c855760405162461bcd60e51b81526004018080602001828103825260258152602001806115c56025913960400191505060405180910390fd5b610c8d610e2a565b6001600160a01b0316856001600160a01b03161480610cb35750610cb3856107ec610e2a565b610cee5760405162461bcd60e51b815260040180806020018281038252602981526020018061159c6029913960400191505060405180910390fd5b6000610cf8610e2a565b9050610d18818787610d09886111a6565b610d12886111a6565b87610a2f565b610d5f836040518060600160405280602a815260200161161c602a913960008781526001602090815260408083206001600160a01b038d1684529091529020549190610e2f565b60008581526001602090815260408083206001600160a01b038b81168552925280832093909355871681522054610d969084610ec6565b60008581526001602090815260408083206001600160a01b03808b168086529184529382902094909455805188815291820187905280518a8416938616927fc3d58168c5ae7397731d063d5bbf3d657854427343f4c083240f7aacaa2d0f6292908290030190a4610a2f8187878787876111ea565b610e27816001806040518060200160405280600081525061135b565b50565b335b90565b60008184841115610ebe5760405162461bcd60e51b81526004018080602001828103825283818151815260200191508051906020019080838360005b83811015610e83578181015183820152602001610e6b565b50505050905090810190601f168015610eb05780820380516001836020036101000a031916815260200191505b509250505060405180910390fd5b505050900390565b600082820183811015610f20576040805162461bcd60e51b815260206004820152601b60248201527f536166654d6174683a206164646974696f6e206f766572666c6f770000000000604482015290519081900360640190fd5b9392505050565b610f39846001600160a01b0316611463565b15610a2f57836001600160a01b031663bc197c8187878686866040518663ffffffff1660e01b815260040180866001600160a01b03168152602001856001600160a01b03168152602001806020018060200180602001848103845287818151815260200191508051906020019060200280838360005b83811015610fc7578181015183820152602001610faf565b50505050905001848103835286818151815260200191508051906020019060200280838360005b83811015611006578181015183820152602001610fee565b50505050905001848103825285818151815260200191508051906020019080838360005b8381101561104257818101518382015260200161102a565b50505050905090810190601f16801561106f5780820380516001836020036101000a031916815260200191505b5098505050505050505050602060405180830381600087803b15801561109457600080fd5b505af19250505080156110b957506040513d60208110156110b457600080fd5b505160015b61114e576110c561146f565b806110d05750611117565b60405162461bcd60e51b8152602060048201818152835160248401528351849391928392604401919085019080838360008315610e83578181015183820152602001610e6b565b60405162461bcd60e51b81526004018080602001828103825260348152602001806115156034913960400191505060405180910390fd5b6001600160e01b0319811663bc197c8160e01b1461119d5760405162461bcd60e51b81526004018080602001828103825260288152602001806115496028913960400191505060405180910390fd5b50505050505050565b6040805160018082528183019092526060918291906020808301908036833701905050905082816000815181106111d957fe5b602090810291909101015292915050565b6111fc846001600160a01b0316611463565b15610a2f57836001600160a01b031663f23a6e6187878686866040518663ffffffff1660e01b815260040180866001600160a01b03168152602001856001600160a01b0316815260200184815260200183815260200180602001828103825283818151815260200191508051906020019080838360005b8381101561128b578181015183820152602001611273565b50505050905090810190601f1680156112b85780820380516001836020036101000a031916815260200191505b509650505050505050602060405180830381600087803b1580156112db57600080fd5b505af192505050801561130057506040513d60208110156112fb57600080fd5b505160015b61130c576110c561146f565b6001600160e01b0319811663f23a6e6160e01b1461119d5760405162461bcd60e51b81526004018080602001828103825260288152602001806115496028913960400191505060405180910390fd5b6001600160a01b0384166113a05760405162461bcd60e51b81526004018080602001828103825260218152602001806116c06021913960400191505060405180910390fd5b60006113aa610e2a565b90506113bc81600087610d09886111a6565b60008481526001602090815260408083206001600160a01b03891684529091529020546113e99084610ec6565b60008581526001602090815260408083206001600160a01b03808b16808652918452828520959095558151898152928301889052815190948616927fc3d58168c5ae7397731d063d5bbf3d657854427343f4c083240f7aacaa2d0f6292908290030190a461145c816000878787876111ea565b5050505050565b3b151590565b60e01c90565b600060443d101561147f57610e2c565b600481823e6308c379a06114938251611469565b1461149d57610e2c565b6040513d600319016004823e80513d67ffffffffffffffff81602484011181841117156114cd5750505050610e2c565b828401925082519150808211156114e75750505050610e2c565b503d830160208284010111156114ff57505050610e2c565b601f01601f191681016020016040529150509056fe455243313135353a207472616e7366657220746f206e6f6e2045524331313535526563656976657220696d706c656d656e746572455243313135353a204552433131353552656365697665722072656a656374656420746f6b656e73455243313135353a2062616c616e636520717565727920666f7220746865207a65726f2061646472657373455243313135353a2063616c6c6572206973206e6f74206f776e6572206e6f7220617070726f766564455243313135353a207472616e7366657220746f20746865207a65726f2061646472657373455243313135353a207472616e736665722063616c6c6572206973206e6f74206f776e6572206e6f7220617070726f766564455243313135353a20696e73756666696369656e742062616c616e636520666f72207472616e73666572455243313135353a2073657474696e6720617070726f76616c2073746174757320666f722073656c66455243313135353a206163636f756e747320616e6420696473206c656e677468206d69736d61746368455243313135353a2069647320616e6420616d6f756e7473206c656e677468206d69736d61746368455243313135353a206d696e7420746f20746865207a65726f2061646472657373a2646970667358221220b3fb1f2a88b98b0cd2a2561a89eb6d98ea61674a47c40ad63298bfa23631225664736f6c63430007040033",
  "immutableReferences": {},
  "source": "//SPDX-License-Identifier: GPL-3.0-or-later\npragma solidity ^0.7.0;\n\nimport \"@openzeppelin/contracts/token/ERC1155/ERC1155.sol\";\n\ncontract PermissionsMock is ERC1155 {\n    // solhint-disable-next-line\n    constructor(string memory uri_) public ERC1155(uri_) {}\n\n    function assingItem(address _account) public {\n        _mint(_account, 1, 1, \"\");\n    }\n}\n",
  "sourcePath": "/home/dbale/_dev/_git/x_aux/balancer-core/contracts/test/mocks/PermissionsMock.sol",
  "compiler": {
    "name": "solc",
    "version": "0.7.4+commit.3f05b770.Emscripten.clang"
  },
  "schemaVersion": "3.3.4",
  "updatedAt": "2022-06-22T17:52:35.876Z",
  "networkType": "ethereum",
  "devdoc": {
    "kind": "dev",
    "methods": {
      "balanceOf(address,uint256)": {
        "details": "See {IERC1155-balanceOf}. Requirements: - `account` cannot be the zero address."
      },
      "balanceOfBatch(address[],uint256[])": {
        "details": "See {IERC1155-balanceOfBatch}. Requirements: - `accounts` and `ids` must have the same length."
      },
      "isApprovedForAll(address,address)": {
        "details": "See {IERC1155-isApprovedForAll}."
      },
      "safeBatchTransferFrom(address,address,uint256[],uint256[],bytes)": {
        "details": "See {IERC1155-safeBatchTransferFrom}."
      },
      "safeTransferFrom(address,address,uint256,uint256,bytes)": {
        "details": "See {IERC1155-safeTransferFrom}."
      },
      "setApprovalForAll(address,bool)": {
        "details": "See {IERC1155-setApprovalForAll}."
      },
      "supportsInterface(bytes4)": {
        "details": "See {IERC165-supportsInterface}. Time complexity O(1), guaranteed to always use less than 30 000 gas."
      },
      "uri(uint256)": {
        "details": "See {IERC1155MetadataURI-uri}. This implementation returns the same URI for *all* token types. It relies on the token type ID substitution mechanism https://eips.ethereum.org/EIPS/eip-1155#metadata[defined in the EIP]. Clients calling this function must replace the `\\{id\\}` substring with the actual token type ID."
      }
    },
    "version": 1
  },
  "userdoc": {
    "kind": "user",
    "methods": {},
    "version": 1
  }
}