{
  "contractName": "TBPoolJoinExitNoFee",
  "abi": [
    {
      "inputs": [],
      "name": "BONE",
      "outputs": [
        {
          "internalType": "uint256",
          "name": "",
          "type": "uint256"
        }
      ],
      "stateMutability": "view",
      "type": "function"
    },
    {
      "inputs": [],
      "name": "BPOW_PRECISION",
      "outputs": [
        {
          "internalType": "uint256",
          "name": "",
          "type": "uint256"
        }
      ],
      "stateMutability": "view",
      "type": "function"
    },
    {
      "inputs": [],
      "name": "EXIT_FEE",
      "outputs": [
        {
          "internalType": "uint256",
          "name": "",
          "type": "uint256"
        }
      ],
      "stateMutability": "view",
      "type": "function"
    },
    {
      "inputs": [],
      "name": "INIT_POOL_SUPPLY",
      "outputs": [
        {
          "internalType": "uint256",
          "name": "",
          "type": "uint256"
        }
      ],
      "stateMutability": "view",
      "type": "function"
    },
    {
      "inputs": [],
      "name": "MAX_BOUND_TOKENS",
      "outputs": [
        {
          "internalType": "uint256",
          "name": "",
          "type": "uint256"
        }
      ],
      "stateMutability": "view",
      "type": "function"
    },
    {
      "inputs": [],
      "name": "MAX_BPOW_BASE",
      "outputs": [
        {
          "internalType": "uint256",
          "name": "",
          "type": "uint256"
        }
      ],
      "stateMutability": "view",
      "type": "function"
    },
    {
      "inputs": [],
      "name": "MAX_FEE",
      "outputs": [
        {
          "internalType": "uint256",
          "name": "",
          "type": "uint256"
        }
      ],
      "stateMutability": "view",
      "type": "function"
    },
    {
      "inputs": [],
      "name": "MAX_IN_RATIO",
      "outputs": [
        {
          "internalType": "uint256",
          "name": "",
          "type": "uint256"
        }
      ],
      "stateMutability": "view",
      "type": "function"
    },
    {
      "inputs": [],
      "name": "MAX_OUT_RATIO",
      "outputs": [
        {
          "internalType": "uint256",
          "name": "",
          "type": "uint256"
        }
      ],
      "stateMutability": "view",
      "type": "function"
    },
    {
      "inputs": [],
      "name": "MAX_TOTAL_WEIGHT",
      "outputs": [
        {
          "internalType": "uint256",
          "name": "",
          "type": "uint256"
        }
      ],
      "stateMutability": "view",
      "type": "function"
    },
    {
      "inputs": [],
      "name": "MAX_WEIGHT",
      "outputs": [
        {
          "internalType": "uint256",
          "name": "",
          "type": "uint256"
        }
      ],
      "stateMutability": "view",
      "type": "function"
    },
    {
      "inputs": [],
      "name": "MIN_BALANCE",
      "outputs": [
        {
          "internalType": "uint256",
          "name": "",
          "type": "uint256"
        }
      ],
      "stateMutability": "view",
      "type": "function"
    },
    {
      "inputs": [],
      "name": "MIN_BOUND_TOKENS",
      "outputs": [
        {
          "internalType": "uint256",
          "name": "",
          "type": "uint256"
        }
      ],
      "stateMutability": "view",
      "type": "function"
    },
    {
      "inputs": [],
      "name": "MIN_BPOW_BASE",
      "outputs": [
        {
          "internalType": "uint256",
          "name": "",
          "type": "uint256"
        }
      ],
      "stateMutability": "view",
      "type": "function"
    },
    {
      "inputs": [],
      "name": "MIN_FEE",
      "outputs": [
        {
          "internalType": "uint256",
          "name": "",
          "type": "uint256"
        }
      ],
      "stateMutability": "view",
      "type": "function"
    },
    {
      "inputs": [],
      "name": "MIN_WEIGHT",
      "outputs": [
        {
          "internalType": "uint256",
          "name": "",
          "type": "uint256"
        }
      ],
      "stateMutability": "view",
      "type": "function"
    },
    {
      "inputs": [],
      "name": "echidna_no_bug_found",
      "outputs": [
        {
          "internalType": "bool",
          "name": "",
          "type": "bool"
        }
      ],
      "stateMutability": "view",
      "type": "function"
    },
    {
      "inputs": [],
      "name": "getColor",
      "outputs": [
        {
          "internalType": "bytes32",
          "name": "",
          "type": "bytes32"
        }
      ],
      "stateMutability": "view",
      "type": "function"
    },
    {
      "inputs": [
        {
          "internalType": "uint256",
          "name": "poolAmountOut",
          "type": "uint256"
        },
        {
          "internalType": "uint256",
          "name": "poolAmountIn",
          "type": "uint256"
        },
        {
          "internalType": "uint256",
          "name": "poolTotal",
          "type": "uint256"
        },
        {
          "internalType": "uint256",
          "name": "_records_t_balance",
          "type": "uint256"
        }
      ],
      "name": "joinAndExitNoFeePool",
      "outputs": [],
      "stateMutability": "nonpayable",
      "type": "function"
    }
  ],
  "bytecode": "0x60806040526000805460ff1916600117905534801561001d57600080fd5b506106508061002d6000396000f3fe608060405234801561001057600080fd5b50600436106101115760003560e01c8063b0e0d136116100ad578063c36596a611610071578063c36596a614610154578063c6580d12146101ac578063e15c7d42146101b4578063e4a28a5214610116578063ec093021146101e557610111565b8063b0e0d13614610184578063b7b800a41461018c578063ba019dab14610194578063bc063e1a1461019c578063bc694ea2146101a457610111565b806309a3bbe4146101165780631819aa4214610130578063189d00ca1461014c578063218b53821461015457806376c7a3c71461015c578063867378c5146101645780639381cd2b1461016c578063992e2a92146101745780639a86139b1461017c575b600080fd5b61011e6101ed565b60408051918252519081900360200190f35b6101386101fa565b604080519115158252519081900360200190f35b61011e610203565b61011e610217565b61011e610223565b61011e610235565b61011e610249565b61011e610256565b61011e610262565b61011e61026f565b61011e610274565b61011e610279565b61011e61027e565b61011e61028e565b61011e61029a565b6101e3600480360360808110156101ca57600080fd5b508035906020810135906040810135906060013561029f565b005b61011e610376565b6802b5e3af16b188000081565b60005460ff1681565b6402540be400670de0b6b3a76400005b0481565b670de0b6b3a764000081565b620f4240670de0b6b3a7640000610213565b64e8d4a51000670de0b6b3a7640000610213565b68056bc75e2d6310000081565b6704a03ce68d21555681565b6542524f4e5a4560d01b90565b600881565b600281565b600181565b600a670de0b6b3a7640000610213565b671bc16d674ec7ffff81565b600081565b60006102ac858484610386565b905068056bc75e2d631000008311156102c457600080fd5b670de0b6b3a76400008310156102d957600080fd5b678ac7230489e800008211156102ee57600080fd5b620f42408210156102fe57600080fd5b61030883866103f1565b925061031482826103f1565b91506000811161032357600080fd5b8383101561033057600080fd5b600061033d858585610386565b90508083101561034c57600080fd5b84861161035857600080fd5b81811461036457600080fd5b50506000805460ff1916905550505050565b6002670de0b6b3a7640000610213565b6000806103938585610445565b9050806103d9576040805162461bcd60e51b815260206004820152600f60248201526e08aa4a4be9a82a890be82a0a0a49eb608b1b604482015290519081900360640190fd5b8260006103e68383610558565b979650505050505050565b60008282018381101561043e576040805162461bcd60e51b815260206004820152601060248201526f4552525f4144445f4f564552464c4f5760801b604482015290519081900360640190fd5b9392505050565b600081610488576040805162461bcd60e51b815260206004820152600c60248201526b4552525f4449565f5a45524f60a01b604482015290519081900360640190fd5b670de0b6b3a764000083028315806104b05750670de0b6b3a76400008482816104ad57fe5b04145b6104f4576040805162461bcd60e51b815260206004820152601060248201526f11549497d1125597d25395115493905360821b604482015290519081900360640190fd5b60028304810181811015610542576040805162461bcd60e51b815260206004820152601060248201526f11549497d1125597d25395115493905360821b604482015290519081900360640190fd5b600084828161054d57fe5b049695505050505050565b600082820283158061057257508284828161056f57fe5b04145b6105b6576040805162461bcd60e51b815260206004820152601060248201526f4552525f4d554c5f4f564552464c4f5760801b604482015290519081900360640190fd5b6706f05b59d3b20000810181811015610609576040805162461bcd60e51b815260206004820152601060248201526f4552525f4d554c5f4f564552464c4f5760801b604482015290519081900360640190fd5b6000670de0b6b3a76400008261054d56fea2646970667358221220f564ec4f764cd2e0e5b315fbd1f2af7681001fbe564f7f554ba681818e23dccf64736f6c63430007040033",
  "immutableReferences": {},
  "source": "import \"../../BNum.sol\";\n\npragma solidity ^0.7.0;\n\n//  This test is similar to TBPoolJoinExit but with no exit fee\ncontract TBPoolJoinExitNoFee is BNum {\n\n    bool public echidna_no_bug_found = true;\n\n    // joinPool models the BPool.joinPool behavior for one token\n    function joinPool(uint poolAmountOut, uint poolTotal, uint _records_t_balance)\n        internal pure returns(uint)\n    {\n        uint ratio = bdiv(poolAmountOut, poolTotal);\n        require(ratio != 0, \"ERR_MATH_APPROX\");\n\n        uint bal = _records_t_balance;\n        uint tokenAmountIn = bmul(ratio, bal);\n\n        return tokenAmountIn;\n    }\n\n    // exitPool models the BPool.exitPool behavior for one token where no fee is applied\n    function exitPoolNoFee(uint poolAmountIn, uint poolTotal, uint _records_t_balance)\n        internal pure returns(uint)\n    {\n        uint ratio = bdiv(poolAmountIn, poolTotal);\n        require(ratio != 0, \"ERR_MATH_APPROX\");\n\n        uint bal = _records_t_balance;\n        uint tokenAmountOut = bmul(ratio, bal);\n\n        return tokenAmountOut;\n    }\n\n    // This function model an attacker calling joinPool - exitPool and taking advantage of potential rounding\n    // issues to generate free pool token\n    function joinAndExitNoFeePool(uint poolAmountOut, uint poolAmountIn, uint poolTotal, uint _records_t_balance)\n        public\n    {\n        uint tokenAmountIn = joinPool(poolAmountOut, poolTotal, _records_t_balance);\n\n        // We constraint poolTotal and _records_t_balance\n        // To have \"realistic\" values\n        require(poolTotal <= 100 ether);\n        require(poolTotal >= 1 ether);\n        require(_records_t_balance <= 10 ether);\n        require(_records_t_balance >= 10**6);\n\n        poolTotal = badd(poolTotal, poolAmountOut);\n        _records_t_balance = badd(_records_t_balance, tokenAmountIn);\n\n        require(tokenAmountIn > 0); // prevent triggering the free token generation from joinPool\n\n        require(poolTotal >= poolAmountIn);\n        uint tokenAmountOut = exitPoolNoFee(poolAmountIn, poolTotal, _records_t_balance);\n        require(_records_t_balance >= tokenAmountOut);\n\n        // We try to generate free pool share\n        require(poolAmountOut > poolAmountIn);\n        require(tokenAmountOut == tokenAmountIn);\n        echidna_no_bug_found = false;\n    }\n\n\n}\n",
  "sourcePath": "/Users/lisandro/Protofire/Swarm/swarm-markets-balancer-core-7/contracts/test/echidna/TBPoolJoinExitPoolNoFee.sol",
  "compiler": {
    "name": "solc",
    "version": "0.7.4+commit.3f05b770.Emscripten.clang"
  },
  "schemaVersion": "3.3.4",
  "updatedAt": "2021-03-19T20:25:56.037Z",
  "devdoc": {
    "kind": "dev",
    "methods": {},
    "version": 1
  },
  "userdoc": {
    "kind": "user",
    "methods": {},
    "version": 1
  }
}